{
  "contractName": "ClaimRegistry",
  "abi": [
    {
      "constant": true,
      "inputs": [
        {
          "name": "subject",
          "type": "address"
        },
        {
          "name": "typeNameIx",
          "type": "uint256"
        },
        {
          "name": "attrNameIx",
          "type": "uint256"
        }
      ],
      "name": "getSubjectClaimSetSize",
      "outputs": [
        {
          "name": "",
          "type": "uint256"
        }
      ],
      "payable": false,
      "stateMutability": "view",
      "type": "function"
    },
    {
      "constant": true,
      "inputs": [
        {
          "name": "subject",
          "type": "address"
        }
      ],
      "name": "getLinkages",
      "outputs": [
        {
          "name": "linkedAddresses",
          "type": "address[]"
        }
      ],
      "payable": false,
      "stateMutability": "view",
      "type": "function"
    },
    {
      "constant": true,
      "inputs": [
        {
          "name": "subject",
          "type": "address"
        },
        {
          "name": "typeNameIx",
          "type": "uint256"
        },
        {
          "name": "ix",
          "type": "uint256"
        }
      ],
      "name": "getSubjectTypeAttrAt",
      "outputs": [
        {
          "name": "",
          "type": "uint256"
        }
      ],
      "payable": false,
      "stateMutability": "view",
      "type": "function"
    },
    {
      "constant": true,
      "inputs": [
        {
          "name": "linkedAddress",
          "type": "address"
        }
      ],
      "name": "getSubjectCountByAddress",
      "outputs": [
        {
          "name": "subjectCount",
          "type": "uint256"
        }
      ],
      "payable": false,
      "stateMutability": "view",
      "type": "function"
    },
    {
      "constant": false,
      "inputs": [
        {
          "name": "subject",
          "type": "address"
        },
        {
          "name": "typeIx",
          "type": "uint256"
        },
        {
          "name": "attrIx",
          "type": "uint256"
        },
        {
          "name": "urlIx",
          "type": "uint256"
        }
      ],
      "name": "submitClaim",
      "outputs": [],
      "payable": false,
      "stateMutability": "nonpayable",
      "type": "function"
    },
    {
      "constant": true,
      "inputs": [
        {
          "name": "subject",
          "type": "address"
        },
        {
          "name": "ix",
          "type": "uint256"
        }
      ],
      "name": "getSubjectTypeAt",
      "outputs": [
        {
          "name": "",
          "type": "uint256"
        }
      ],
      "payable": false,
      "stateMutability": "view",
      "type": "function"
    },
    {
      "constant": true,
      "inputs": [
        {
          "name": "subject",
          "type": "address"
        },
        {
          "name": "typeNameIx",
          "type": "uint256"
        }
      ],
      "name": "getSubjectTypeAttrCount",
      "outputs": [
        {
          "name": "",
          "type": "uint256"
        }
      ],
      "payable": false,
      "stateMutability": "view",
      "type": "function"
    },
    {
      "constant": true,
      "inputs": [
        {
          "name": "subject",
          "type": "address"
        },
        {
          "name": "typeNameIx",
          "type": "uint256"
        },
        {
          "name": "attrNameIx",
          "type": "uint256"
        },
        {
          "name": "ix",
          "type": "uint256"
        }
      ],
      "name": "getSubjectClaimSetEntryAt",
      "outputs": [
        {
          "name": "issuer",
          "type": "address"
        },
        {
          "name": "url",
          "type": "uint256"
        }
      ],
      "payable": false,
      "stateMutability": "view",
      "type": "function"
    },
    {
      "constant": true,
      "inputs": [],
      "name": "getKeyProofsAddress",
      "outputs": [
        {
          "name": "",
          "type": "address"
        }
      ],
      "payable": false,
      "stateMutability": "view",
      "type": "function"
    },
    {
      "constant": true,
      "inputs": [
        {
          "name": "subject",
          "type": "address"
        }
      ],
      "name": "getSubjectTypeCount",
      "outputs": [
        {
          "name": "",
          "type": "uint256"
        }
      ],
      "payable": false,
      "stateMutability": "view",
      "type": "function"
    },
    {
      "constant": true,
      "inputs": [
        {
          "name": "subject",
          "type": "address"
        }
      ],
      "name": "getLinkagesWithProofs",
      "outputs": [
        {
          "name": "addrLinks",
          "type": "address[]"
        },
        {
          "name": "proofHashes",
          "type": "bytes32[]"
        }
      ],
      "payable": false,
      "stateMutability": "view",
      "type": "function"
    },
    {
      "constant": false,
      "inputs": [],
      "name": "destroy",
      "outputs": [],
      "payable": false,
      "stateMutability": "nonpayable",
      "type": "function"
    },
    {
      "constant": true,
      "inputs": [
        {
          "name": "subject",
          "type": "address"
        }
      ],
      "name": "getLinkageCount",
      "outputs": [
        {
          "name": "linkageCount",
          "type": "uint256"
        }
      ],
      "payable": false,
      "stateMutability": "view",
      "type": "function"
    },
    {
      "constant": true,
      "inputs": [
        {
          "name": "sIx",
          "type": "uint256"
        }
      ],
      "name": "_linkCountByIx",
      "outputs": [
        {
          "name": "linkCount",
          "type": "uint256"
        }
      ],
      "payable": false,
      "stateMutability": "view",
      "type": "function"
    },
    {
      "constant": true,
      "inputs": [
        {
          "name": "linkedAddress",
          "type": "address"
        },
        {
          "name": "subjectIndex",
          "type": "uint256"
        }
      ],
      "name": "getSingleSubjectByAddress",
      "outputs": [
        {
          "name": "subject",
          "type": "address"
        }
      ],
      "payable": false,
      "stateMutability": "view",
      "type": "function"
    },
    {
      "constant": true,
      "inputs": [
        {
          "name": "linkedAddress",
          "type": "address"
        }
      ],
      "name": "getSubjectsByAddress",
      "outputs": [
        {
          "name": "subjects",
          "type": "address[]"
        }
      ],
      "payable": false,
      "stateMutability": "view",
      "type": "function"
    },
    {
      "constant": false,
      "inputs": [
        {
          "name": "linkedAddress",
          "type": "address"
        },
        {
          "name": "txHash",
          "type": "bytes32"
        }
      ],
      "name": "submitLinkage",
      "outputs": [
        {
          "name": "linkageCount",
          "type": "uint256"
        }
      ],
      "payable": false,
      "stateMutability": "nonpayable",
      "type": "function"
    },
    {
      "constant": false,
      "inputs": [
        {
          "name": "linkedAddress",
          "type": "address"
        }
      ],
      "name": "terminateLinkage",
      "outputs": [
        {
          "name": "linkageCount",
          "type": "uint256"
        }
      ],
      "payable": false,
      "stateMutability": "nonpayable",
      "type": "function"
    },
    {
      "inputs": [
        {
          "name": "keyProofs",
          "type": "address"
        },
        {
          "name": "nameStorageFacade",
          "type": "address"
        }
      ],
      "payable": false,
      "stateMutability": "nonpayable",
      "type": "constructor"
    },
    {
      "anonymous": false,
      "inputs": [
        {
          "indexed": true,
          "name": "subject",
          "type": "address"
        },
        {
          "indexed": true,
          "name": "linkedAddress",
          "type": "address"
        },
        {
          "indexed": false,
          "name": "linkCount",
          "type": "uint256"
        }
      ],
      "name": "TerminatedLinkage",
      "type": "event"
    },
    {
      "anonymous": false,
      "inputs": [
        {
          "indexed": true,
          "name": "subject",
          "type": "address"
        },
        {
          "indexed": true,
          "name": "linkedAddress",
          "type": "address"
        },
        {
          "indexed": false,
          "name": "proofHash",
          "type": "bytes32"
        },
        {
          "indexed": false,
          "name": "linkCount",
          "type": "uint256"
        }
      ],
      "name": "GotLinkage",
      "type": "event"
    },
    {
      "anonymous": false,
      "inputs": [
        {
          "indexed": true,
          "name": "subject",
          "type": "address"
        },
        {
          "indexed": false,
          "name": "typeIx",
          "type": "uint256"
        },
        {
          "indexed": false,
          "name": "attrIx",
          "type": "uint256"
        },
        {
          "indexed": false,
          "name": "urlIx",
          "type": "uint256"
        }
      ],
      "name": "GotClaim",
      "type": "event"
    }
  ],
  "bytecode": "0x606060405234156200001057600080fd5b604051604080620020e4833981016040528080519060200190919080519060200190919050506000336000806101000a81548173ffffffffffffffffffffffffffffffffffffffff021916908373ffffffffffffffffffffffffffffffffffffffff16021790555082600160006101000a81548173ffffffffffffffffffffffffffffffffffffffff021916908373ffffffffffffffffffffffffffffffffffffffff16021790555081600260006101000a81548173ffffffffffffffffffffffffffffffffffffffff021916908373ffffffffffffffffffffffffffffffffffffffff1602179055506008805480600101828162000110919062000168565b9160005260206000209001600083909190916101000a81548173ffffffffffffffffffffffffffffffffffffffff021916908373ffffffffffffffffffffffffffffffffffffffff16021790555050505050620001bf565b815481835581811511620001925781836000526020600020918201910162000191919062000197565b5b505050565b620001bc91905b80821115620001b85760008160009055506001016200019e565b5090565b90565b611f1580620001cf6000396000f3006060604052600436106100fc576000357c0100000000000000000000000000000000000000000000000000000000900463ffffffff1680631c8cba3b146101015780632d3b4d04146101605780633a7f4b65146101ee5780633f2662421461024d578063458604d31461029a578063510fa83f146102ee57806353d6e0b7146103445780636ec7743d1461039a578063723d2073146104355780637917f7251461048a57806382824d5f146104d757806383197ef0146105ad5780638513e3f2146105c2578063a6224de21461060f578063ad6eba9f14610646578063cc352ec2146106c8578063d473c51c14610756578063e85a66f1146107b0575b600080fd5b341561010c57600080fd5b61014a600480803573ffffffffffffffffffffffffffffffffffffffff169060200190919080359060200190919080359060200190919050506107fd565b6040518082815260200191505060405180910390f35b341561016b57600080fd5b610197600480803573ffffffffffffffffffffffffffffffffffffffff16906020019091905050610870565b6040518080602001828103825283818151815260200191508051906020019060200280838360005b838110156101da5780820151818401526020810190506101bf565b505050509050019250505060405180910390f35b34156101f957600080fd5b610237600480803573ffffffffffffffffffffffffffffffffffffffff16906020019091908035906020019091908035906020019091905050610983565b6040518082815260200191505060405180910390f35b341561025857600080fd5b610284600480803573ffffffffffffffffffffffffffffffffffffffff169060200190919050506109f7565b6040518082815260200191505060405180910390f35b34156102a557600080fd5b6102ec600480803573ffffffffffffffffffffffffffffffffffffffff16906020019091908035906020019091908035906020019091908035906020019091905050610a16565b005b34156102f957600080fd5b61032e600480803573ffffffffffffffffffffffffffffffffffffffff169060200190919080359060200190919050506110b5565b6040518082815260200191505060405180910390f35b341561034f57600080fd5b610384600480803573ffffffffffffffffffffffffffffffffffffffff16906020019091908035906020019091905050611117565b6040518082815260200191505060405180910390f35b34156103a557600080fd5b6103ec600480803573ffffffffffffffffffffffffffffffffffffffff16906020019091908035906020019091908035906020019091908035906020019091905050611175565b604051808373ffffffffffffffffffffffffffffffffffffffff1673ffffffffffffffffffffffffffffffffffffffff1681526020018281526020019250505060405180910390f35b341561044057600080fd5b61044861129f565b604051808273ffffffffffffffffffffffffffffffffffffffff1673ffffffffffffffffffffffffffffffffffffffff16815260200191505060405180910390f35b341561049557600080fd5b6104c1600480803573ffffffffffffffffffffffffffffffffffffffff169060200190919050506112c9565b6040518082815260200191505060405180910390f35b34156104e257600080fd5b61050e600480803573ffffffffffffffffffffffffffffffffffffffff16906020019091905050611315565b604051808060200180602001838103835285818151815260200191508051906020019060200280838360005b8381101561055557808201518184015260208101905061053a565b50505050905001838103825284818151815260200191508051906020019060200280838360005b8381101561059757808201518184015260208101905061057c565b5050505090500194505050505060405180910390f35b34156105b857600080fd5b6105c06113fc565b005b34156105cd57600080fd5b6105f9600480803573ffffffffffffffffffffffffffffffffffffffff16906020019091905050611491565b6040518082815260200191505060405180910390f35b341561061a57600080fd5b61063060048080359060200190919050506114bf565b6040518082815260200191505060405180910390f35b341561065157600080fd5b610686600480803573ffffffffffffffffffffffffffffffffffffffff169060200190919080359060200190919050506114e2565b604051808273ffffffffffffffffffffffffffffffffffffffff1673ffffffffffffffffffffffffffffffffffffffff16815260200191505060405180910390f35b34156106d357600080fd5b6106ff600480803573ffffffffffffffffffffffffffffffffffffffff16906020019091905050611518565b6040518080602001828103825283818151815260200191508051906020019060200280838360005b83811015610742578082015181840152602081019050610727565b505050509050019250505060405180910390f35b341561076157600080fd5b61079a600480803573ffffffffffffffffffffffffffffffffffffffff1690602001909190803560001916906020019091905050611647565b6040518082815260200191505060405180910390f35b34156107bb57600080fd5b6107e7600480803573ffffffffffffffffffffffffffffffffffffffff169060200190919050506117d2565b6040518082815260200191505060405180910390f35b6000600360008573ffffffffffffffffffffffffffffffffffffffff1673ffffffffffffffffffffffffffffffffffffffff168152602001908152602001600020600084815260200190815260200160002060008381526020019081526020016000206000018054905090509392505050565b610878611dc2565b600080610883611dc2565b600061088e86611b6f565b935060008411151561089f57600080fd5b60066000858152602001908152602001600020600001805490509250826040518059106108c95750595b90808252806020026020018201604052509150600090505b8281101561097757610920600660008681526020019081526020016000206000018281548110151561090f57fe5b906000526020600020900154611c09565b828281518110151561092e57fe5b9060200190602002019073ffffffffffffffffffffffffffffffffffffffff16908173ffffffffffffffffffffffffffffffffffffffff168152505080806001019150506108e1565b81945050505050919050565b6000600460008573ffffffffffffffffffffffffffffffffffffffff1673ffffffffffffffffffffffffffffffffffffffff1681526020019081526020016000206000848152602001908152602001600020828154811015156109e257fe5b90600052602060002090015490509392505050565b6000610a01611dc2565b610a0a83611518565b90508051915050919050565b6000808573ffffffffffffffffffffffffffffffffffffffff163373ffffffffffffffffffffffffffffffffffffffff16149150600160009054906101000a900473ffffffffffffffffffffffffffffffffffffffff1673ffffffffffffffffffffffffffffffffffffffff1663b8d2b1a187336000604051602001526040518363ffffffff167c0100000000000000000000000000000000000000000000000000000000028152600401808373ffffffffffffffffffffffffffffffffffffffff1673ffffffffffffffffffffffffffffffffffffffff1681526020018273ffffffffffffffffffffffffffffffffffffffff1673ffffffffffffffffffffffffffffffffffffffff16815260200192505050602060405180830381600087803b1515610b4357600080fd5b6102c65a03f11515610b5457600080fd5b5050506040518051905090508180610b695750805b1515610b7457600080fd5b600085111515610b8357600080fd5b600084111515610b9257600080fd5b600083111515610ba157600080fd5b84600260009054906101000a900473ffffffffffffffffffffffffffffffffffffffff1673ffffffffffffffffffffffffffffffffffffffff1663fe4d1ce0600080604051602001526040518263ffffffff167c010000000000000000000000000000000000000000000000000000000002815260040180828152602001915050602060405180830381600087803b1515610c3b57600080fd5b6102c65a03f11515610c4c57600080fd5b5050506040518051905010151515610c6357600080fd5b83600260009054906101000a900473ffffffffffffffffffffffffffffffffffffffff1673ffffffffffffffffffffffffffffffffffffffff1663fe4d1ce060016000604051602001526040518263ffffffff167c010000000000000000000000000000000000000000000000000000000002815260040180828152602001915050602060405180830381600087803b1515610cfe57600080fd5b6102c65a03f11515610d0f57600080fd5b5050506040518051905010151515610d2657600080fd5b60001515600360008873ffffffffffffffffffffffffffffffffffffffff1673ffffffffffffffffffffffffffffffffffffffff1681526020019081526020016000206000878152602001908152602001600020600086815260200190815260200160002060020160009054906101000a900460ff1615151415610eff576001600360008873ffffffffffffffffffffffffffffffffffffffff1673ffffffffffffffffffffffffffffffffffffffff1681526020019081526020016000206000878152602001908152602001600020600086815260200190815260200160002060020160006101000a81548160ff021916908315150217905550600560008773ffffffffffffffffffffffffffffffffffffffff1673ffffffffffffffffffffffffffffffffffffffff1681526020019081526020016000208054806001018281610e729190611dd6565b916000526020600020900160008790919091505550600460008773ffffffffffffffffffffffffffffffffffffffff1673ffffffffffffffffffffffffffffffffffffffff16815260200190815260200160002060008681526020019081526020016000208054806001018281610ee99190611dd6565b9160005260206000209001600086909190915055505b600360008773ffffffffffffffffffffffffffffffffffffffff1673ffffffffffffffffffffffffffffffffffffffff168152602001908152602001600020600086815260200190815260200160002060008581526020019081526020016000206000018054806001018281610f759190611dd6565b916000526020600020900160008590919091505550600360008773ffffffffffffffffffffffffffffffffffffffff1673ffffffffffffffffffffffffffffffffffffffff1681526020019081526020016000206000868152602001908152602001600020600085815260200190815260200160002060010180548060010182816110009190611e02565b9160005260206000209001600033909190916101000a81548173ffffffffffffffffffffffffffffffffffffffff021916908373ffffffffffffffffffffffffffffffffffffffff160217905550508573ffffffffffffffffffffffffffffffffffffffff167fd35e0b4d4391a5b4b2a52b5d72ff5d1d9e95a80936ee91f3ce02946cae7d8b6a86868660405180848152602001838152602001828152602001935050505060405180910390a2505050505050565b6000600560008473ffffffffffffffffffffffffffffffffffffffff1673ffffffffffffffffffffffffffffffffffffffff1681526020019081526020016000208281548110151561110357fe5b906000526020600020900154905092915050565b6000600460008473ffffffffffffffffffffffffffffffffffffffff1673ffffffffffffffffffffffffffffffffffffffff168152602001908152602001600020600083815260200190815260200160002080549050905092915050565b600080600360008773ffffffffffffffffffffffffffffffffffffffff1673ffffffffffffffffffffffffffffffffffffffff16815260200190815260200160002060008681526020019081526020016000206000858152602001908152602001600020600101838154811015156111e957fe5b906000526020600020900160009054906101000a900473ffffffffffffffffffffffffffffffffffffffff169150600360008773ffffffffffffffffffffffffffffffffffffffff1673ffffffffffffffffffffffffffffffffffffffff168152602001908152602001600020600086815260200190815260200160002060008581526020019081526020016000206000018381548110151561128857fe5b906000526020600020900154905094509492505050565b6000600160009054906101000a900473ffffffffffffffffffffffffffffffffffffffff16905090565b6000600560008373ffffffffffffffffffffffffffffffffffffffff1673ffffffffffffffffffffffffffffffffffffffff168152602001908152602001600020805490509050919050565b61131d611dc2565b611325611e2e565b61132d611dc2565b6000611337611e2e565b60008061134388610870565b945084519350836040518059106113575750595b9080825280602002602001820160405250925061137388611b6f565b915060008211151561138457600080fd5b600090505b838110156113ec576006600083815260200190815260200160002060010160008281526020019081526020016000205483828151811015156113c757fe5b9060200190602002019060001916908160001916815250508080600101915050611389565b8483965096505050505050915091565b6000809054906101000a900473ffffffffffffffffffffffffffffffffffffffff1673ffffffffffffffffffffffffffffffffffffffff163373ffffffffffffffffffffffffffffffffffffffff1614151561145757600080fd5b6000809054906101000a900473ffffffffffffffffffffffffffffffffffffffff1673ffffffffffffffffffffffffffffffffffffffff16ff5b60008061149d83611b6f565b90506000811115156114ae57600080fd5b6114b7816114bf565b915050919050565b600060066000838152602001908152602001600020600001805490509050919050565b60006114ec611dc2565b6114f584611518565b9050808381518110151561150557fe5b9060200190602002015191505092915050565b611520611dc2565b60008061152b611dc2565b600061153686611b6f565b935060008414156115685760006040518059106115505750595b9080825280602002602001820160405250945061163e565b600760008581526020019081526020016000208054905092508260405180591061158f5750595b90808252806020026020018201604052509150600090505b8281101561163a576115e360076000868152602001908152602001600020828154811015156115d257fe5b906000526020600020900154611c09565b82828151811015156115f157fe5b9060200190602002019073ffffffffffffffffffffffffffffffffffffffff16908173ffffffffffffffffffffffffffffffffffffffff168152505080806001019150506115a7565b8194505b50505050919050565b60008060008033925061165983611c6e565b915060008211151561166a57600080fd5b61167386611c6e565b905060008111151561168457600080fd5b61168e8282611d41565b15151561169a57600080fd5b6116a3826114bf565b93506006600083815260200190815260200160002060000180548060010182816116cd9190611dd6565b9160005260206000209001600083909190915055508460066000848152602001908152602001600020600101600086815260200190815260200160002081600019169055506007600082815260200190815260200160002080548060010182816117379190611dd6565b91600052602060002090016000849091909150555083806001019450508573ffffffffffffffffffffffffffffffffffffffff168373ffffffffffffffffffffffffffffffffffffffff167f8ac159ddbb733e2ee5d38e32ff2b5cca9414f01660f7541dfcd8225645308c4b87876040518083600019166000191681526020018281526020019250505060405180910390a350505092915050565b6000806000806000806117e3611e42565b60008060006117f0611e42565b3399506117fc8a611b6f565b985060008911151561180d57600080fd5b6118168c611b6f565b975060008811151561182757600080fd5b6118318989611d41565b151561183c57600080fd5b611845896114bf565b9a508a80600190039b50506000965060008b1115611993578a60405180591061186b5750595b908082528060200260200182016040525094506000935060009550600096505b8a871115156119335787600660008b8152602001908152602001600020600001888154811015156118b857fe5b90600052602060002090015414156118d257869350611926565b600660008a8152602001908152602001600020600001878154811015156118f557fe5b906000526020600020900154858781518110151561190f57fe5b906020019060200201818152505085806001019650505b868060010197505061188b565b82600660008b81526020019081526020016000206001016000868152602001908152602001600020816000191690555084600660008b8152602001908152602001600020600001908051906020019061198d929190611e56565b506119ba565b600660008a8152602001908152602001600020600080820160006119b79190611ea3565b50505b600760008981526020019081526020016000208054905091508180600190039250506000821415611a0957600760008981526020019081526020016000206000611a049190611ea3565b611afb565b81604051805910611a175750595b9080825280602002602001820160405250905060009550600096505b8187111515611ad25788600760008a815260200190815260200160002088815481101515611a5d57fe5b9060005260206000209001541415611a7457611ac5565b6007600089815260200190815260200160002087815481101515611a9457fe5b9060005260206000209001548187815181101515611aae57fe5b906020019060200201818152505085806001019650505b8680600101975050611a33565b80600760008a81526020019081526020016000209080519060200190611af9929190611e56565b505b8b73ffffffffffffffffffffffffffffffffffffffff168a73ffffffffffffffffffffffffffffffffffffffff167fd93b76799b18f1a0798ad677a1228c47d38f8ad87f203d195060a8617746781a8d6040518082815260200191505060405180910390a350505050505050505050919050565b600080600960008473ffffffffffffffffffffffffffffffffffffffff1673ffffffffffffffffffffffffffffffffffffffff168152602001908152602001600020541115611bff57600960008373ffffffffffffffffffffffffffffffffffffffff1673ffffffffffffffffffffffffffffffffffffffff168152602001908152602001600020549050611c04565b600090505b919050565b60008082111515611c1957600080fd5b81600880549050111515611c2c57600080fd5b600882815481101515611c3b57fe5b906000526020600020900160009054906101000a900473ffffffffffffffffffffffffffffffffffffffff169050919050565b6000611c7982611b6f565b90506000811115611c8c57809050611d3c565b600880549050905080600960008473ffffffffffffffffffffffffffffffffffffffff1673ffffffffffffffffffffffffffffffffffffffff1681526020019081526020016000208190555060088054806001018281611cec9190611e02565b9160005260206000209001600084909190916101000a81548173ffffffffffffffffffffffffffffffffffffffff021916908373ffffffffffffffffffffffffffffffffffffffff160217905550505b919050565b600080600090505b6006600085815260200190815260200160002060000180549050811015611db657826006600086815260200190815260200160002060000182815481101515611d8e57fe5b9060005260206000209001541415611da95760019150611dbb565b8080600101915050611d49565b600091505b5092915050565b602060405190810160405280600081525090565b815481835581811511611dfd57818360005260206000209182019101611dfc9190611ec4565b5b505050565b815481835581811511611e2957818360005260206000209182019101611e289190611ec4565b5b505050565b602060405190810160405280600081525090565b602060405190810160405280600081525090565b828054828255906000526020600020908101928215611e92579160200282015b82811115611e91578251825591602001919060010190611e76565b5b509050611e9f9190611ec4565b5090565b5080546000825590600052602060002090810190611ec19190611ec4565b50565b611ee691905b80821115611ee2576000816000905550600101611eca565b5090565b905600a165627a7a72305820b4a7c344c0ee2f1bea9dba9bc6e2914c21aba828df098361aa156ba66609da7a0029",
  "source": "pragma solidity ^0.4.15;\n\nimport './NameStorageFacade.sol';\nimport './KeyProofs.sol';\nimport './Destroyable.sol';\n\ncontract ClaimRegistry is Destroyable {\n\n    // type indices\n    uint constant TYPE_TIX = 0; \n    uint constant ATTR_TIX = 1; \n    uint constant URL_TIX = 2; \n\n    address _keyProofsAddr;\n    address _nameStorageFacade;\n\n    event TerminatedLinkage(address indexed subject, address indexed linkedAddress, uint linkCount);\n    event GotLinkage(address indexed subject, address indexed linkedAddress, bytes32 proofHash, uint linkCount);\n    event GotClaim(address indexed subject, uint typeIx, uint attrIx, uint urlIx);\n\n\n    function ClaimRegistry(address keyProofs, address nameStorageFacade) public {\n        _keyProofsAddr = keyProofs;\n        _nameStorageFacade = nameStorageFacade;\n        \n        // Initialize 0 index with empty  value to start valid indexes from 1\n        address a;\n        globalAddressIndex.push(a);\n    }   \n    \n    struct ClaimSetV1 {\n        uint[] urls;\n        address[] issuers;\n        bool isValid;\n    }\n\n    struct Linkages{\n        uint[] linkedAddressesIx;\n        mapping (uint => bytes32) linkHashMaps;\n    }\n\n\n    mapping (address => mapping(uint => mapping(uint => ClaimSetV1))) subjectToTypeToAttrToClaims;\n    mapping (address => mapping(uint => uint[])) subjectTypeClaimIndexes; \n    mapping (address => uint[]) subjectTypeIndexes;\n    \n    //   subjectIx => linkIx[]\n    mapping (uint => Linkages)  subjectIxTolinkedAddrIx; \n    //   linkedAddressIx => subjectIx[]\n    mapping (uint => uint[])  linkedAddrIxToSubjectIx; \n   \n    address[] globalAddressIndex;\n    mapping (address => uint) globalAddressHelper;\n\n\n    function getLinkageCount(address subject) public view returns(uint linkageCount) {\n       \n        uint sIx = _laddrGetIx(subject);\n\n        require(sIx > 0);\n        \n        return _linkCountByIx(sIx);\n    }\n\n    \n    function _linkCountByIx( uint sIx) public view returns(uint linkCount) {\n        return subjectIxTolinkedAddrIx[sIx].linkedAddressesIx.length;\n    }\n\n    function _laddrAddOrGetIx(address myAddress) private returns (uint laddrIx) {\n        laddrIx = _laddrGetIx(myAddress);\n\n        if(laddrIx > 0){\n            return laddrIx;\n        }\n\n        laddrIx = globalAddressIndex.length;\n\n        globalAddressHelper[myAddress] = laddrIx;\n        globalAddressIndex.push(myAddress);\n    }\n\n    function _laddrRemove(address myAddress) private {\n        uint lIx = _laddrGetIx(myAddress);\n\n        require(lIx > 0);\n\n        globalAddressHelper[myAddress] = 0; \n        delete(globalAddressIndex[lIx]);\n    }\n\n    function _laddrGetIx(address myAddress) private view returns (uint laddrIx){\n        \n        if (globalAddressHelper[myAddress] > 0){\n            return globalAddressHelper[myAddress];\n        }\n        \n        // legacy \n        // for (uint i = 0 ; i < globalAddressIndex.length ; i++ ){\n        //     if (globalAddressIndex[i] == myAddress){\n        //         return i;\n        //     }\n        // }\n\n        return 0;\n    }\n\n    function _laddrGetAddr(uint laddrIx) private view returns (address myAddress){\n\n        require(laddrIx > 0);\n\n        require(globalAddressIndex.length > laddrIx);\n\n        return globalAddressIndex[laddrIx]; \n    }\n\n    function _hasLink(uint sIx, uint lIx) private view returns (bool link){\n        \n\n        for (uint i = 0 ; i < subjectIxTolinkedAddrIx[sIx].linkedAddressesIx.length ; i++ ){\n            if (subjectIxTolinkedAddrIx[sIx].linkedAddressesIx[i] == lIx) {\n                return true;\n            }\n        }\n\n        return false;\n    }\n\n    function getSubjectCountByAddress(address linkedAddress) public view returns(uint subjectCount) {\n        var subjects = getSubjectsByAddress(linkedAddress);\n\n        return subjects.length;\n    }\n\n    function getSingleSubjectByAddress(address linkedAddress, uint subjectIndex) public view returns(address subject) {\n        var subjects = getSubjectsByAddress(linkedAddress);\n\n        return subjects[subjectIndex];\n    }\n\n    function getSubjectsByAddress(address linkedAddress) public view returns(address[] subjects) {\n        uint lIx = _laddrGetIx(linkedAddress);\n        // We dont want to throw here as customer might have installed a special handler \n        // if address is not registered \n        // require(lIx > 0);\n        if (lIx == 0) {\n            return new address[](0);\n        }\n\n        uint _arrLength = linkedAddrIxToSubjectIx[lIx].length;\n        address[] memory _laddrs = new address[](_arrLength);\n\n        for (uint i = 0 ; i < _arrLength ; i++ ){\n            _laddrs[i] = _laddrGetAddr(linkedAddrIxToSubjectIx[lIx][i]);\n        }\n\n        return _laddrs;\n    }\n\n    function getLinkages(address subject) public view returns(address[] linkedAddresses) {\n        uint sIx = _laddrGetIx(subject);\n\n        require(sIx > 0);\n\n        uint _arrLength = subjectIxTolinkedAddrIx[sIx].linkedAddressesIx.length;\n        address[] memory _laddrs = new address[](_arrLength);\n\n        for (uint i = 0 ; i < _arrLength ; i++ ){\n            _laddrs[i] = _laddrGetAddr(subjectIxTolinkedAddrIx[sIx].linkedAddressesIx[i]);\n        }\n\n        return _laddrs;\n    }\n\n    function getLinkagesWithProofs(address subject) public view returns( address[] memory addrLinks, bytes32[] memory proofHashes ) {\n        address[] memory _addrLinks = getLinkages(subject);\n\n        uint _arrLength = _addrLinks.length;\n        bytes32[] memory _proofHashes = new bytes32[](_arrLength);\n\n        uint sIx = _laddrGetIx(subject);\n\n        require(sIx > 0);\n\n        for (uint i = 0 ; i < _arrLength ; i++ ){\n            _proofHashes[i] = subjectIxTolinkedAddrIx[sIx].linkHashMaps[i];\n        }\n\n        return (_addrLinks , _proofHashes);\n    }\n\n\n\n    function submitLinkage(address linkedAddress, bytes32 txHash) public returns(uint linkageCount) {\n        // var isSelf = (msg.sender == subject);\n\n        // require(isSelf);\n        address subject = msg.sender;\n\n        // Taking hash value we could calculate the actual tx signer address\n        // and check if it was signed by linkedAddress.\n        // This in no way warranties that this transaction was sent to subject, \n        // so for now we are leaving this as is.\n\n        // uint8 v, bytes32 r, bytes32 s\n        // bytes memory prefix = \"\\x19Ethereum Signed Message:\\n32\";\n        // bytes32 prefixedHash = keccak256(prefix, txHash);\n        // address signer = ecrecover(prefixedHash, v, r, s);\n\n        // require(linkedAddress == signer);\n\n        uint sIx = _laddrAddOrGetIx(subject);\n        require(sIx > 0);\n\n        uint lIx = _laddrAddOrGetIx(linkedAddress);\n        require(lIx > 0);\n\n        // has not been linked already \n        require(!_hasLink(sIx, lIx));\n\n        linkageCount = _linkCountByIx(sIx);\n        \n        subjectIxTolinkedAddrIx[sIx].linkedAddressesIx.push(lIx);\n\n        subjectIxTolinkedAddrIx[sIx].linkHashMaps[linkageCount] = txHash;\n\n        linkedAddrIxToSubjectIx[lIx].push(sIx);\n\n        linkageCount++;\n\n        GotLinkage(subject, linkedAddress, txHash, linkageCount);     \n    }\n\n    function terminateLinkage(address linkedAddress) public returns(uint linkageCount) {\n        address subject = msg.sender;\n\n        uint sIx = _laddrGetIx(subject);\n        require(sIx > 0);\n\n        uint lIx = _laddrGetIx(linkedAddress);\n        require(lIx > 0);\n\n        // has been linked  \n        require(_hasLink(sIx, lIx));\n        \n        linkageCount = _linkCountByIx(sIx);\n        linkageCount--;\n\n        uint i = 0; \n        uint j; \n        if(linkageCount > 0){\n            uint[] memory newLinkIx = new uint[](linkageCount);\n            uint delIndex = 0;\n            bytes32 emptyVar;\n\n            j = 0; \n            for ( i = 0 ; i <= linkageCount ; i++ ){\n                if(subjectIxTolinkedAddrIx[sIx].linkedAddressesIx[i] == lIx){\n                    delIndex = i;\n                    continue;\n                }\n                newLinkIx[j] = subjectIxTolinkedAddrIx[sIx].linkedAddressesIx[i];\n                j++;\n            }\n\n            subjectIxTolinkedAddrIx[sIx].linkHashMaps[delIndex] = emptyVar; \n            subjectIxTolinkedAddrIx[sIx].linkedAddressesIx = newLinkIx;\n        }else{\n            delete(subjectIxTolinkedAddrIx[sIx]); \n        }\n\n        uint _arrLength = linkedAddrIxToSubjectIx[lIx].length; //most of the time this is 1\n        _arrLength--;\n\n        if(_arrLength == 0){\n             delete(linkedAddrIxToSubjectIx[lIx]);\n        }else{\n            uint[] memory newSubjectIx = new uint[](_arrLength);\n\n            j = 0; \n            for ( i = 0 ; i <= _arrLength ; i++ ){\n                if(linkedAddrIxToSubjectIx[lIx][i] == sIx){\n                    continue;\n                }\n                newSubjectIx[j] = linkedAddrIxToSubjectIx[lIx][i];\n                j++;\n            }\n            \n            linkedAddrIxToSubjectIx[lIx] = newSubjectIx;\n        }\n       \n\n        TerminatedLinkage(subject, linkedAddress, linkageCount);\n    }\n\n    function submitClaim(address subject, uint typeIx, uint attrIx, uint urlIx) public {\n        var isSelf = (msg.sender == subject);\n        var isValidator = KeyProofs(_keyProofsAddr).isValidatedBy(subject, msg.sender);\n\n        require(isSelf || isValidator);\n\n        require(typeIx > 0);\n        require(attrIx > 0);\n        require(urlIx > 0);\n\n        // type/attr/url exists\n        require(NameStorageFacade(_nameStorageFacade).getNameCount(TYPE_TIX) >= typeIx);\n        require(NameStorageFacade(_nameStorageFacade).getNameCount(ATTR_TIX) >= attrIx);\n        \n        // Allow non-existant value, so it can be interpreted as an integer not lookup URL\n        // require(NameStorageFacade(_nameStorageFacade).getNameCount(URL_TIX) >= urlIx);\n\n        if (subjectToTypeToAttrToClaims[subject][typeIx][attrIx].isValid == false) {\n            subjectToTypeToAttrToClaims[subject][typeIx][attrIx].isValid = true;\n            subjectTypeIndexes[subject].push(typeIx);\n            subjectTypeClaimIndexes[subject][typeIx].push(attrIx);\n        }\n        \n        subjectToTypeToAttrToClaims[subject][typeIx][attrIx].urls.push(urlIx);\n        subjectToTypeToAttrToClaims[subject][typeIx][attrIx].issuers.push(msg.sender);\n\n        GotClaim(subject, typeIx, attrIx, urlIx);\n     }\n\n\n    function getSubjectTypeCount(address subject) public constant returns (uint) {\n        return subjectTypeIndexes[subject].length;\n    }\n\n    function getSubjectTypeAttrCount(address subject, uint typeNameIx) public constant returns (uint) {\n        return subjectTypeClaimIndexes[subject][typeNameIx].length;\n    }\n\n    function getSubjectTypeAt(address subject, uint ix) public constant returns (uint) {\n        return subjectTypeIndexes[subject][ix];\n    }\n\n    function getSubjectTypeAttrAt(address subject, uint typeNameIx, uint ix) public constant returns (uint) {\n        return subjectTypeClaimIndexes[subject][typeNameIx][ix];\n    }\n\n    function getSubjectClaimSetSize(address subject, uint typeNameIx, uint attrNameIx) public constant returns (uint) {\n        return subjectToTypeToAttrToClaims[subject][typeNameIx][attrNameIx].urls.length;\n    }\n\n    function getSubjectClaimSetEntryAt(address subject, uint typeNameIx, uint attrNameIx, uint ix) public constant returns (address issuer, uint url)\n    {\n        issuer = subjectToTypeToAttrToClaims[subject][typeNameIx][attrNameIx].issuers[ix];\n        url = subjectToTypeToAttrToClaims[subject][typeNameIx][attrNameIx].urls[ix];\n    }\n\n    function getKeyProofsAddress() public constant returns(address) {\n        return _keyProofsAddr;\n    }\n\n    function doThrow() private pure {\n        assert(false);\n    }\n }",
  "sourcePath": "/Users/ingemars/Projects/kyc-eth-contracts/contracts/ClaimRegistry.sol",
  "compiler": {
    "name": "solc",
    "version": "0.4.18+commit.9cf6e910.Emscripten.clang"
  },
  "schemaVersion": "1.0.1",
  "updatedAt": "2018-02-08T12:41:55.965Z"
}