{
  "contractName": "NameStorageFacade",
  "abi": [
    {
      "constant": false,
      "inputs": [
        {
          "name": "nameType",
          "type": "uint256"
        },
        {
          "name": "schemaNameParts",
          "type": "bytes32[]"
        }
      ],
      "name": "submitName",
      "outputs": [],
      "payable": false,
      "stateMutability": "nonpayable",
      "type": "function"
    },
    {
      "constant": true,
      "inputs": [
        {
          "name": "nameType",
          "type": "uint256"
        },
        {
          "name": "schemaNameParts",
          "type": "bytes32[]"
        }
      ],
      "name": "getNameIndex",
      "outputs": [
        {
          "name": "",
          "type": "int256"
        }
      ],
      "payable": false,
      "stateMutability": "view",
      "type": "function"
    },
    {
      "constant": true,
      "inputs": [
        {
          "name": "nameType",
          "type": "uint256"
        },
        {
          "name": "ix",
          "type": "uint256"
        },
        {
          "name": "chunkIndex",
          "type": "uint256"
        }
      ],
      "name": "getNameChunkAt",
      "outputs": [
        {
          "name": "",
          "type": "bytes32"
        }
      ],
      "payable": false,
      "stateMutability": "view",
      "type": "function"
    },
    {
      "constant": true,
      "inputs": [
        {
          "name": "nameType",
          "type": "uint256"
        },
        {
          "name": "ix",
          "type": "uint256"
        }
      ],
      "name": "getNameChunkCount",
      "outputs": [
        {
          "name": "",
          "type": "uint256"
        }
      ],
      "payable": false,
      "stateMutability": "view",
      "type": "function"
    },
    {
      "constant": true,
      "inputs": [
        {
          "name": "nameType",
          "type": "uint256"
        }
      ],
      "name": "getNameCount",
      "outputs": [
        {
          "name": "",
          "type": "uint256"
        }
      ],
      "payable": false,
      "stateMutability": "view",
      "type": "function"
    },
    {
      "anonymous": false,
      "inputs": [
        {
          "indexed": true,
          "name": "nameHash",
          "type": "bytes32"
        },
        {
          "indexed": false,
          "name": "nameIx",
          "type": "uint256"
        },
        {
          "indexed": false,
          "name": "nameType",
          "type": "uint256"
        }
      ],
      "name": "GotName",
      "type": "event"
    }
  ],
  "bytecode": "0x6060604052341561000f57600080fd5b61068d8061001e6000396000f30060606040526004361061006d576000357c0100000000000000000000000000000000000000000000000000000000900463ffffffff168063a23446c314610072578063ae5ffe5e146100d5578063e29556001461014c578063e3373ec81461019d578063fe4d1ce0146101dd575b600080fd5b341561007d57600080fd5b6100d3600480803590602001909190803590602001908201803590602001908080602002602001604051908101604052809392919081815260200183836020028082843782019150505050505091905050610214565b005b34156100e057600080fd5b610136600480803590602001909190803590602001908201803590602001908080602002602001604051908101604052809392919081815260200183836020028082843782019150505050505091905050610354565b6040518082815260200191505060405180910390f35b341561015757600080fd5b61017f6004808035906020019091908035906020019091908035906020019091905050610448565b60405180826000191660001916815260200191505060405180910390f35b34156101a857600080fd5b6101c76004808035906020019091908035906020019091905050610504565b6040518082815260200191505060405180910390f35b34156101e857600080fd5b6101fe60048080359060200190919050506105b7565b6040518082815260200191505060405180910390f35b60008060008085815260200190815260200160002073__NameStorageLib________________________6374102c729091856000604051604001526040518363ffffffff167c01000000000000000000000000000000000000000000000000000000000281526004018083815260200180602001828103825283818151815260200191508051906020019060200280838360005b838110156102c35780820151818401526020810190506102a8565b505050509050019350505050604080518083038186803b15156102e557600080fd5b6102c65a03f415156102f657600080fd5b505050604051805190602001805190509150915081600019167feb29065873ef2ba79a4023a90db1b6ee19ebe8a44c46c92abf4d702700eb355e8286604051808381526020018281526020019250505060405180910390a250505050565b600080600084815260200190815260200160002073__NameStorageLib________________________63058a2a879091846000604051602001526040518363ffffffff167c01000000000000000000000000000000000000000000000000000000000281526004018083815260200180602001828103825283818151815260200191508051906020019060200280838360005b838110156104025780820151818401526020810190506103e7565b50505050905001935050505060206040518083038186803b151561042557600080fd5b6102c65a03f4151561043657600080fd5b50505060405180519050905092915050565b600080600085815260200190815260200160002073__NameStorageLib________________________633f307f56909185856000604051602001526040518463ffffffff167c010000000000000000000000000000000000000000000000000000000002815260040180848152602001838152602001828152602001935050505060206040518083038186803b15156104e057600080fd5b6102c65a03f415156104f157600080fd5b5050506040518051905090509392505050565b600080600084815260200190815260200160002073__NameStorageLib________________________6395978e309091846000604051602001526040518363ffffffff167c0100000000000000000000000000000000000000000000000000000000028152600401808381526020018281526020019250505060206040518083038186803b151561059457600080fd5b6102c65a03f415156105a557600080fd5b50505060405180519050905092915050565b600080600083815260200190815260200160002073__NameStorageLib________________________63bf44f3ec90916000604051602001526040518263ffffffff167c01000000000000000000000000000000000000000000000000000000000281526004018082815260200191505060206040518083038186803b151561063f57600080fd5b6102c65a03f4151561065057600080fd5b5050506040518051905090509190505600a165627a7a72305820e08432fbd016395c3c0319034fa9156d492a51f3ff9fc3218f51713a023d72450029",
  "source": "pragma solidity ^0.4.15;\n\nimport './NameStorageLib.sol';\n\ncontract NameStorageFacade {\n\n    using NameStorageLib for NameStorageLib.Store;\n    mapping (uint => NameStorageLib.Store) nameTypeToStore;\n\n    event GotName(bytes32 indexed nameHash, uint nameIx, uint nameType);\n\n    function getNameChunkCount(uint nameType, uint ix) public constant returns (uint) {\n        return nameTypeToStore[nameType].getNameChunkCount(ix);\n    }\n\n    function getNameCount(uint nameType) public constant returns (uint) {\n        return nameTypeToStore[nameType].getNameCount();\n    }\n\n    function getNameChunkAt(uint nameType, uint ix, uint chunkIndex) public constant returns (bytes32) {\n        return nameTypeToStore[nameType].getNameChunkAt(ix, chunkIndex);\n    }\n\n    function getNameIndex(uint nameType, bytes32[] schemaNameParts) public constant returns (int) {\n        return nameTypeToStore[nameType].getNameIndex(schemaNameParts);\n    }\n\n    function submitName(uint nameType, bytes32[] schemaNameParts) public {\n        var (keccak256Val, newIx) = nameTypeToStore[nameType].submitName(schemaNameParts);\n        GotName(keccak256Val, newIx, nameType);\n    }\n\n    function doThrow() private pure {\n        assert(false);\n    }\n }",
  "sourcePath": "/Users/ingemars/Projects/kyc-eth-contracts/contracts/NameStorageFacade.sol",
  "compiler": {
    "name": "solc",
    "version": "0.4.18+commit.9cf6e910.Emscripten.clang"
  },
  "schemaVersion": "1.0.1",
  "updatedAt": "2018-02-08T12:41:55.981Z"
}