{
  "contractName": "AddressSet",
  "abi": [
    {
      "constant": false,
      "inputs": [
        {
          "name": "addr",
          "type": "address"
        }
      ],
      "name": "addAddress",
      "outputs": [],
      "payable": true,
      "stateMutability": "payable",
      "type": "function"
    },
    {
      "constant": true,
      "inputs": [
        {
          "name": "addr",
          "type": "address"
        }
      ],
      "name": "contains",
      "outputs": [
        {
          "name": "r",
          "type": "bool"
        }
      ],
      "payable": false,
      "stateMutability": "view",
      "type": "function"
    },
    {
      "payable": false,
      "stateMutability": "nonpayable",
      "type": "fallback"
    },
    {
      "anonymous": false,
      "inputs": [
        {
          "indexed": true,
          "name": "addr",
          "type": "address"
        },
        {
          "indexed": false,
          "name": "val",
          "type": "uint256"
        }
      ],
      "name": "AddressAdded",
      "type": "event"
    }
  ],
  "bytecode": "0x6060604052341561000f57600080fd5b61037a8061001e6000396000f30060606040526004361061004c576000357c0100000000000000000000000000000000000000000000000000000000900463ffffffff16806338eada1c1461005c5780635dbe47e81461008a575b341561005757600080fd5b600080fd5b610088600480803573ffffffffffffffffffffffffffffffffffffffff169060200190919050506100db565b005b341561009557600080fd5b6100c1600480803573ffffffffffffffffffffffffffffffffffffffff169060200190919050506102a7565b604051808215151515815260200191505060405180910390f35b3073ffffffffffffffffffffffffffffffffffffffff16313414151561010057600080fd5b600073ffffffffffffffffffffffffffffffffffffffff166000808373ffffffffffffffffffffffffffffffffffffffff1673ffffffffffffffffffffffffffffffffffffffff16815260200190815260200160002060009054906101000a900473ffffffffffffffffffffffffffffffffffffffff1673ffffffffffffffffffffffffffffffffffffffff1614151561019957600080fd5b336000808373ffffffffffffffffffffffffffffffffffffffff1673ffffffffffffffffffffffffffffffffffffffff16815260200190815260200160002060006101000a81548173ffffffffffffffffffffffffffffffffffffffff021916908373ffffffffffffffffffffffffffffffffffffffff1602179055508073ffffffffffffffffffffffffffffffffffffffff166108fc349081150290604051600060405180830381858888f19350505050151561025657600080fd5b8073ffffffffffffffffffffffffffffffffffffffff167f9cc987676e7d63379f176ea50df0ae8d2d9d1141d1231d4ce15b5965f73c9430346040518082815260200191505060405180910390a250565b60008073ffffffffffffffffffffffffffffffffffffffff166000808473ffffffffffffffffffffffffffffffffffffffff1673ffffffffffffffffffffffffffffffffffffffff16815260200190815260200160002060009054906101000a900473ffffffffffffffffffffffffffffffffffffffff1673ffffffffffffffffffffffffffffffffffffffff1614156103445760009050610349565b600190505b9190505600a165627a7a723058206731451e513ebaf4852e1d3a763fbc112ed7bfdf78e88d261dfd0018427b2a1d0029",
  "source": "pragma solidity ^0.4.15;\n\ncontract AddressSet {\n\n    mapping(address => address) accountToRegistrarMap;\n\n    event AddressAdded(address indexed addr, uint val);\n    // event Attempt(uint a, uint b);\n    \n    function addAddress(address addr) public payable {\n        require (msg.value == this.balance);\n        require (accountToRegistrarMap[addr] == address(0));\n\n        accountToRegistrarMap[addr] = msg.sender;\n        addr.transfer(msg.value); \n\n        AddressAdded(addr, msg.value); \n    }\n\n    function contains(address addr) public constant returns (bool r) {\n       if (accountToRegistrarMap[addr] == address(0)) {\n           return false;\n       } else {\n           return true;\n       }\n    }\n\n    function () public {\n        revert();\n    }\n }",
  "sourcePath": "/Users/ingemars/Projects/kyc-eth-contracts/contracts/AddressSet.sol",
  "compiler": {
    "name": "solc",
    "version": "0.4.18+commit.9cf6e910.Emscripten.clang"
  },
  "schemaVersion": "1.0.1",
  "updatedAt": "2018-01-10T13:57:30.562Z"
}