{
  "contractName": "TestVerifier",
  "abi": [
    {
      "constant": true,
      "inputs": [],
      "name": "REPORT_BUNDLE",
      "outputs": [
        {
          "name": "",
          "type": "uint256"
        }
      ],
      "payable": false,
      "stateMutability": "view",
      "type": "function"
    },
    {
      "constant": true,
      "inputs": [
        {
          "name": "subject",
          "type": "address"
        },
        {
          "name": "nationalityBlacklist",
          "type": "uint256"
        }
      ],
      "name": "test_preventedByNationalityBlacklist",
      "outputs": [
        {
          "name": "",
          "type": "bool"
        }
      ],
      "payable": false,
      "stateMutability": "view",
      "type": "function"
    },
    {
      "constant": true,
      "inputs": [
        {
          "name": "subject",
          "type": "address"
        },
        {
          "name": "nationalityBlacklist",
          "type": "uint256"
        }
      ],
      "name": "isVerified",
      "outputs": [
        {
          "name": "",
          "type": "bool"
        }
      ],
      "payable": false,
      "stateMutability": "view",
      "type": "function"
    },
    {
      "constant": true,
      "inputs": [],
      "name": "USA",
      "outputs": [
        {
          "name": "",
          "type": "uint256"
        }
      ],
      "payable": false,
      "stateMutability": "view",
      "type": "function"
    },
    {
      "constant": true,
      "inputs": [],
      "name": "NATIONALITY_INDEX",
      "outputs": [
        {
          "name": "",
          "type": "uint256"
        }
      ],
      "payable": false,
      "stateMutability": "view",
      "type": "function"
    },
    {
      "constant": true,
      "inputs": [],
      "name": "ICO_CONTRIBUTOR_TYPE",
      "outputs": [
        {
          "name": "",
          "type": "uint256"
        }
      ],
      "payable": false,
      "stateMutability": "view",
      "type": "function"
    },
    {
      "constant": true,
      "inputs": [
        {
          "name": "nationBlacklist",
          "type": "uint256"
        }
      ],
      "name": "vipFunction",
      "outputs": [],
      "payable": false,
      "stateMutability": "view",
      "type": "function"
    },
    {
      "constant": true,
      "inputs": [],
      "name": "claimRegistryAddr",
      "outputs": [
        {
          "name": "",
          "type": "address"
        }
      ],
      "payable": false,
      "stateMutability": "view",
      "type": "function"
    },
    {
      "constant": true,
      "inputs": [
        {
          "name": "subject",
          "type": "address"
        }
      ],
      "name": "test_hasIcoContributorType",
      "outputs": [
        {
          "name": "",
          "type": "bool"
        }
      ],
      "payable": false,
      "stateMutability": "view",
      "type": "function"
    },
    {
      "constant": true,
      "inputs": [],
      "name": "trustedIssuerAddr",
      "outputs": [
        {
          "name": "",
          "type": "address"
        }
      ],
      "payable": false,
      "stateMutability": "view",
      "type": "function"
    },
    {
      "constant": true,
      "inputs": [],
      "name": "SOUTH_KOREA",
      "outputs": [
        {
          "name": "",
          "type": "uint256"
        }
      ],
      "payable": false,
      "stateMutability": "view",
      "type": "function"
    },
    {
      "constant": true,
      "inputs": [],
      "name": "CHINA",
      "outputs": [
        {
          "name": "",
          "type": "uint256"
        }
      ],
      "payable": false,
      "stateMutability": "view",
      "type": "function"
    },
    {
      "inputs": [
        {
          "name": "trustedIssuer",
          "type": "address"
        },
        {
          "name": "_claimRegistry",
          "type": "address"
        }
      ],
      "payable": false,
      "stateMutability": "nonpayable",
      "type": "constructor"
    }
  ],
  "bytecode": "0x6060604052341561000f57600080fd5b604051604080610cfb833981016040528080519060200190919080519060200190919050508181806000806101000a81548173ffffffffffffffffffffffffffffffffffffffff021916908373ffffffffffffffffffffffffffffffffffffffff16021790555081600160006101000a81548173ffffffffffffffffffffffffffffffffffffffff021916908373ffffffffffffffffffffffffffffffffffffffff16021790555050505050610c31806100ca6000396000f3006060604052600436106100ba576000357c0100000000000000000000000000000000000000000000000000000000900463ffffffff1680630cfe4736146100bf578063132b48f1146100e85780631a2097761461014257806322ff79d81461019c578063279e8a95146101c55780633109e560146101ee5780633cf18adc14610217578063aaa77bc31461023a578063ad74abc91461028f578063bae112fb146102e0578063d8fa426d14610335578063eaa98de81461035e575b600080fd5b34156100ca57600080fd5b6100d2610387565b6040518082815260200191505060405180910390f35b34156100f357600080fd5b610128600480803573ffffffffffffffffffffffffffffffffffffffff1690602001909190803590602001909190505061038c565b604051808215151515815260200191505060405180910390f35b341561014d57600080fd5b610182600480803573ffffffffffffffffffffffffffffffffffffffff169060200190919080359060200190919050506103a0565b604051808215151515815260200191505060405180910390f35b34156101a757600080fd5b6101af6103da565b6040518082815260200191505060405180910390f35b34156101d057600080fd5b6101d86103fc565b6040518082815260200191505060405180910390f35b34156101f957600080fd5b610201610401565b6040518082815260200191505060405180910390f35b341561022257600080fd5b6102386004808035906020019091905050610406565b005b341561024557600080fd5b61024d610437565b604051808273ffffffffffffffffffffffffffffffffffffffff1673ffffffffffffffffffffffffffffffffffffffff16815260200191505060405180910390f35b341561029a57600080fd5b6102c6600480803573ffffffffffffffffffffffffffffffffffffffff1690602001909190505061045c565b604051808215151515815260200191505060405180910390f35b34156102eb57600080fd5b6102f361046e565b604051808273ffffffffffffffffffffffffffffffffffffffff1673ffffffffffffffffffffffffffffffffffffffff16815260200191505060405180910390f35b341561034057600080fd5b610348610494565b6040518082815260200191505060405180910390f35b341561036957600080fd5b6103716104a7565b6040518082815260200191505060405180910390f35b600681565b600061039883836104b1565b905092915050565b600082826103ad82610760565b15156103b857600080fd5b6103c282826104b1565b1515156103ce57600080fd5b60019250505092915050565b7d80000000000000000000000000000000000000000000000000000000000081565b600781565b600681565b338161041182610760565b151561041c57600080fd5b61042682826104b1565b15151561043257600080fd5b505050565b6000809054906101000a900473ffffffffffffffffffffffffffffffffffffffff1681565b600061046782610760565b9050919050565b600160009054906101000a900473ffffffffffffffffffffffffffffffffffffffff1681565b6e10000000000000000000000000000081565b6508000000000081565b6000806000806000806000806000809054906101000a900473ffffffffffffffffffffffffffffffffffffffff1696508673ffffffffffffffffffffffffffffffffffffffff16631c8cba3b8b600660076000604051602001526040518463ffffffff167c0100000000000000000000000000000000000000000000000000000000028152600401808473ffffffffffffffffffffffffffffffffffffffff1673ffffffffffffffffffffffffffffffffffffffff1681526020018381526020018281526020019350505050602060405180830381600087803b151561059657600080fd5b6102c65a03f115156105a757600080fd5b50505060405180519050955060009450600093505b85841015610732578673ffffffffffffffffffffffffffffffffffffffff16636ec7743d8b60066007886000604051604001526040518563ffffffff167c0100000000000000000000000000000000000000000000000000000000028152600401808573ffffffffffffffffffffffffffffffffffffffff1673ffffffffffffffffffffffffffffffffffffffff1681526020018481526020018381526020018281526020019450505050506040805180830381600087803b151561068057600080fd5b6102c65a03f1151561069157600080fd5b50505060405180519060200180519050925092506001820360020a9050600160009054906101000a900473ffffffffffffffffffffffffffffffffffffffff1673ffffffffffffffffffffffffffffffffffffffff168373ffffffffffffffffffffffffffffffffffffffff1614151561071057600185019450610727565b80818a8318161415156107265760019750610753565b5b8360010193506105bc565b600089148061074357506000858703115b151561074e57600080fd5b600097505b5050505050505092915050565b60008060008060008060008060008060009850600097506000809054906101000a900473ffffffffffffffffffffffffffffffffffffffff1696508673ffffffffffffffffffffffffffffffffffffffff16631c8cba3b8c600660076000604051602001526040518463ffffffff167c0100000000000000000000000000000000000000000000000000000000028152600401808473ffffffffffffffffffffffffffffffffffffffff1673ffffffffffffffffffffffffffffffffffffffff1681526020018381526020018281526020019350505050602060405180830381600087803b151561085057600080fd5b6102c65a03f1151561086157600080fd5b505050604051805190509550600094505b858510156109c4578673ffffffffffffffffffffffffffffffffffffffff16636ec7743d8c60066007896000604051604001526040518563ffffffff167c0100000000000000000000000000000000000000000000000000000000028152600401808573ffffffffffffffffffffffffffffffffffffffff1673ffffffffffffffffffffffffffffffffffffffff1681526020018481526020018381526020018281526020019450505050506040805180830381600087803b151561093657600080fd5b6102c65a03f1151561094757600080fd5b50505060405180519060200180519050509350600160009054906101000a900473ffffffffffffffffffffffffffffffffffffffff1673ffffffffffffffffffffffffffffffffffffffff168473ffffffffffffffffffffffffffffffffffffffff1614156109b957600197506109c4565b846001019450610872565b8673ffffffffffffffffffffffffffffffffffffffff16631c8cba3b8c6006806000604051602001526040518463ffffffff167c0100000000000000000000000000000000000000000000000000000000028152600401808473ffffffffffffffffffffffffffffffffffffffff1673ffffffffffffffffffffffffffffffffffffffff1681526020018381526020018281526020019350505050602060405180830381600087803b1515610a7857600080fd5b6102c65a03f11515610a8957600080fd5b505050604051805190509250600091505b82821015610beb578673ffffffffffffffffffffffffffffffffffffffff16636ec7743d8c600680866000604051604001526040518563ffffffff167c0100000000000000000000000000000000000000000000000000000000028152600401808573ffffffffffffffffffffffffffffffffffffffff1673ffffffffffffffffffffffffffffffffffffffff1681526020018481526020018381526020018281526020019450505050506040805180830381600087803b1515610b5d57600080fd5b6102c65a03f11515610b6e57600080fd5b50505060405180519060200180519050509050600160009054906101000a900473ffffffffffffffffffffffffffffffffffffffff1673ffffffffffffffffffffffffffffffffffffffff168173ffffffffffffffffffffffffffffffffffffffff161415610be05760019850610beb565b816001019150610a9a565b878015610bf55750885b99505050505050505050509190505600a165627a7a723058209fef6f3b7a89eb0345a9065d386a947f5d8b273089b58c2451360c04fc419cad0029",
  "source": "pragma solidity ^0.4.15;\n\nimport './NotakeyVerifierV1.sol';\n\ncontract TestVerifier is NotakeyVerifierV1 {\n\n    function TestVerifier(address trustedIssuer, address _claimRegistry) NotakeyVerifierV1(trustedIssuer, _claimRegistry) public {\n        \n    }\n\n    function vipFunction(uint nationBlacklist) onlyVerifiedSenders(msg.sender, nationBlacklist) public view {\n        \n    }\n\n    function test_preventedByNationalityBlacklist(address subject, uint256 nationalityBlacklist) public constant returns (bool)\n    {\n        return super._preventedByNationalityBlacklist(subject, nationalityBlacklist);\n    }\n\n    function test_hasIcoContributorType(address subject) public constant returns (bool)\n    {\n        return super._hasIcoContributorType(subject);\n    }\n\n}\n",
  "sourcePath": "/Users/ingemars/Projects/kyc-eth-contracts/contracts/TestVerifier.sol",
  "compiler": {
    "name": "solc",
    "version": "0.4.18+commit.9cf6e910.Emscripten.clang"
  },
  "schemaVersion": "1.0.1",
  "updatedAt": "2018-01-10T13:57:30.579Z"
}