{
  "contractName": "DoublyLinkedList",
  "abi": [
    {
      "constant": true,
      "inputs": [
        {
          "name": "self",
          "type": "DoublyLinkedList.data storage"
        },
        {
          "name": "_index",
          "type": "uint80"
        }
      ],
      "name": "iterate_prev",
      "outputs": [
        {
          "name": "",
          "type": "uint80"
        }
      ],
      "payable": false,
      "stateMutability": "view",
      "type": "function"
    },
    {
      "constant": true,
      "inputs": [
        {
          "name": "self",
          "type": "DoublyLinkedList.data storage"
        },
        {
          "name": "_index",
          "type": "uint80"
        }
      ],
      "name": "iterate_next",
      "outputs": [
        {
          "name": "",
          "type": "uint80"
        }
      ],
      "payable": false,
      "stateMutability": "view",
      "type": "function"
    },
    {
      "constant": true,
      "inputs": [
        {
          "name": "self",
          "type": "DoublyLinkedList.data storage"
        }
      ],
      "name": "iterate_start",
      "outputs": [
        {
          "name": "",
          "type": "uint80"
        }
      ],
      "payable": false,
      "stateMutability": "view",
      "type": "function"
    },
    {
      "constant": true,
      "inputs": [
        {
          "name": "self",
          "type": "DoublyLinkedList.data storage"
        },
        {
          "name": "_index",
          "type": "uint80"
        }
      ],
      "name": "iterate_valid",
      "outputs": [
        {
          "name": "",
          "type": "bool"
        }
      ],
      "payable": false,
      "stateMutability": "view",
      "type": "function"
    },
    {
      "constant": false,
      "inputs": [
        {
          "name": "self",
          "type": "DoublyLinkedList.data storage"
        },
        {
          "name": "_data",
          "type": "address"
        }
      ],
      "name": "append",
      "outputs": [],
      "payable": false,
      "stateMutability": "nonpayable",
      "type": "function"
    },
    {
      "constant": false,
      "inputs": [
        {
          "name": "self",
          "type": "DoublyLinkedList.data storage"
        },
        {
          "name": "_index",
          "type": "uint80"
        }
      ],
      "name": "remove",
      "outputs": [],
      "payable": false,
      "stateMutability": "nonpayable",
      "type": "function"
    },
    {
      "constant": true,
      "inputs": [
        {
          "name": "self",
          "type": "DoublyLinkedList.data storage"
        },
        {
          "name": "_value",
          "type": "address"
        }
      ],
      "name": "find",
      "outputs": [
        {
          "name": "",
          "type": "uint80"
        }
      ],
      "payable": false,
      "stateMutability": "view",
      "type": "function"
    },
    {
      "constant": true,
      "inputs": [
        {
          "name": "self",
          "type": "DoublyLinkedList.data storage"
        },
        {
          "name": "_index",
          "type": "uint80"
        }
      ],
      "name": "iterate_get",
      "outputs": [
        {
          "name": "",
          "type": "address"
        }
      ],
      "payable": false,
      "stateMutability": "view",
      "type": "function"
    }
  ],
  "bytecode": "0x6060604052341561000f57600080fd5b610cdc8061001e6000396000f30060606040526004361061008e576000357c0100000000000000000000000000000000000000000000000000000000900463ffffffff16806309f573b3146100935780632c958b29146100ec5780637fd1c3071461014557806391e396721461018957806394d59dfd146101ce5780639932fdbf14610205578063b752512414610232578063d59fa94314610295575b600080fd5b6100be600480803590602001909190803569ffffffffffffffffffff16906020019091905050610302565b604051808269ffffffffffffffffffff1669ffffffffffffffffffff16815260200191505060405180910390f35b610117600480803590602001909190803569ffffffffffffffffffff16906020019091905050610354565b604051808269ffffffffffffffffffff1669ffffffffffffffffffff16815260200191505060405180910390f35b61015b60048080359060200190919050506103a6565b604051808269ffffffffffffffffffff1669ffffffffffffffffffff16815260200191505060405180910390f35b6101b4600480803590602001909190803569ffffffffffffffffffff169060200190919050506103ca565b604051808215151515815260200191505060405180910390f35b610203600480803590602001909190803573ffffffffffffffffffffffffffffffffffffffff169060200190919050506103ed565b005b610230600480803590602001909190803569ffffffffffffffffffff16906020019091905050610766565b005b610267600480803590602001909190803573ffffffffffffffffffffffffffffffffffffffff16906020019091905050610b23565b604051808269ffffffffffffffffffff1669ffffffffffffffffffff16815260200191505060405180910390f35b6102c0600480803590602001909190803569ffffffffffffffffffff16906020019091905050610ba2565b604051808273ffffffffffffffffffffffffffffffffffffffff1673ffffffffffffffffffffffffffffffffffffffff16815260200191505060405180910390f35b6000826001016001830369ffffffffffffffffffff1681548110151561032457fe5b906000526020600020906002020160000160009054906101000a900469ffffffffffffffffffff16905092915050565b6000826001016001830369ffffffffffffffffffff1681548110151561037657fe5b9060005260206000209060020201600001600a9054906101000a900469ffffffffffffffffffff16905092915050565b60008160000160009054906101000a900469ffffffffffffffffffff169050919050565b600082600101805490506001830369ffffffffffffffffffff1610905092915050565b60008260010180548060010182816104059190610bfe565b9160005260206000209060020201600060606040519081016040528087600001600a9054906101000a900469ffffffffffffffffffff1669ffffffffffffffffffff168152602001600069ffffffffffffffffffff1681526020018673ffffffffffffffffffffffffffffffffffffffff16815250909190915060008201518160000160006101000a81548169ffffffffffffffffffff021916908369ffffffffffffffffffff160217905550602082015181600001600a6101000a81548169ffffffffffffffffffff021916908369ffffffffffffffffffff16021790555060408201518160010160006101000a81548173ffffffffffffffffffffffffffffffffffffffff021916908373ffffffffffffffffffffffffffffffffffffffff16021790555050509050600069ffffffffffffffffffff1683600001600a9054906101000a900469ffffffffffffffffffff1669ffffffffffffffffffff16141561066c57600069ffffffffffffffffffff168360000160009054906101000a900469ffffffffffffffffffff1669ffffffffffffffffffff161480156105d3575060008360000160149054906101000a900469ffffffffffffffffffff1669ffffffffffffffffffff16145b15156105db57fe5b8083600001600a6101000a81548169ffffffffffffffffffff021916908369ffffffffffffffffffff16021790558360000160006101000a81548169ffffffffffffffffffff021916908369ffffffffffffffffffff16021790555060018360000160146101000a81548169ffffffffffffffffffff021916908369ffffffffffffffffffff160217905550610761565b8083600101600185600001600a9054906101000a900469ffffffffffffffffffff160369ffffffffffffffffffff168154811015156106a757fe5b9060005260206000209060020201600001600a6101000a81548169ffffffffffffffffffff021916908369ffffffffffffffffffff1602179055508083600001600a6101000a81548169ffffffffffffffffffff021916908369ffffffffffffffffffff16021790555082600001601481819054906101000a900469ffffffffffffffffffff168092919060010191906101000a81548169ffffffffffffffffffff021916908369ffffffffffffffffffff160217905550505b505050565b6000826001016001830369ffffffffffffffffffff1681548110151561078857fe5b90600052602060002090600202019050600069ffffffffffffffffffff168160000160009054906101000a900469ffffffffffffffffffff1669ffffffffffffffffffff16141561081d5780600001600a9054906101000a900469ffffffffffffffffffff168360000160006101000a81548169ffffffffffffffffffff021916908369ffffffffffffffffffff1602179055505b600069ffffffffffffffffffff1681600001600a9054906101000a900469ffffffffffffffffffff1669ffffffffffffffffffff1614156108a2578060000160009054906101000a900469ffffffffffffffffffff1683600001600a6101000a81548169ffffffffffffffffffff021916908369ffffffffffffffffffff1602179055505b600069ffffffffffffffffffff168160000160009054906101000a900469ffffffffffffffffffff1669ffffffffffffffffffff1614151561096f5780600001600a9054906101000a900469ffffffffffffffffffff168360010160018360000160009054906101000a900469ffffffffffffffffffff160369ffffffffffffffffffff1681548110151561093357fe5b9060005260206000209060020201600001600a6101000a81548169ffffffffffffffffffff021916908369ffffffffffffffffffff1602179055505b600069ffffffffffffffffffff1681600001600a9054906101000a900469ffffffffffffffffffff1669ffffffffffffffffffff16141515610a3c578060000160009054906101000a900469ffffffffffffffffffff1683600101600183600001600a9054906101000a900469ffffffffffffffffffff160369ffffffffffffffffffff16815481101515610a0057fe5b906000526020600020906002020160000160006101000a81548169ffffffffffffffffffff021916908369ffffffffffffffffffff1602179055505b826001016001830369ffffffffffffffffffff16815481101515610a5c57fe5b9060005260206000209060020201600080820160006101000a81549069ffffffffffffffffffff021916905560008201600a6101000a81549069ffffffffffffffffffff02191690556001820160006101000a81549073ffffffffffffffffffffffffffffffffffffffff0219169055505082600001601481819054906101000a900469ffffffffffffffffffff16809291906001900391906101000a81548169ffffffffffffffffffff021916908369ffffffffffffffffffff16021790555050505050565b600080610b2f846103a6565b90505b610b3c84826103ca565b15610b97578273ffffffffffffffffffffffffffffffffffffffff16610b628583610ba2565b73ffffffffffffffffffffffffffffffffffffffff161415610b8657809150610b9b565b610b908482610354565b9050610b32565b8091505b5092915050565b6000826001016001830369ffffffffffffffffffff16815481101515610bc457fe5b906000526020600020906002020160010160009054906101000a900473ffffffffffffffffffffffffffffffffffffffff16905092915050565b815481835581811511610c2b57600202816002028360005260206000209182019101610c2a9190610c30565b5b505050565b610cad91905b80821115610ca957600080820160006101000a81549069ffffffffffffffffffff021916905560008201600a6101000a81549069ffffffffffffffffffff02191690556001820160006101000a81549073ffffffffffffffffffffffffffffffffffffffff021916905550600201610c36565b5090565b905600a165627a7a723058205b302afca12c5129654ea1cdef5c94f4761dab6157df73d768340c9da5fa4bfc0029",
  "source": "pragma solidity ^0.4.18;\n\nlibrary DoublyLinkedList {\n    struct data {\n        uint80 first;\n        uint80 last;\n        uint80 count;\n        Item[] items;\n    }\n    uint80 constant None = uint80(0);\n    struct Item {\n        uint80 prev;\n        uint80 next;\n        address data;\n    }\n    \n    /// Appends `_data` to the end of the list `self`.\n    function append(data storage self, address _data) public {\n        var index = uint80(self.items.push(Item({prev: self.last, next: None, data: _data})));\n        if (self.last == None)\n        {\n            assert (self.first == None && self.count == 0);\n            self.first = self.last = index;\n            self.count = 1;\n        }\n        else\n        {\n            self.items[self.last - 1].next = index;\n            self.last = index;\n            self.count ++;\n        }\n    }\n    /// Removes the element identified by the iterator\n    /// `_index` from the list `self`.\n    function remove(data storage self, uint80 _index) public {\n        Item storage item = self.items[_index - 1];\n        if (item.prev == None)\n            self.first = item.next;\n        if (item.next == None)\n            self.last = item.prev;\n        if (item.prev != None)\n            self.items[item.prev - 1].next = item.next;\n        if (item.next != None)\n            self.items[item.next - 1].prev = item.prev;\n        delete self.items[_index - 1];\n        self.count--;\n    }\n    /// @return an iterator pointing to the first element whose data\n    /// is `_value` or an invalid iterator otherwise.\n    function find(data storage self, address _value) public constant returns (uint80) {\n        var it = iterate_start(self);\n        while (iterate_valid(self, it)) {\n            if (iterate_get(self, it) == _value) {\n                return it;\n            } \n            \n            it = iterate_next(self, it);\n        }\n        return it;\n    }\n    // Iterator interface\n    function iterate_start(data storage self) public constant returns (uint80) { return self.first; }\n    function iterate_valid(data storage self, uint80 _index) public constant returns (bool) { return _index - 1 < self.items.length; }\n    function iterate_prev(data storage self, uint80 _index) public constant returns (uint80) { return self.items[_index - 1].prev; }\n    function iterate_next(data storage self, uint80 _index) public constant returns (uint80) { return self.items[_index - 1].next; }\n    function iterate_get(data storage self, uint80 _index) public constant returns (address) { return self.items[_index - 1].data; }\n}",
  "sourcePath": "/Users/ingemars/Projects/kyc-eth-contracts/contracts/DoublyLinkedList.sol",
  "compiler": {
    "name": "solc",
    "version": "0.4.18+commit.9cf6e910.Emscripten.clang"
  },
  "schemaVersion": "1.0.1",
  "updatedAt": "2018-01-12T13:06:58.741Z"
}