{
  "contractName": "NotakeyVerifierV1",
  "abi": [
    {
      "constant": true,
      "inputs": [],
      "name": "REPORT_BUNDLE",
      "outputs": [
        {
          "name": "",
          "type": "uint256"
        }
      ],
      "payable": false,
      "stateMutability": "view",
      "type": "function"
    },
    {
      "constant": true,
      "inputs": [
        {
          "name": "subject",
          "type": "address"
        },
        {
          "name": "nationalityBlacklist",
          "type": "uint256"
        }
      ],
      "name": "isVerified",
      "outputs": [
        {
          "name": "",
          "type": "bool"
        }
      ],
      "payable": false,
      "stateMutability": "view",
      "type": "function"
    },
    {
      "constant": true,
      "inputs": [],
      "name": "USA",
      "outputs": [
        {
          "name": "",
          "type": "uint256"
        }
      ],
      "payable": false,
      "stateMutability": "view",
      "type": "function"
    },
    {
      "constant": true,
      "inputs": [],
      "name": "NATIONALITY_INDEX",
      "outputs": [
        {
          "name": "",
          "type": "uint256"
        }
      ],
      "payable": false,
      "stateMutability": "view",
      "type": "function"
    },
    {
      "constant": true,
      "inputs": [],
      "name": "ICO_CONTRIBUTOR_TYPE",
      "outputs": [
        {
          "name": "",
          "type": "uint256"
        }
      ],
      "payable": false,
      "stateMutability": "view",
      "type": "function"
    },
    {
      "constant": true,
      "inputs": [],
      "name": "claimRegistryAddr",
      "outputs": [
        {
          "name": "",
          "type": "address"
        }
      ],
      "payable": false,
      "stateMutability": "view",
      "type": "function"
    },
    {
      "constant": true,
      "inputs": [],
      "name": "trustedIssuerAddr",
      "outputs": [
        {
          "name": "",
          "type": "address"
        }
      ],
      "payable": false,
      "stateMutability": "view",
      "type": "function"
    },
    {
      "constant": true,
      "inputs": [],
      "name": "SOUTH_KOREA",
      "outputs": [
        {
          "name": "",
          "type": "uint256"
        }
      ],
      "payable": false,
      "stateMutability": "view",
      "type": "function"
    },
    {
      "constant": true,
      "inputs": [],
      "name": "CHINA",
      "outputs": [
        {
          "name": "",
          "type": "uint256"
        }
      ],
      "payable": false,
      "stateMutability": "view",
      "type": "function"
    },
    {
      "inputs": [
        {
          "name": "_trustedIssuerAddr",
          "type": "address"
        },
        {
          "name": "_claimRegistryAddr",
          "type": "address"
        }
      ],
      "payable": false,
      "stateMutability": "nonpayable",
      "type": "constructor"
    }
  ],
  "bytecode": "0x6060604052341561000f57600080fd5b604051604080610bb183398101604052808051906020019091908051906020019091905050806000806101000a81548173ffffffffffffffffffffffffffffffffffffffff021916908373ffffffffffffffffffffffffffffffffffffffff16021790555081600160006101000a81548173ffffffffffffffffffffffffffffffffffffffff021916908373ffffffffffffffffffffffffffffffffffffffff1602179055505050610aeb806100c66000396000f300606060405260043610610099576000357c0100000000000000000000000000000000000000000000000000000000900463ffffffff1680630cfe47361461009e5780631a209776146100c757806322ff79d814610121578063279e8a951461014a5780633109e56014610173578063aaa77bc31461019c578063bae112fb146101f1578063d8fa426d14610246578063eaa98de81461026f575b600080fd5b34156100a957600080fd5b6100b1610298565b6040518082815260200191505060405180910390f35b34156100d257600080fd5b610107600480803573ffffffffffffffffffffffffffffffffffffffff1690602001909190803590602001909190505061029d565b604051808215151515815260200191505060405180910390f35b341561012c57600080fd5b6101346102d7565b6040518082815260200191505060405180910390f35b341561015557600080fd5b61015d6102f9565b6040518082815260200191505060405180910390f35b341561017e57600080fd5b6101866102fe565b6040518082815260200191505060405180910390f35b34156101a757600080fd5b6101af610303565b604051808273ffffffffffffffffffffffffffffffffffffffff1673ffffffffffffffffffffffffffffffffffffffff16815260200191505060405180910390f35b34156101fc57600080fd5b610204610328565b604051808273ffffffffffffffffffffffffffffffffffffffff1673ffffffffffffffffffffffffffffffffffffffff16815260200191505060405180910390f35b341561025157600080fd5b61025961034e565b6040518082815260200191505060405180910390f35b341561027a57600080fd5b610282610361565b6040518082815260200191505060405180910390f35b600681565b600082826102aa8261036b565b15156102b557600080fd5b6102bf8282610810565b1515156102cb57600080fd5b60019250505092915050565b7d80000000000000000000000000000000000000000000000000000000000081565b600781565b600681565b6000809054906101000a900473ffffffffffffffffffffffffffffffffffffffff1681565b600160009054906101000a900473ffffffffffffffffffffffffffffffffffffffff1681565b6e10000000000000000000000000000081565b6508000000000081565b60008060008060008060008060008060009850600097506000809054906101000a900473ffffffffffffffffffffffffffffffffffffffff1696508673ffffffffffffffffffffffffffffffffffffffff16631c8cba3b8c600660076000604051602001526040518463ffffffff167c0100000000000000000000000000000000000000000000000000000000028152600401808473ffffffffffffffffffffffffffffffffffffffff1673ffffffffffffffffffffffffffffffffffffffff1681526020018381526020018281526020019350505050602060405180830381600087803b151561045b57600080fd5b6102c65a03f1151561046c57600080fd5b505050604051805190509550600094505b858510156105cf578673ffffffffffffffffffffffffffffffffffffffff16636ec7743d8c60066007896000604051604001526040518563ffffffff167c0100000000000000000000000000000000000000000000000000000000028152600401808573ffffffffffffffffffffffffffffffffffffffff1673ffffffffffffffffffffffffffffffffffffffff1681526020018481526020018381526020018281526020019450505050506040805180830381600087803b151561054157600080fd5b6102c65a03f1151561055257600080fd5b50505060405180519060200180519050509350600160009054906101000a900473ffffffffffffffffffffffffffffffffffffffff1673ffffffffffffffffffffffffffffffffffffffff168473ffffffffffffffffffffffffffffffffffffffff1614156105c457600197506105cf565b84600101945061047d565b8673ffffffffffffffffffffffffffffffffffffffff16631c8cba3b8c6006806000604051602001526040518463ffffffff167c0100000000000000000000000000000000000000000000000000000000028152600401808473ffffffffffffffffffffffffffffffffffffffff1673ffffffffffffffffffffffffffffffffffffffff1681526020018381526020018281526020019350505050602060405180830381600087803b151561068357600080fd5b6102c65a03f1151561069457600080fd5b505050604051805190509250600091505b828210156107f6578673ffffffffffffffffffffffffffffffffffffffff16636ec7743d8c600680866000604051604001526040518563ffffffff167c0100000000000000000000000000000000000000000000000000000000028152600401808573ffffffffffffffffffffffffffffffffffffffff1673ffffffffffffffffffffffffffffffffffffffff1681526020018481526020018381526020018281526020019450505050506040805180830381600087803b151561076857600080fd5b6102c65a03f1151561077957600080fd5b50505060405180519060200180519050509050600160009054906101000a900473ffffffffffffffffffffffffffffffffffffffff1673ffffffffffffffffffffffffffffffffffffffff168173ffffffffffffffffffffffffffffffffffffffff1614156107eb57600198506107f6565b8160010191506106a5565b8780156108005750885b9950505050505050505050919050565b6000806000806000806000806000809054906101000a900473ffffffffffffffffffffffffffffffffffffffff1696508673ffffffffffffffffffffffffffffffffffffffff16631c8cba3b8b600660076000604051602001526040518463ffffffff167c0100000000000000000000000000000000000000000000000000000000028152600401808473ffffffffffffffffffffffffffffffffffffffff1673ffffffffffffffffffffffffffffffffffffffff1681526020018381526020018281526020019350505050602060405180830381600087803b15156108f557600080fd5b6102c65a03f1151561090657600080fd5b50505060405180519050955060009450600093505b85841015610a91578673ffffffffffffffffffffffffffffffffffffffff16636ec7743d8b60066007886000604051604001526040518563ffffffff167c0100000000000000000000000000000000000000000000000000000000028152600401808573ffffffffffffffffffffffffffffffffffffffff1673ffffffffffffffffffffffffffffffffffffffff1681526020018481526020018381526020018281526020019450505050506040805180830381600087803b15156109df57600080fd5b6102c65a03f115156109f057600080fd5b50505060405180519060200180519050925092506001820360020a9050600160009054906101000a900473ffffffffffffffffffffffffffffffffffffffff1673ffffffffffffffffffffffffffffffffffffffff168373ffffffffffffffffffffffffffffffffffffffff16141515610a6f57600185019450610a86565b80818a831816141515610a855760019750610ab2565b5b83600101935061091b565b6000891480610aa257506000858703115b1515610aad57600080fd5b600097505b50505050505050929150505600a165627a7a72305820e4b4f660ea5acd3a498f919d74d79aff65a71acb7418b9cd3d76569d47d58b950029",
  "source": "pragma solidity ^0.4.15;\n\nimport './ClaimRegistry.sol';\n\ncontract NotakeyVerifierV1 {\n\n    uint public constant ICO_CONTRIBUTOR_TYPE = 6;\n    uint public constant REPORT_BUNDLE = 6;\n    uint public constant NATIONALITY_INDEX = 7;\n\n    address public claimRegistryAddr;\n    address public trustedIssuerAddr;\n\n    uint public constant USA = 883423532389192164791648750371459257913741948437809479060803100646309888;                \n        // USA is 240nd; blacklist: 1 << (240-1)\n    uint public constant CHINA = 8796093022208;\n        // China is 44th; blacklist: 1 << (44-1)\n    uint public constant SOUTH_KOREA = 83076749736557242056487941267521536;\n        // SK is 117th; blacklist: 1 << (117-1)\n    \n    function NotakeyVerifierV1(address _trustedIssuerAddr, address _claimRegistryAddr) public {\n        claimRegistryAddr = _claimRegistryAddr;\n        trustedIssuerAddr  = _trustedIssuerAddr;\n    }\n\n    modifier onlyVerifiedSenders(address subject, uint256 nationalityBlacklist) {\n        require(_hasIcoContributorType(subject));\n        require(!_preventedByNationalityBlacklist(subject, nationalityBlacklist));\n\n        _;\n    }\n\n    function isVerified(address subject, uint256 nationalityBlacklist) public constant onlyVerifiedSenders(subject, nationalityBlacklist) returns (bool) {\n        return true;\n    }\n\n    function _preventedByNationalityBlacklist(address subject, uint256 nationalityBlacklist) internal constant returns (bool)\n    {\n        var claimRegistry = ClaimRegistry(claimRegistryAddr);\n        var claimCount = claimRegistry.getSubjectClaimSetSize(subject, ICO_CONTRIBUTOR_TYPE, NATIONALITY_INDEX);\n        uint256 ignoredClaims = 0;\n\n        for (uint i = 0; i < claimCount; ++i) {\n            var (issuer, url) = claimRegistry.getSubjectClaimSetEntryAt(subject, ICO_CONTRIBUTOR_TYPE, NATIONALITY_INDEX, i);\n            var countryMask = 2**(url-1);\n\n            if (issuer != trustedIssuerAddr) {\n                ignoredClaims += 1;\n            } else {\n                if (((countryMask ^ nationalityBlacklist) & countryMask) != countryMask) {\n                    return true;\n                } \n            }\n        }\n\n        // If the blacklist is empty (0), then that's fine; but if there is a blacklist,\n        // we must ensure there are nationalityIndex attributes to verify against\n        //\n        // Account for ignored claims (issued by unrecognized issuers)\n        require(nationalityBlacklist == 0 || (claimCount - ignoredClaims) > 0);\n\n        return false;\n    }   \n\n    function _hasIcoContributorType(address subject) internal constant returns (bool)\n    {\n        var atLeastOneValidReport = false;\n        var atLeastOneValidNationality = false;\n        \n        var claimRegistry = ClaimRegistry(claimRegistryAddr);\n        \n        var nationalityCount = claimRegistry.getSubjectClaimSetSize(subject, ICO_CONTRIBUTOR_TYPE, NATIONALITY_INDEX);\n        for (uint nationalityIndex = 0; nationalityIndex < nationalityCount; ++nationalityIndex) {\n            var (nationalityIssuer,) = claimRegistry.getSubjectClaimSetEntryAt(subject, ICO_CONTRIBUTOR_TYPE, NATIONALITY_INDEX, nationalityIndex);\n            if (nationalityIssuer == trustedIssuerAddr) {\n                atLeastOneValidNationality = true;\n                break;\n            }\n        }\n\n        var reportCount = claimRegistry.getSubjectClaimSetSize(subject, ICO_CONTRIBUTOR_TYPE, REPORT_BUNDLE);\n        for (uint reportIndex = 0; reportIndex < reportCount; ++reportIndex) {\n            var (reportIssuer,) = claimRegistry.getSubjectClaimSetEntryAt(subject, ICO_CONTRIBUTOR_TYPE, REPORT_BUNDLE, reportIndex);\n            if (reportIssuer == trustedIssuerAddr) {\n                atLeastOneValidReport = true;\n                break;\n            }\n        }\n\n        return atLeastOneValidNationality && atLeastOneValidReport;\n    }   \n}",
  "sourcePath": "/Users/ingemars/Projects/kyc-eth-contracts/contracts/NotakeyVerifierV1.sol",
  "compiler": {
    "name": "solc",
    "version": "0.4.18+commit.9cf6e910.Emscripten.clang"
  },
  "schemaVersion": "1.0.1",
  "updatedAt": "2018-01-10T16:03:42.574Z"
}