{
  "contractName": "ClaimRegistry",
  "abi": [
    {
      "constant": true,
      "inputs": [
        {
          "name": "subject",
          "type": "address"
        },
        {
          "name": "typeNameIx",
          "type": "uint256"
        },
        {
          "name": "attrNameIx",
          "type": "uint256"
        }
      ],
      "name": "getSubjectClaimSetSize",
      "outputs": [
        {
          "name": "",
          "type": "uint256"
        }
      ],
      "payable": false,
      "stateMutability": "view",
      "type": "function"
    },
    {
      "constant": true,
      "inputs": [
        {
          "name": "subject",
          "type": "address"
        }
      ],
      "name": "getLinkages",
      "outputs": [
        {
          "name": "linkedAddresses",
          "type": "address[]"
        }
      ],
      "payable": false,
      "stateMutability": "view",
      "type": "function"
    },
    {
      "constant": true,
      "inputs": [
        {
          "name": "subject",
          "type": "address"
        },
        {
          "name": "typeNameIx",
          "type": "uint256"
        },
        {
          "name": "ix",
          "type": "uint256"
        }
      ],
      "name": "getSubjectTypeAttrAt",
      "outputs": [
        {
          "name": "",
          "type": "uint256"
        }
      ],
      "payable": false,
      "stateMutability": "view",
      "type": "function"
    },
    {
      "constant": false,
      "inputs": [
        {
          "name": "subject",
          "type": "address"
        },
        {
          "name": "typeIx",
          "type": "uint256"
        },
        {
          "name": "attrIx",
          "type": "uint256"
        },
        {
          "name": "urlIx",
          "type": "uint256"
        }
      ],
      "name": "submitClaim",
      "outputs": [],
      "payable": false,
      "stateMutability": "nonpayable",
      "type": "function"
    },
    {
      "constant": true,
      "inputs": [
        {
          "name": "subject",
          "type": "address"
        },
        {
          "name": "ix",
          "type": "uint256"
        }
      ],
      "name": "getSubjectTypeAt",
      "outputs": [
        {
          "name": "",
          "type": "uint256"
        }
      ],
      "payable": false,
      "stateMutability": "view",
      "type": "function"
    },
    {
      "constant": true,
      "inputs": [
        {
          "name": "subject",
          "type": "address"
        },
        {
          "name": "typeNameIx",
          "type": "uint256"
        }
      ],
      "name": "getSubjectTypeAttrCount",
      "outputs": [
        {
          "name": "",
          "type": "uint256"
        }
      ],
      "payable": false,
      "stateMutability": "view",
      "type": "function"
    },
    {
      "constant": true,
      "inputs": [
        {
          "name": "subject",
          "type": "address"
        },
        {
          "name": "typeNameIx",
          "type": "uint256"
        },
        {
          "name": "attrNameIx",
          "type": "uint256"
        },
        {
          "name": "ix",
          "type": "uint256"
        }
      ],
      "name": "getSubjectClaimSetEntryAt",
      "outputs": [
        {
          "name": "issuer",
          "type": "address"
        },
        {
          "name": "url",
          "type": "uint256"
        }
      ],
      "payable": false,
      "stateMutability": "view",
      "type": "function"
    },
    {
      "constant": true,
      "inputs": [],
      "name": "getKeyProofsAddress",
      "outputs": [
        {
          "name": "",
          "type": "address"
        }
      ],
      "payable": false,
      "stateMutability": "view",
      "type": "function"
    },
    {
      "constant": true,
      "inputs": [
        {
          "name": "subject",
          "type": "address"
        }
      ],
      "name": "getSubjectTypeCount",
      "outputs": [
        {
          "name": "",
          "type": "uint256"
        }
      ],
      "payable": false,
      "stateMutability": "view",
      "type": "function"
    },
    {
      "constant": true,
      "inputs": [
        {
          "name": "subject",
          "type": "address"
        }
      ],
      "name": "getLinkagesWithProofs",
      "outputs": [
        {
          "name": "addrLinks",
          "type": "address[]"
        },
        {
          "name": "proofHashes",
          "type": "bytes32[]"
        }
      ],
      "payable": false,
      "stateMutability": "view",
      "type": "function"
    },
    {
      "constant": false,
      "inputs": [],
      "name": "destroy",
      "outputs": [],
      "payable": false,
      "stateMutability": "nonpayable",
      "type": "function"
    },
    {
      "constant": true,
      "inputs": [
        {
          "name": "subject",
          "type": "address"
        }
      ],
      "name": "getLinkageCount",
      "outputs": [
        {
          "name": "linkageCount",
          "type": "uint256"
        }
      ],
      "payable": false,
      "stateMutability": "view",
      "type": "function"
    },
    {
      "constant": false,
      "inputs": [
        {
          "name": "linkedAddress",
          "type": "address"
        },
        {
          "name": "txHash",
          "type": "bytes32"
        }
      ],
      "name": "submitLinkage",
      "outputs": [
        {
          "name": "linkageCount",
          "type": "uint256"
        }
      ],
      "payable": false,
      "stateMutability": "nonpayable",
      "type": "function"
    },
    {
      "constant": false,
      "inputs": [
        {
          "name": "linkedAddress",
          "type": "address"
        }
      ],
      "name": "terminateLinkage",
      "outputs": [
        {
          "name": "linkageCount",
          "type": "uint256"
        }
      ],
      "payable": false,
      "stateMutability": "nonpayable",
      "type": "function"
    },
    {
      "inputs": [
        {
          "name": "keyProofs",
          "type": "address"
        },
        {
          "name": "nameStorageFacade",
          "type": "address"
        }
      ],
      "payable": false,
      "stateMutability": "nonpayable",
      "type": "constructor"
    },
    {
      "anonymous": false,
      "inputs": [
        {
          "indexed": true,
          "name": "subject",
          "type": "address"
        },
        {
          "indexed": true,
          "name": "linkedAddress",
          "type": "address"
        },
        {
          "indexed": false,
          "name": "linkCount",
          "type": "uint256"
        }
      ],
      "name": "TerminatedLinkage",
      "type": "event"
    },
    {
      "anonymous": false,
      "inputs": [
        {
          "indexed": true,
          "name": "subject",
          "type": "address"
        },
        {
          "indexed": true,
          "name": "linkedAddress",
          "type": "address"
        },
        {
          "indexed": false,
          "name": "proofHash",
          "type": "bytes32"
        },
        {
          "indexed": false,
          "name": "linkCount",
          "type": "uint256"
        }
      ],
      "name": "GotLinkage",
      "type": "event"
    },
    {
      "anonymous": false,
      "inputs": [
        {
          "indexed": true,
          "name": "subject",
          "type": "address"
        },
        {
          "indexed": false,
          "name": "typeIx",
          "type": "uint256"
        },
        {
          "indexed": false,
          "name": "attrIx",
          "type": "uint256"
        },
        {
          "indexed": false,
          "name": "urlIx",
          "type": "uint256"
        }
      ],
      "name": "GotClaim",
      "type": "event"
    }
  ],
  "bytecode": "0x6060604052341561000f57600080fd5b604051604080611c8f83398101604052808051906020019091908051906020019091905050336000806101000a81548173ffffffffffffffffffffffffffffffffffffffff021916908373ffffffffffffffffffffffffffffffffffffffff16021790555081600160006101000a81548173ffffffffffffffffffffffffffffffffffffffff021916908373ffffffffffffffffffffffffffffffffffffffff16021790555080600260006101000a81548173ffffffffffffffffffffffffffffffffffffffff021916908373ffffffffffffffffffffffffffffffffffffffff1602179055505050611b88806101076000396000f3006060604052600436106100d0576000357c0100000000000000000000000000000000000000000000000000000000900463ffffffff1680631c8cba3b146100d55780632d3b4d04146101345780633a7f4b65146101c2578063458604d314610221578063510fa83f1461027557806353d6e0b7146102cb5780636ec7743d14610321578063723d2073146103bc5780637917f7251461041157806382824d5f1461045e57806383197ef0146105345780638513e3f214610549578063d473c51c14610596578063e85a66f1146105f0575b600080fd5b34156100e057600080fd5b61011e600480803573ffffffffffffffffffffffffffffffffffffffff1690602001909190803590602001909190803590602001909190505061063d565b6040518082815260200191505060405180910390f35b341561013f57600080fd5b61016b600480803573ffffffffffffffffffffffffffffffffffffffff169060200190919050506106b0565b6040518080602001828103825283818151815260200191508051906020019060200280838360005b838110156101ae578082015181840152602081019050610193565b505050509050019250505060405180910390f35b34156101cd57600080fd5b61020b600480803573ffffffffffffffffffffffffffffffffffffffff16906020019091908035906020019091908035906020019091905050610786565b6040518082815260200191505060405180910390f35b341561022c57600080fd5b610273600480803573ffffffffffffffffffffffffffffffffffffffff169060200190919080359060200190919080359060200190919080359060200190919050506107fa565b005b341561028057600080fd5b6102b5600480803573ffffffffffffffffffffffffffffffffffffffff16906020019091908035906020019091905050610e99565b6040518082815260200191505060405180910390f35b34156102d657600080fd5b61030b600480803573ffffffffffffffffffffffffffffffffffffffff16906020019091908035906020019091905050610efb565b6040518082815260200191505060405180910390f35b341561032c57600080fd5b610373600480803573ffffffffffffffffffffffffffffffffffffffff16906020019091908035906020019091908035906020019091908035906020019091905050610f59565b604051808373ffffffffffffffffffffffffffffffffffffffff1673ffffffffffffffffffffffffffffffffffffffff1681526020018281526020019250505060405180910390f35b34156103c757600080fd5b6103cf611083565b604051808273ffffffffffffffffffffffffffffffffffffffff1673ffffffffffffffffffffffffffffffffffffffff16815260200191505060405180910390f35b341561041c57600080fd5b610448600480803573ffffffffffffffffffffffffffffffffffffffff169060200190919050506110ad565b6040518082815260200191505060405180910390f35b341561046957600080fd5b610495600480803573ffffffffffffffffffffffffffffffffffffffff169060200190919050506110f9565b604051808060200180602001838103835285818151815260200191508051906020019060200280838360005b838110156104dc5780820151818401526020810190506104c1565b50505050905001838103825284818151815260200191508051906020019060200280838360005b8381101561051e578082015181840152602081019050610503565b5050505090500194505050505060405180910390f35b341561053f57600080fd5b610547611354565b005b341561055457600080fd5b610580600480803573ffffffffffffffffffffffffffffffffffffffff169060200190919050506113e9565b6040518082815260200191505060405180910390f35b34156105a157600080fd5b6105da600480803573ffffffffffffffffffffffffffffffffffffffff169060200190919080356000191690602001909190505061143b565b6040518082815260200191505060405180910390f35b34156105fb57600080fd5b610627600480803573ffffffffffffffffffffffffffffffffffffffff16906020019091905050611606565b6040518082815260200191505060405180910390f35b6000600360008573ffffffffffffffffffffffffffffffffffffffff1673ffffffffffffffffffffffffffffffffffffffff168152602001908152602001600020600084815260200190815260200160002060008381526020019081526020016000206000018054905090509392505050565b6106b86119ea565b600660008373ffffffffffffffffffffffffffffffffffffffff1673ffffffffffffffffffffffffffffffffffffffff16815260200190815260200160002060000180548060200260200160405190810160405280929190818152602001828054801561077a57602002820191906000526020600020905b8160009054906101000a900473ffffffffffffffffffffffffffffffffffffffff1673ffffffffffffffffffffffffffffffffffffffff1681526020019060010190808311610730575b50505050509050919050565b6000600460008573ffffffffffffffffffffffffffffffffffffffff1673ffffffffffffffffffffffffffffffffffffffff1681526020019081526020016000206000848152602001908152602001600020828154811015156107e557fe5b90600052602060002090015490509392505050565b6000808573ffffffffffffffffffffffffffffffffffffffff163373ffffffffffffffffffffffffffffffffffffffff16149150600160009054906101000a900473ffffffffffffffffffffffffffffffffffffffff1673ffffffffffffffffffffffffffffffffffffffff1663b8d2b1a187336000604051602001526040518363ffffffff167c0100000000000000000000000000000000000000000000000000000000028152600401808373ffffffffffffffffffffffffffffffffffffffff1673ffffffffffffffffffffffffffffffffffffffff1681526020018273ffffffffffffffffffffffffffffffffffffffff1673ffffffffffffffffffffffffffffffffffffffff16815260200192505050602060405180830381600087803b151561092757600080fd5b6102c65a03f1151561093857600080fd5b505050604051805190509050818061094d5750805b151561095857600080fd5b60008511151561096757600080fd5b60008411151561097657600080fd5b60008311151561098557600080fd5b84600260009054906101000a900473ffffffffffffffffffffffffffffffffffffffff1673ffffffffffffffffffffffffffffffffffffffff1663fe4d1ce0600080604051602001526040518263ffffffff167c010000000000000000000000000000000000000000000000000000000002815260040180828152602001915050602060405180830381600087803b1515610a1f57600080fd5b6102c65a03f11515610a3057600080fd5b5050506040518051905010151515610a4757600080fd5b83600260009054906101000a900473ffffffffffffffffffffffffffffffffffffffff1673ffffffffffffffffffffffffffffffffffffffff1663fe4d1ce060016000604051602001526040518263ffffffff167c010000000000000000000000000000000000000000000000000000000002815260040180828152602001915050602060405180830381600087803b1515610ae257600080fd5b6102c65a03f11515610af357600080fd5b5050506040518051905010151515610b0a57600080fd5b60001515600360008873ffffffffffffffffffffffffffffffffffffffff1673ffffffffffffffffffffffffffffffffffffffff1681526020019081526020016000206000878152602001908152602001600020600086815260200190815260200160002060020160009054906101000a900460ff1615151415610ce3576001600360008873ffffffffffffffffffffffffffffffffffffffff1673ffffffffffffffffffffffffffffffffffffffff1681526020019081526020016000206000878152602001908152602001600020600086815260200190815260200160002060020160006101000a81548160ff021916908315150217905550600560008773ffffffffffffffffffffffffffffffffffffffff1673ffffffffffffffffffffffffffffffffffffffff1681526020019081526020016000208054806001018281610c5691906119fe565b916000526020600020900160008790919091505550600460008773ffffffffffffffffffffffffffffffffffffffff1673ffffffffffffffffffffffffffffffffffffffff16815260200190815260200160002060008681526020019081526020016000208054806001018281610ccd91906119fe565b9160005260206000209001600086909190915055505b600360008773ffffffffffffffffffffffffffffffffffffffff1673ffffffffffffffffffffffffffffffffffffffff168152602001908152602001600020600086815260200190815260200160002060008581526020019081526020016000206000018054806001018281610d5991906119fe565b916000526020600020900160008590919091505550600360008773ffffffffffffffffffffffffffffffffffffffff1673ffffffffffffffffffffffffffffffffffffffff168152602001908152602001600020600086815260200190815260200160002060008581526020019081526020016000206001018054806001018281610de49190611a2a565b9160005260206000209001600033909190916101000a81548173ffffffffffffffffffffffffffffffffffffffff021916908373ffffffffffffffffffffffffffffffffffffffff160217905550508573ffffffffffffffffffffffffffffffffffffffff167fd35e0b4d4391a5b4b2a52b5d72ff5d1d9e95a80936ee91f3ce02946cae7d8b6a86868660405180848152602001838152602001828152602001935050505060405180910390a2505050505050565b6000600560008473ffffffffffffffffffffffffffffffffffffffff1673ffffffffffffffffffffffffffffffffffffffff16815260200190815260200160002082815481101515610ee757fe5b906000526020600020900154905092915050565b6000600460008473ffffffffffffffffffffffffffffffffffffffff1673ffffffffffffffffffffffffffffffffffffffff168152602001908152602001600020600083815260200190815260200160002080549050905092915050565b600080600360008773ffffffffffffffffffffffffffffffffffffffff1673ffffffffffffffffffffffffffffffffffffffff1681526020019081526020016000206000868152602001908152602001600020600085815260200190815260200160002060010183815481101515610fcd57fe5b906000526020600020900160009054906101000a900473ffffffffffffffffffffffffffffffffffffffff169150600360008773ffffffffffffffffffffffffffffffffffffffff1673ffffffffffffffffffffffffffffffffffffffff168152602001908152602001600020600086815260200190815260200160002060008581526020019081526020016000206000018381548110151561106c57fe5b906000526020600020900154905094509492505050565b6000600160009054906101000a900473ffffffffffffffffffffffffffffffffffffffff16905090565b6000600560008373ffffffffffffffffffffffffffffffffffffffff1673ffffffffffffffffffffffffffffffffffffffff168152602001908152602001600020805490509050919050565b6111016119ea565b611109611a56565b60006111136119ea565b61111b611a56565b6000600660008873ffffffffffffffffffffffffffffffffffffffff1673ffffffffffffffffffffffffffffffffffffffff168152602001908152602001600020600001805490509350836040518059106111735750595b90808252806020026020018201604052509250836040518059106111945750595b90808252806020026020018201604052509150600090505b600660008873ffffffffffffffffffffffffffffffffffffffff1673ffffffffffffffffffffffffffffffffffffffff1681526020019081526020016000206000018054905081101561134557600660008873ffffffffffffffffffffffffffffffffffffffff1673ffffffffffffffffffffffffffffffffffffffff168152602001908152602001600020600101600082815260200190815260200160002054828281518110151561125b57fe5b906020019060200201906000191690816000191681525050600660008873ffffffffffffffffffffffffffffffffffffffff1673ffffffffffffffffffffffffffffffffffffffff168152602001908152602001600020600001818154811015156112c257fe5b906000526020600020900160009054906101000a900473ffffffffffffffffffffffffffffffffffffffff1683828151811015156112fc57fe5b9060200190602002019073ffffffffffffffffffffffffffffffffffffffff16908173ffffffffffffffffffffffffffffffffffffffff168152505080806001019150506111ac565b82829550955050505050915091565b6000809054906101000a900473ffffffffffffffffffffffffffffffffffffffff1673ffffffffffffffffffffffffffffffffffffffff163373ffffffffffffffffffffffffffffffffffffffff161415156113af57600080fd5b6000809054906101000a900473ffffffffffffffffffffffffffffffffffffffff1673ffffffffffffffffffffffffffffffffffffffff16ff5b6000600660008373ffffffffffffffffffffffffffffffffffffffff1673ffffffffffffffffffffffffffffffffffffffff168152602001908152602001600020600001805490509050809050919050565b6000803390507fffffffffffffffffffffffffffffffffffffffffffffffffffffffffffffffff61146c828661189f565b14151561147857600080fd5b611481816113e9565b9150600660008273ffffffffffffffffffffffffffffffffffffffff1673ffffffffffffffffffffffffffffffffffffffff16815260200190815260200160002060000180548060010182816114d79190611a2a565b9160005260206000209001600086909190916101000a81548173ffffffffffffffffffffffffffffffffffffffff021916908373ffffffffffffffffffffffffffffffffffffffff1602179055505082600660008373ffffffffffffffffffffffffffffffffffffffff1673ffffffffffffffffffffffffffffffffffffffff1681526020019081526020016000206001016000848152602001908152602001600020816000191690555081806001019250508373ffffffffffffffffffffffffffffffffffffffff168173ffffffffffffffffffffffffffffffffffffffff167f8ac159ddbb733e2ee5d38e32ff2b5cca9414f01660f7541dfcd8225645308c4b85856040518083600019166000191681526020018281526020019250505060405180910390a35092915050565b60008060006116136119ea565b6000803394506000611625868961189f565b1215151561163257600080fd5b61163b856113e9565b955060009150600090505b8251821015611774578673ffffffffffffffffffffffffffffffffffffffff16838381518110151561167457fe5b9060200190602002015173ffffffffffffffffffffffffffffffffffffffff1614156116a257819050611646565b600660008673ffffffffffffffffffffffffffffffffffffffff1673ffffffffffffffffffffffffffffffffffffffff168152602001908152602001600020600001828154811015156116f157fe5b906000526020600020900160009054906101000a900473ffffffffffffffffffffffffffffffffffffffff16838381518110151561172b57fe5b9060200190602002019073ffffffffffffffffffffffffffffffffffffffff16908173ffffffffffffffffffffffffffffffffffffffff16815250508180600101925050611646565b82600660008773ffffffffffffffffffffffffffffffffffffffff1673ffffffffffffffffffffffffffffffffffffffff16815260200190815260200160002060000190805190602001906117ca929190611a6a565b5083600660008773ffffffffffffffffffffffffffffffffffffffff1673ffffffffffffffffffffffffffffffffffffffff168152602001908152602001600020600101600083815260200190815260200160002081600019169055508580600190039650508673ffffffffffffffffffffffffffffffffffffffff168573ffffffffffffffffffffffffffffffffffffffff167fd93b76799b18f1a0798ad677a1228c47d38f8ad87f203d195060a8617746781a886040518082815260200191505060405180910390a35050505050919050565b600080600090505b600660008573ffffffffffffffffffffffffffffffffffffffff1673ffffffffffffffffffffffffffffffffffffffff168152602001908152602001600020600001805490508110156119bf578273ffffffffffffffffffffffffffffffffffffffff16600660008673ffffffffffffffffffffffffffffffffffffffff1673ffffffffffffffffffffffffffffffffffffffff1681526020019081526020016000206000018281548110151561195a57fe5b906000526020600020900160009054906101000a900473ffffffffffffffffffffffffffffffffffffffff1673ffffffffffffffffffffffffffffffffffffffff1614156119aa578091506119e3565b808060010191505080806001019150506118a7565b7fffffffffffffffffffffffffffffffffffffffffffffffffffffffffffffffff91505b5092915050565b602060405190810160405280600081525090565b815481835581811511611a2557818360005260206000209182019101611a249190611af4565b5b505050565b815481835581811511611a5157818360005260206000209182019101611a509190611af4565b5b505050565b602060405190810160405280600081525090565b828054828255906000526020600020908101928215611ae3579160200282015b82811115611ae25782518260006101000a81548173ffffffffffffffffffffffffffffffffffffffff021916908373ffffffffffffffffffffffffffffffffffffffff16021790555091602001919060010190611a8a565b5b509050611af09190611b19565b5090565b611b1691905b80821115611b12576000816000905550600101611afa565b5090565b90565b611b5991905b80821115611b5557600081816101000a81549073ffffffffffffffffffffffffffffffffffffffff021916905550600101611b1f565b5090565b905600a165627a7a723058201b8a88c4e534ff7050cdac0b7be5b9bdc43ad51f6ee66ab07f400f127aded2d30029",
  "source": "pragma solidity ^0.4.15;\n\nimport './NameStorageFacade.sol';\nimport './KeyProofs.sol';\nimport './Destroyable.sol';\n\ncontract ClaimRegistry is Destroyable {\n\n    // type indices\n    uint constant TYPE_TIX = 0; \n    uint constant ATTR_TIX = 1; \n    uint constant URL_TIX = 2; \n\n    address _keyProofsAddr;\n    address _nameStorageFacade;\n\n    event TerminatedLinkage(address indexed subject, address indexed linkedAddress, uint linkCount);\n    event GotLinkage(address indexed subject, address indexed linkedAddress, bytes32 proofHash, uint linkCount);\n    event GotClaim(address indexed subject, uint typeIx, uint attrIx, uint urlIx);\n\n\n    function ClaimRegistry(address keyProofs, address nameStorageFacade) public {\n        _keyProofsAddr = keyProofs;\n        _nameStorageFacade = nameStorageFacade;\n    }   \n    \n    struct ClaimSetV1 {\n        uint[] urls;\n        address[] issuers;\n        bool isValid;\n    }\n\n    struct Linkages{\n        address[] linkedAddresses;\n        mapping (uint => bytes32) linkHashMaps;\n    }\n\n    mapping (address => mapping(uint => mapping(uint => ClaimSetV1))) subjectToTypeToAttrToClaims;\n    mapping (address => mapping(uint => uint[])) subjectTypeClaimIndexes; \n    mapping (address => uint[]) subjectTypeIndexes;\n    //       subject            linked adderess => proof hash\n    mapping (address => Linkages) subjectLinkages;\n\n    function getLinkageCount(address subject) public view returns(uint linkageCount) {\n        // var isSelf = (msg.sender == subject);\n        linkageCount = subjectLinkages[subject].linkedAddresses.length;\n        return linkageCount;\n    }\n\n    function getLinkageIndex(address subject, address linkedAddress) private view returns(int) {\n        for (uint i = 0 ; i < subjectLinkages[subject].linkedAddresses.length ; i++ ){\n            if(subjectLinkages[subject].linkedAddresses[i] == linkedAddress){\n                return int( i );\n            }\n            i++;\n        }\n\n        return -1;\n    }\n\n    function getLinkages(address subject) public view returns(address[] linkedAddresses) {\n        // var isSelf = (msg.sender == subject);\n        linkedAddresses = subjectLinkages[subject].linkedAddresses;\n    }\n\n    function getLinkagesWithProofs(address subject) public view returns( address[] memory addrLinks, bytes32[] memory proofHashes ) {\n        uint _arrLength = subjectLinkages[subject].linkedAddresses.length;\n        address[] memory _addrLinks = new address[](_arrLength);\n        bytes32[] memory _proofHashes = new bytes32[](_arrLength);\n\n        for (uint i = 0 ; i < subjectLinkages[subject].linkedAddresses.length ; i++ ){\n            _proofHashes[i] = subjectLinkages[subject].linkHashMaps[i];\n            _addrLinks[i] = subjectLinkages[subject].linkedAddresses[i];\n        }\n\n        return (_addrLinks , _proofHashes);\n    }\n\n\n\n    function submitLinkage(address linkedAddress, bytes32 txHash) public returns(uint linkageCount) {\n        // var isSelf = (msg.sender == subject);\n\n        // require(isSelf);\n        address subject = msg.sender;\n\n        // uint8 v, bytes32 r, bytes32 s\n        // bytes memory prefix = \"\\x19Ethereum Signed Message:\\n32\";\n        // bytes32 prefixedHash = keccak256(prefix, txHash);\n        // address signer = ecrecover(prefixedHash, v, r, s);\n\n        // require(linkedAddress == signer);\n\n        require(getLinkageIndex(subject, linkedAddress) == -1);\n\n        linkageCount = getLinkageCount(subject);\n        \n        subjectLinkages[subject].linkedAddresses.push(linkedAddress);\n        subjectLinkages[subject].linkHashMaps[(linkageCount)] = txHash;\n        linkageCount++;\n\n        GotLinkage(subject, linkedAddress, txHash, linkageCount);     \n    }\n\n    function terminateLinkage(address linkedAddress) public returns(uint linkageCount) {\n        address subject = msg.sender;\n\n        bytes32 emptyVar;\n        require(getLinkageIndex(subject, linkedAddress) >= 0);\n        \n        linkageCount = getLinkageCount(subject);\n        \n        address[] memory newLinkages;\n        uint i = 0; \n        uint delIndex = 0;\n        while (i < newLinkages.length){\n            if(newLinkages[i] == linkedAddress){\n                delIndex = i;\n                continue;\n            } \n            newLinkages[i] = subjectLinkages[subject].linkedAddresses[i];\n            i++;\n        }\n\n        subjectLinkages[subject].linkedAddresses = newLinkages;\n        subjectLinkages[subject].linkHashMaps[delIndex] = emptyVar;\n        linkageCount--;\n\n        TerminatedLinkage(subject, linkedAddress, linkageCount);\n\n        // return linkageCount;\n    }\n\n    function submitClaim(address subject, uint typeIx, uint attrIx, uint urlIx) public {\n        var isSelf = (msg.sender == subject);\n        var isValidator = KeyProofs(_keyProofsAddr).isValidatedBy(subject, msg.sender);\n\n        require(isSelf || isValidator);\n\n        require(typeIx > 0);\n        require(attrIx > 0);\n        require(urlIx > 0);\n\n        // type/attr/url exists\n        require(NameStorageFacade(_nameStorageFacade).getNameCount(TYPE_TIX) >= typeIx);\n        require(NameStorageFacade(_nameStorageFacade).getNameCount(ATTR_TIX) >= attrIx);\n        \n        // Allow non-existant value, so it can be interpreted as an integer not lookup URL\n        // require(NameStorageFacade(_nameStorageFacade).getNameCount(URL_TIX) >= urlIx);\n\n        if (subjectToTypeToAttrToClaims[subject][typeIx][attrIx].isValid == false) {\n            subjectToTypeToAttrToClaims[subject][typeIx][attrIx].isValid = true;\n            subjectTypeIndexes[subject].push(typeIx);\n            subjectTypeClaimIndexes[subject][typeIx].push(attrIx);\n        }\n        \n        subjectToTypeToAttrToClaims[subject][typeIx][attrIx].urls.push(urlIx);\n        subjectToTypeToAttrToClaims[subject][typeIx][attrIx].issuers.push(msg.sender);\n\n        GotClaim(subject, typeIx, attrIx, urlIx);\n     }\n\n\n    function getSubjectTypeCount(address subject) public constant returns (uint) {\n        return subjectTypeIndexes[subject].length;\n    }\n\n    function getSubjectTypeAttrCount(address subject, uint typeNameIx) public constant returns (uint) {\n        return subjectTypeClaimIndexes[subject][typeNameIx].length;\n    }\n\n    function getSubjectTypeAt(address subject, uint ix) public constant returns (uint) {\n        return subjectTypeIndexes[subject][ix];\n    }\n\n    function getSubjectTypeAttrAt(address subject, uint typeNameIx, uint ix) public constant returns (uint) {\n        return subjectTypeClaimIndexes[subject][typeNameIx][ix];\n    }\n\n    function getSubjectClaimSetSize(address subject, uint typeNameIx, uint attrNameIx) public constant returns (uint) {\n        return subjectToTypeToAttrToClaims[subject][typeNameIx][attrNameIx].urls.length;\n    }\n\n    function getSubjectClaimSetEntryAt(address subject, uint typeNameIx, uint attrNameIx, uint ix) public constant returns (address issuer, uint url)\n    {\n        issuer = subjectToTypeToAttrToClaims[subject][typeNameIx][attrNameIx].issuers[ix];\n        url = subjectToTypeToAttrToClaims[subject][typeNameIx][attrNameIx].urls[ix];\n    }\n\n    function getKeyProofsAddress() public constant returns(address) {\n        return _keyProofsAddr;\n    }\n\n    function doThrow() private pure {\n        assert(false);\n    }\n }",
  "sourcePath": "/Users/ingemars/Projects/kyc-eth-contracts/contracts/ClaimRegistry.sol",
  "compiler": {
    "name": "solc",
    "version": "0.4.18+commit.9cf6e910.Emscripten.clang"
  },
  "schemaVersion": "1.0.1",
  "updatedAt": "2018-01-12T14:23:59.373Z"
}