{
  "contractName": "NameStorageLib",
  "abi": [
    {
      "constant": true,
      "inputs": [
        {
          "name": "self",
          "type": "NameStorageLib.Store storage"
        },
        {
          "name": "schemaNameParts",
          "type": "bytes32[]"
        }
      ],
      "name": "getNameIndex",
      "outputs": [
        {
          "name": "",
          "type": "int256"
        }
      ],
      "payable": false,
      "stateMutability": "view",
      "type": "function"
    },
    {
      "constant": true,
      "inputs": [
        {
          "name": "self",
          "type": "NameStorageLib.Store storage"
        },
        {
          "name": "ix",
          "type": "uint256"
        },
        {
          "name": "chunkIndex",
          "type": "uint256"
        }
      ],
      "name": "getNameChunkAt",
      "outputs": [
        {
          "name": "",
          "type": "bytes32"
        }
      ],
      "payable": false,
      "stateMutability": "view",
      "type": "function"
    },
    {
      "constant": false,
      "inputs": [
        {
          "name": "self",
          "type": "NameStorageLib.Store storage"
        },
        {
          "name": "schemaNameParts",
          "type": "bytes32[]"
        }
      ],
      "name": "submitName",
      "outputs": [
        {
          "name": "",
          "type": "bytes32"
        },
        {
          "name": "",
          "type": "uint256"
        }
      ],
      "payable": false,
      "stateMutability": "nonpayable",
      "type": "function"
    },
    {
      "constant": true,
      "inputs": [
        {
          "name": "self",
          "type": "NameStorageLib.Store storage"
        },
        {
          "name": "ix",
          "type": "uint256"
        }
      ],
      "name": "getNameChunkCount",
      "outputs": [
        {
          "name": "",
          "type": "uint256"
        }
      ],
      "payable": false,
      "stateMutability": "view",
      "type": "function"
    },
    {
      "constant": true,
      "inputs": [
        {
          "name": "self",
          "type": "NameStorageLib.Store storage"
        }
      ],
      "name": "getNameCount",
      "outputs": [
        {
          "name": "",
          "type": "uint256"
        }
      ],
      "payable": false,
      "stateMutability": "view",
      "type": "function"
    }
  ],
  "bytecode": "0x6060604052341561000f57600080fd5b6107fe8061001e6000396000f30060606040526004361061006d576000357c0100000000000000000000000000000000000000000000000000000000900463ffffffff168063058a2a87146100725780633f307f56146100de57806374102c721461012457806395978e301461019f578063bf44f3ec146101d4575b600080fd5b6100c8600480803590602001909190803590602001908201803590602001908080602002602001604051908101604052809392919081815260200183836020028082843782019150505050505091905050610200565b6040518082815260200191505060405180910390f35b61010660048080359060200190919080359060200190919080359060200190919050506103b7565b60405180826000191660001916815260200191505060405180910390f35b61017a6004808035906020019091908035906020019082018035906020019080806020026020016040519081016040528093929190818152602001838360200280828437820191505050505050919050506103f0565b6040518083600019166000191681526020018281526020019250505060405180910390f35b6101be60048080359060200190919080359060200190919050506104f7565b6040518082815260200191505060405180910390f35b6101ea600480803590602001909190505061051a565b6040518082815260200191505060405180910390f35b600061020a610746565b6000610214610746565b61021d85610528565b9250600191505b85600101548211151561038a576102a186600001600084815260200190815260200160002080548060200260200160405190810160405280929190818152602001828054801561029757602002820191906000526020600020905b8154600019168152602001906001019080831161027f575b5050505050610528565b9050826040518082805190602001908083835b6020831015156102d957805182526020820191506020810190506020830392506102b4565b6001836020036101000a038019825116818451168082178552505050505050905001915050604051809103902060001916816040518082805190602001908083835b602083101515610340578051825260208201915060208101905060208303925061031b565b6001836020036101000a038019825116818451168082178552505050505050905001915050604051809103902060001916141561037f578193506103ae565b816001019150610224565b7fffffffffffffffffffffffffffffffffffffffffffffffffffffffffffffffff93505b50505092915050565b6000836000016000848152602001908152602001600020828154811015156103db57fe5b90600052602060002090015490509392505050565b60008060006103fd610746565b7fffffffffffffffffffffffffffffffffffffffffffffffffffffffffffffffff6104288787610200565b14151561043457600080fd5b600186600101540191506001866001016000828254019250508190555084866000016000848152602001908152602001600020908051906020019061047a92919061075a565b5061048485610528565b9050806040518082805190602001908083835b6020831015156104bc5780518252602082019150602081019050602083039250610497565b6001836020036101000a0380198251168184511680821785525050505050509050019150506040518091039020829350935050509250929050565b600082600001600083815260200190815260200160002080549050905092915050565b600081600101549050919050565b610530610746565b610538610746565b600080600080610546610746565b60208851026040518059106105585750595b9080825280601f01601f19166020018201604052509550600093505b875184101561066257600092505b6020831015610655578260080260020a88858151811015156105a057fe5b906020019060200201516001900402600102915060007f010000000000000000000000000000000000000000000000000000000000000002827effffffffffffffffffffffffffffffffffffffffffffffffffffffffffffff19161415156106485781868681518110151561061157fe5b9060200101907effffffffffffffffffffffffffffffffffffffffffffffffffffffffffffff1916908160001a9053506001850194505b8280600101935050610582565b8380600101945050610574565b846040518059106106705750595b9080825280601f01601f19166020018201604052509050600093505b848410156107385785848151811015156106a257fe5b9060200101517f010000000000000000000000000000000000000000000000000000000000000090047f01000000000000000000000000000000000000000000000000000000000000000281858151811015156106fb57fe5b9060200101907effffffffffffffffffffffffffffffffffffffffffffffffffffffffffffff1916908160001a905350838060010194505061068c565b809650505050505050919050565b602060405190810160405280600081525090565b82805482825590600052602060002090810192821561079c579160200282015b8281111561079b57825182906000191690559160200191906001019061077a565b5b5090506107a991906107ad565b5090565b6107cf91905b808211156107cb5760008160009055506001016107b3565b5090565b905600a165627a7a72305820aa1fe8db6513285ab546204db19557133469ae56d67bfd71a7630c25848b2d960029",
  "source": "pragma solidity ^0.4.15;\n\nlibrary NameStorageLib {\n\n    struct Store {\n        mapping (uint => bytes32[]) ixToName;\n        uint nameCount;\n    }\n\n    function getNameCount(Store storage self) public constant returns (uint) {\n        return self.nameCount;\n    }\n\n    function getNameChunkCount(Store storage self, uint ix) public constant returns (uint) {\n        return self.ixToName[ix].length;\n    }\n\n    function getNameChunkAt(Store storage self, uint ix, uint chunkIndex) public constant returns (bytes32) {\n        return self.ixToName[ix][chunkIndex];\n    }\n\n    function getNameIndex(Store storage self, bytes32[] schemaNameParts) public constant returns (int) {\n        bytes memory schemaName = bytes32ArrayToBytes(schemaNameParts);\n\n        // start from 1, because 0 means uninitialized\n        for (uint i = 1; i <= self.nameCount; ++i) {\n            bytes memory currentSchemaName = bytes32ArrayToBytes(self.ixToName[i]);\n            if (keccak256(currentSchemaName) == keccak256(schemaName)) {\n                return int(i);\n            }\n        }\n        return -1;\n    }\n\n    function submitName(Store storage self, bytes32[] schemaNameParts) public returns (bytes32, uint) {\n        require(getNameIndex(self, schemaNameParts) == -1);\n\n        var newIx = self.nameCount + 1; // index 0 should mean uninitialized\n        self.nameCount += 1;\n\n        self.ixToName[newIx] = schemaNameParts;\n\n        bytes memory schemaName = bytes32ArrayToBytes(schemaNameParts);\n        return (keccak256(schemaName), newIx);\n    }\n\n    function bytes32ArrayToBytes (bytes32[] data) private pure returns (bytes) {\n        bytes memory bytesString = new bytes(data.length * 32);\n        uint urlLength;\n        for (uint i=0; i<data.length; i++) {\n            for (uint j=0; j<32; j++) {\n                byte char = byte(bytes32(uint(data[i]) * 2 ** (8 * j)));\n                if (char != 0) {\n                    bytesString[urlLength] = char;\n                    urlLength += 1;\n                }\n            }\n        }\n        bytes memory bytesStringTrimmed = new bytes(urlLength);\n        for (i=0; i<urlLength; i++) {\n            bytesStringTrimmed[i] = bytesString[i];\n        }\n        return bytesStringTrimmed;\n    }\n }",
  "sourcePath": "/Users/ingemars/Projects/kyc-eth-contracts/contracts/NameStorageLib.sol",
  "compiler": {
    "name": "solc",
    "version": "0.4.18+commit.9cf6e910.Emscripten.clang"
  },
  "schemaVersion": "1.0.1",
  "updatedAt": "2018-01-12T14:23:59.415Z"
}