{
  "contractName": "KeyProofs",
  "abi": [
    {
      "constant": false,
      "inputs": [
        {
          "name": "uuid",
          "type": "bytes32"
        },
        {
          "name": "keyStorageLevel",
          "type": "uint256"
        }
      ],
      "name": "sealProof",
      "outputs": [],
      "payable": false,
      "stateMutability": "nonpayable",
      "type": "function"
    },
    {
      "constant": true,
      "inputs": [
        {
          "name": "uuid",
          "type": "bytes32"
        }
      ],
      "name": "getChallenge",
      "outputs": [
        {
          "name": "validatorAddr",
          "type": "address"
        },
        {
          "name": "timestamp",
          "type": "uint256"
        }
      ],
      "payable": false,
      "stateMutability": "view",
      "type": "function"
    },
    {
      "constant": false,
      "inputs": [
        {
          "name": "uuid",
          "type": "bytes32"
        },
        {
          "name": "signerAddr",
          "type": "address"
        },
        {
          "name": "v",
          "type": "uint8"
        },
        {
          "name": "h",
          "type": "bytes32"
        },
        {
          "name": "r",
          "type": "bytes32"
        },
        {
          "name": "s",
          "type": "bytes32"
        }
      ],
      "name": "submitProof",
      "outputs": [],
      "payable": false,
      "stateMutability": "nonpayable",
      "type": "function"
    },
    {
      "constant": true,
      "inputs": [
        {
          "name": "userAddr",
          "type": "address"
        },
        {
          "name": "validatorAddr",
          "type": "address"
        }
      ],
      "name": "getSealBy",
      "outputs": [
        {
          "name": "",
          "type": "uint256"
        }
      ],
      "payable": false,
      "stateMutability": "view",
      "type": "function"
    },
    {
      "constant": false,
      "inputs": [
        {
          "name": "uuid",
          "type": "bytes32"
        },
        {
          "name": "signerAddr",
          "type": "address"
        },
        {
          "name": "v",
          "type": "uint8"
        },
        {
          "name": "h",
          "type": "bytes32"
        },
        {
          "name": "r",
          "type": "bytes32"
        },
        {
          "name": "s",
          "type": "bytes32"
        }
      ],
      "name": "submitProofEC",
      "outputs": [],
      "payable": false,
      "stateMutability": "nonpayable",
      "type": "function"
    },
    {
      "constant": false,
      "inputs": [],
      "name": "destroy",
      "outputs": [],
      "payable": false,
      "stateMutability": "nonpayable",
      "type": "function"
    },
    {
      "constant": true,
      "inputs": [
        {
          "name": "addr",
          "type": "address"
        }
      ],
      "name": "getSealCount",
      "outputs": [
        {
          "name": "",
          "type": "uint256"
        }
      ],
      "payable": false,
      "stateMutability": "view",
      "type": "function"
    },
    {
      "constant": true,
      "inputs": [
        {
          "name": "addr",
          "type": "address"
        },
        {
          "name": "sealIx",
          "type": "uint256"
        }
      ],
      "name": "getSealAt",
      "outputs": [
        {
          "name": "",
          "type": "address"
        },
        {
          "name": "",
          "type": "uint256"
        }
      ],
      "payable": false,
      "stateMutability": "view",
      "type": "function"
    },
    {
      "constant": true,
      "inputs": [
        {
          "name": "subject",
          "type": "address"
        },
        {
          "name": "validator",
          "type": "address"
        }
      ],
      "name": "isValidatedBy",
      "outputs": [
        {
          "name": "",
          "type": "bool"
        }
      ],
      "payable": false,
      "stateMutability": "view",
      "type": "function"
    },
    {
      "constant": false,
      "inputs": [
        {
          "name": "uuid",
          "type": "bytes32"
        }
      ],
      "name": "requestProof",
      "outputs": [],
      "payable": false,
      "stateMutability": "nonpayable",
      "type": "function"
    },
    {
      "constant": true,
      "inputs": [
        {
          "name": "uuid",
          "type": "bytes32"
        }
      ],
      "name": "getSignerAndSignatureInput",
      "outputs": [
        {
          "name": "",
          "type": "address"
        },
        {
          "name": "",
          "type": "bytes32"
        }
      ],
      "payable": false,
      "stateMutability": "view",
      "type": "function"
    },
    {
      "constant": true,
      "inputs": [
        {
          "name": "uuid",
          "type": "bytes32"
        },
        {
          "name": "publicKey",
          "type": "bytes32[]"
        },
        {
          "name": "signature",
          "type": "bytes32[]"
        }
      ],
      "name": "submitProofRSA",
      "outputs": [],
      "payable": false,
      "stateMutability": "pure",
      "type": "function"
    },
    {
      "anonymous": false,
      "inputs": [
        {
          "indexed": true,
          "name": "uuid",
          "type": "bytes32"
        },
        {
          "indexed": false,
          "name": "validator",
          "type": "address"
        },
        {
          "indexed": false,
          "name": "timestamp",
          "type": "uint256"
        }
      ],
      "name": "MadeChallengeV1",
      "type": "event"
    },
    {
      "anonymous": false,
      "inputs": [
        {
          "indexed": true,
          "name": "uuid",
          "type": "bytes32"
        },
        {
          "indexed": false,
          "name": "signerAddr",
          "type": "address"
        },
        {
          "indexed": false,
          "name": "v",
          "type": "uint8"
        },
        {
          "indexed": false,
          "name": "h",
          "type": "bytes32"
        },
        {
          "indexed": false,
          "name": "r",
          "type": "bytes32"
        },
        {
          "indexed": false,
          "name": "s",
          "type": "bytes32"
        }
      ],
      "name": "GotProofV1",
      "type": "event"
    },
    {
      "anonymous": false,
      "inputs": [
        {
          "indexed": true,
          "name": "uuid",
          "type": "bytes32"
        },
        {
          "indexed": false,
          "name": "level",
          "type": "uint256"
        }
      ],
      "name": "GotSealV1",
      "type": "event"
    }
  ],
  "bytecode": "0x6060604052336000806101000a81548173ffffffffffffffffffffffffffffffffffffffff021916908373ffffffffffffffffffffffffffffffffffffffff1602179055506117e5806100536000396000f3006060604052600436106100ba576000357c0100000000000000000000000000000000000000000000000000000000900463ffffffff1680631d175aec146100bf578063458d2bf1146100ef57806357fec2ac1461015d5780636abd462f146101d657806371f54c3d1461024257806383197ef0146102bb57806384ee6d7a146102d0578063b5ae7db81461031d578063b8d2b1a1146103a6578063c57ee95514610416578063d653f73b1461043d578063f0e50a2e146104b3575b600080fd5b34156100ca57600080fd5b6100ed60048080356000191690602001909190803590602001909190505061055a565b005b34156100fa57600080fd5b6101146004808035600019169060200190919050506108bc565b604051808373ffffffffffffffffffffffffffffffffffffffff1673ffffffffffffffffffffffffffffffffffffffff1681526020018281526020019250505060405180910390f35b341561016857600080fd5b6101d460048080356000191690602001909190803573ffffffffffffffffffffffffffffffffffffffff1690602001909190803560ff169060200190919080356000191690602001909190803560001916906020019091908035600019169060200190919050506109ca565b005b34156101e157600080fd5b61022c600480803573ffffffffffffffffffffffffffffffffffffffff1690602001909190803573ffffffffffffffffffffffffffffffffffffffff16906020019091905050610c89565b6040518082815260200191505060405180910390f35b341561024d57600080fd5b6102b960048080356000191690602001909190803573ffffffffffffffffffffffffffffffffffffffff1690602001909190803560ff16906020019091908035600019169060200190919080356000191690602001909190803560001916906020019091905050610d13565b005b34156102c657600080fd5b6102ce610d29565b005b34156102db57600080fd5b610307600480803573ffffffffffffffffffffffffffffffffffffffff16906020019091905050610dbe565b6040518082815260200191505060405180910390f35b341561032857600080fd5b61035d600480803573ffffffffffffffffffffffffffffffffffffffff16906020019091908035906020019091905050610e0d565b604051808373ffffffffffffffffffffffffffffffffffffffff1673ffffffffffffffffffffffffffffffffffffffff1681526020018281526020019250505060405180910390f35b34156103b157600080fd5b6103fc600480803573ffffffffffffffffffffffffffffffffffffffff1690602001909190803573ffffffffffffffffffffffffffffffffffffffff16906020019091905050610f1c565b604051808215151515815260200191505060405180910390f35b341561042157600080fd5b61043b600480803560001916906020019091905050610fa9565b005b341561044857600080fd5b6104626004808035600019169060200190919050506111d3565b604051808373ffffffffffffffffffffffffffffffffffffffff1673ffffffffffffffffffffffffffffffffffffffff16815260200182600019166000191681526020019250505060405180910390f35b34156104be57600080fd5b61055860048080356000191690602001909190803590602001908201803590602001908080602002602001604051908101604052809392919081815260200183836020028082843782019150505050505091908035906020019082018035906020019080806020026020016040519081016040528093929190818152602001838360200280828437820191505050505050919050506113c6565b005b61056261164d565b6000600160008560001916600019168152602001908152602001600020606060405190810160405290816000820160009054906101000a900473ffffffffffffffffffffffffffffffffffffffff1673ffffffffffffffffffffffffffffffffffffffff1673ffffffffffffffffffffffffffffffffffffffff168152602001600182015481526020016002820160e060405190810160405290816000820154600019166000191681526020016001820160009054906101000a900460ff161515151581526020016001820160019054906101000a900460ff161515151581526020016001820160029054906101000a900460ff1660ff1660ff1681526020016002820154600019166000191681526020016003820154600019166000191681526020016004820160009054906101000a900473ffffffffffffffffffffffffffffffffffffffff1673ffffffffffffffffffffffffffffffffffffffff1673ffffffffffffffffffffffffffffffffffffffff16815250508152505091503373ffffffffffffffffffffffffffffffffffffffff16826000015173ffffffffffffffffffffffffffffffffffffffff1614151561071c57fe5b816040015160400151151561072d57fe5b60026000836040015160c0015173ffffffffffffffffffffffffffffffffffffffff1673ffffffffffffffffffffffffffffffffffffffff168152602001908152602001600020905060008160000160003373ffffffffffffffffffffffffffffffffffffffff1673ffffffffffffffffffffffffffffffffffffffff168152602001908152602001600020541415156107c357fe5b6000831115156107cf57fe5b828160000160003373ffffffffffffffffffffffffffffffffffffffff1673ffffffffffffffffffffffffffffffffffffffff1681526020019081526020016000208190555080600101805480600101828161082b919061168c565b9160005260206000209001600033909190916101000a81548173ffffffffffffffffffffffffffffffffffffffff021916908373ffffffffffffffffffffffffffffffffffffffff1602179055505083600019167f6e147a58cb8a9ecaf8cce3dc5acfb6e249617908afaa5a0a81914147c4f78b2b846040518082815260200191505060405180910390a250505050565b600080600060016000856000191660001916815260200190815260200160002060010154141515156108ea57fe5b600073ffffffffffffffffffffffffffffffffffffffff1660016000856000191660001916815260200190815260200160002060020160040160009054906101000a900473ffffffffffffffffffffffffffffffffffffffff1673ffffffffffffffffffffffffffffffffffffffff1614151561096357fe5b60016000846000191660001916815260200190815260200160002060000160009054906101000a900473ffffffffffffffffffffffffffffffffffffffff166001600085600019166000191681526020019081526020016000206001015491509150915091565b600060016000886000191660001916815260200190815260200160002060010154141515156109f557fe5b600073ffffffffffffffffffffffffffffffffffffffff1660016000886000191660001916815260200190815260200160002060020160040160009054906101000a900473ffffffffffffffffffffffffffffffffffffffff1673ffffffffffffffffffffffffffffffffffffffff16141515610a6e57fe5b610a7b858585858561140e565b1515610a8357fe5b85600019167fbebbc4e239a4431251e1cbbe02cc42535caa4f38d718cb3f9b3bd41793cb43078686868686604051808673ffffffffffffffffffffffffffffffffffffffff1673ffffffffffffffffffffffffffffffffffffffff1681526020018560ff1660ff1681526020018460001916600019168152602001836000191660001916815260200182600019166000191681526020019550505050505060405180910390a260e060405190810160405280846000191681526020016000151581526020016001151581526020018560ff16815260200183600019168152602001826000191681526020018673ffffffffffffffffffffffffffffffffffffffff168152506001600088600019166000191681526020019081526020016000206002016000820151816000019060001916905560208201518160010160006101000a81548160ff02191690831515021790555060408201518160010160016101000a81548160ff02191690831515021790555060608201518160010160026101000a81548160ff021916908360ff1602179055506080820151816002019060001916905560a0820151816003019060001916905560c08201518160040160006101000a81548173ffffffffffffffffffffffffffffffffffffffff021916908373ffffffffffffffffffffffffffffffffffffffff160217905550905050505050505050565b6000600260008473ffffffffffffffffffffffffffffffffffffffff1673ffffffffffffffffffffffffffffffffffffffff16815260200190815260200160002060000160008373ffffffffffffffffffffffffffffffffffffffff1673ffffffffffffffffffffffffffffffffffffffff16815260200190815260200160002054905092915050565b610d218686868686866109ca565b505050505050565b6000809054906101000a900473ffffffffffffffffffffffffffffffffffffffff1673ffffffffffffffffffffffffffffffffffffffff163373ffffffffffffffffffffffffffffffffffffffff16141515610d8457600080fd5b6000809054906101000a900473ffffffffffffffffffffffffffffffffffffffff1673ffffffffffffffffffffffffffffffffffffffff16ff5b6000600260008373ffffffffffffffffffffffffffffffffffffffff1673ffffffffffffffffffffffffffffffffffffffff168152602001908152602001600020600101805490509050919050565b6000806000600260008673ffffffffffffffffffffffffffffffffffffffff1673ffffffffffffffffffffffffffffffffffffffff16815260200190815260200160002060010184815481101515610e6157fe5b906000526020600020900160009054906101000a900473ffffffffffffffffffffffffffffffffffffffff16905080600260008773ffffffffffffffffffffffffffffffffffffffff1673ffffffffffffffffffffffffffffffffffffffff16815260200190815260200160002060000160008373ffffffffffffffffffffffffffffffffffffffff1673ffffffffffffffffffffffffffffffffffffffff1681526020019081526020016000205492509250509250929050565b600080600260008573ffffffffffffffffffffffffffffffffffffffff1673ffffffffffffffffffffffffffffffffffffffff16815260200190815260200160002060000160008473ffffffffffffffffffffffffffffffffffffffff1673ffffffffffffffffffffffffffffffffffffffff168152602001908152602001600020541415905092915050565b610fb16116b8565b600060016000846000191660001916815260200190815260200160002060010154141515610fdb57fe5b6060604051908101604052803373ffffffffffffffffffffffffffffffffffffffff1681526020014281526020018281525060016000846000191660001916815260200190815260200160002060008201518160000160006101000a81548173ffffffffffffffffffffffffffffffffffffffff021916908373ffffffffffffffffffffffffffffffffffffffff160217905550602082015181600101556040820151816002016000820151816000019060001916905560208201518160010160006101000a81548160ff02191690831515021790555060408201518160010160016101000a81548160ff02191690831515021790555060608201518160010160026101000a81548160ff021916908360ff1602179055506080820151816002019060001916905560a0820151816003019060001916905560c08201518160040160006101000a81548173ffffffffffffffffffffffffffffffffffffffff021916908373ffffffffffffffffffffffffffffffffffffffff160217905550505090505081600019167f1d06c7ddb27f03cc461f5d1b9369b5341e8c871369d168da04ff311bf9d1f1c13342604051808373ffffffffffffffffffffffffffffffffffffffff1673ffffffffffffffffffffffffffffffffffffffff1681526020018281526020019250505060405180910390a25050565b6000806111de61164d565b600160008560001916600019168152602001908152602001600020606060405190810160405290816000820160009054906101000a900473ffffffffffffffffffffffffffffffffffffffff1673ffffffffffffffffffffffffffffffffffffffff1673ffffffffffffffffffffffffffffffffffffffff168152602001600182015481526020016002820160e060405190810160405290816000820154600019166000191681526020016001820160009054906101000a900460ff161515151581526020016001820160019054906101000a900460ff161515151581526020016001820160029054906101000a900460ff1660ff1660ff1681526020016002820154600019166000191681526020016003820154600019166000191681526020016004820160009054906101000a900473ffffffffffffffffffffffffffffffffffffffff1673ffffffffffffffffffffffffffffffffffffffff1673ffffffffffffffffffffffffffffffffffffffff16815250508152505090503373ffffffffffffffffffffffffffffffffffffffff16816000015173ffffffffffffffffffffffffffffffffffffffff1614151561139957600080fd5b80604001516040015115156113aa57fe5b806040015160c001518160400151600001519250925050915091565b60006001028360001916141515156113dd57600080fd5b60008251141515156113ee57600080fd5b60008151141515156113ff57600080fd5b6000151561140957fe5b505050565b60008061141961171c565b60008873ffffffffffffffffffffffffffffffffffffffff166001888a8989604051600081526020016040526000604051602001526040518085600019166000191681526020018460ff1660ff16815260200183600019166000191681526020018260001916600019168152602001945050505050602060405160208103908084039060008661646e5a03f115156114b057600080fd5b50506020604051035173ffffffffffffffffffffffffffffffffffffffff1614925082151561163e576040805190810160405280601c81526020017f19457468657265756d205369676e6564204d6573736167653a0a333200000000815250915081876040518083805190602001908083835b6020831015156115485780518252602082019150602081019050602083039250611523565b6001836020036101000a038019825116818451168082178552505050505050905001826000191660001916815260200192505050604051809103902090508873ffffffffffffffffffffffffffffffffffffffff166001828a8989604051600081526020016040526000604051602001526040518085600019166000191681526020018460ff1660ff16815260200183600019166000191681526020018260001916600019168152602001945050505050602060405160208103908084039060008661646e5a03f1151561161b57600080fd5b50506020604051035173ffffffffffffffffffffffffffffffffffffffff161492505b82935050505095945050505050565b61012060405190810160405280600073ffffffffffffffffffffffffffffffffffffffff16815260200160008152602001611686611730565b81525090565b8154818355818115116116b3578183600052602060002091820191016116b29190611794565b5b505050565b60e06040519081016040528060008019168152602001600015158152602001600015158152602001600060ff1681526020016000801916815260200160008019168152602001600073ffffffffffffffffffffffffffffffffffffffff1681525090565b602060405190810160405280600081525090565b60e06040519081016040528060008019168152602001600015158152602001600015158152602001600060ff1681526020016000801916815260200160008019168152602001600073ffffffffffffffffffffffffffffffffffffffff1681525090565b6117b691905b808211156117b257600081600090555060010161179a565b5090565b905600a165627a7a7230582037c111cbbd94f6f9284199c7bf1505896a180bc3489da6dc28af9849cacbbd8d0029",
  "source": "pragma solidity ^0.4.15;\n\nimport './Destroyable.sol';\n\ncontract KeyProofs is Destroyable {\n\n    event MadeChallengeV1(bytes32 indexed uuid, address validator, uint timestamp);\n    event GotProofV1(bytes32 indexed uuid, address signerAddr, uint8 v, bytes32 h, bytes32 r, bytes32 s);\n    event GotSealV1(bytes32 indexed uuid, uint level);\n    \n    struct ChallengeV1 {\n        address validatorAddr;\n        uint timestamp; // can this be extracted from block on client-side?\n\n        ResponseV1 response;\n    }\n\n    struct ResponseV1 {\n        bytes32 hash;\n        \n        // These 2 are meant only to signal that hash verification is out-of-scope,\n        // and that we only verify if the signature itself corresponds to the\n        // responderAddr\n        bool hashVerified;  \n        bool signatureVerified; \n        // -------------\n\n        uint8 v;\n        bytes32 r;\n        bytes32 s;\n        address responderAddr;\n    }\n\n    mapping (bytes32 => ChallengeV1) challengesV1;\n\n    struct SealSetV1 {\n        mapping (address => uint) validatorToStorageLevel;\n        address[] registeredValidatorAddresses;\n    }\n    mapping (address => SealSetV1) sealsV1;\n\n    function getChallenge(bytes32 uuid) public constant returns(address validatorAddr, uint timestamp) {\n        assert(challengesV1[uuid].timestamp != 0); // challenge has been made\n        assert(challengesV1[uuid].response.responderAddr == address(0x0)); // but it has no response yet\n\n        return (challengesV1[uuid].validatorAddr, challengesV1[uuid].timestamp);\n    }\n\n    function isValidatedBy(address subject, address validator) public constant returns(bool) {\n        return sealsV1[subject].validatorToStorageLevel[validator] != 0;\n    }\n\n    function sealProof(bytes32 uuid, uint keyStorageLevel) public {\n        ChallengeV1 memory challenge = challengesV1[uuid];\n\n        assert(challenge.validatorAddr == msg.sender);\n        assert(challenge.response.signatureVerified);\n\n        SealSetV1 storage seals = sealsV1[challenge.response.responderAddr];\n\n        assert(seals.validatorToStorageLevel[msg.sender] == 0);\n        \n        assert(keyStorageLevel > 0);\n        seals.validatorToStorageLevel[msg.sender] = keyStorageLevel;\n        seals.registeredValidatorAddresses.push(msg.sender);\n\n        GotSealV1(uuid, keyStorageLevel);\n    }\n\n    function getSealCount(address addr) public constant returns(uint) {\n        return sealsV1[addr].registeredValidatorAddresses.length;\n    }\n\n    // This should be used to verify if validator has actually performed key verification\n    function getSealBy(address userAddr, address validatorAddr) public constant returns (uint) {\n        return sealsV1[userAddr].validatorToStorageLevel[validatorAddr];\n    }\n\n    function getSealAt(address addr, uint sealIx) public constant returns (address, uint) {\n        address validatorAddr = sealsV1[addr].registeredValidatorAddresses[sealIx];\n\n        return (validatorAddr, sealsV1[addr].validatorToStorageLevel[validatorAddr]);\n    }\n\n    function getSignerAndSignatureInput(bytes32 uuid) public constant returns(address, bytes32) {\n        ChallengeV1 memory challenge = challengesV1[uuid];\n\n        require(challenge.validatorAddr == msg.sender);\n        assert(challenge.response.signatureVerified);\n\n        return (challenge.response.responderAddr, challenge.response.hash);\n    }\n    \n    function requestProof(bytes32 uuid) public {\n        assert(challengesV1[uuid].timestamp == 0);\n\n        ResponseV1 memory emptyResponse;\n        challengesV1[uuid] = ChallengeV1(msg.sender, block.timestamp, emptyResponse);\n        MadeChallengeV1(uuid, msg.sender, block.timestamp);\n    }\n\n    function submitProofEC(bytes32 uuid, address signerAddr, uint8 v, bytes32 h, bytes32 r, bytes32 s) public\n    {\n        submitProof(uuid, signerAddr, v, h, r, s);\n    }\n\n    function submitProofRSA(bytes32 uuid, bytes32[] publicKey, bytes32[] signature) public pure\n    {\n        // Assert the param names to silence warnings about unused parameters\n        require(uuid != 0x0);\n        require(publicKey.length != 0);\n        require(signature.length != 0);\n\n        assert(false);\n    }\n\n    function submitProof(bytes32 uuid, address signerAddr, uint8 v, bytes32 h, bytes32 r, bytes32 s) public\n    {\n        assert(challengesV1[uuid].timestamp != 0); // challenge has been made\n        assert(challengesV1[uuid].response.responderAddr == address(0x0)); // but it has no response yet\n\n        assert(verify(signerAddr, v, h, r, s));\n        \n        GotProofV1(uuid, signerAddr, v, h, r, s);\n        challengesV1[uuid].response = ResponseV1(h, false, true, v, r, s, signerAddr);\n    }\n\n    function verify(address p, uint8 v, bytes32 hash, bytes32 r, bytes32 s) private pure returns(bool) {\n        \n        bool result = (ecrecover(hash, v, r, s) == p);\n\n        if (!result) {\n            // was signed via Geth eth_sign\n            // truffle tests sign using eth_sign of the backing node\n            // so without this, tests need to be able to detect testrpc / geth somehow\n            bytes memory prefix = \"\\x19Ethereum Signed Message:\\n32\";\n            bytes32 prefixedHash = keccak256(prefix, hash);\n            result = (ecrecover(prefixedHash, v, r, s) == p);\n        }\n\n        return result;\n    }\n }",
  "sourcePath": "/Users/ingemars/Projects/kyc-eth-contracts/contracts/KeyProofs.sol",
  "compiler": {
    "name": "solc",
    "version": "0.4.18+commit.9cf6e910.Emscripten.clang"
  },
  "schemaVersion": "1.0.1",
  "updatedAt": "2018-02-08T11:07:42.540Z"
}