{
  "contractName": "NotakeyVerifierV1",
  "abi": [
    {
      "constant": true,
      "inputs": [],
      "name": "REPORT_BUNDLE",
      "outputs": [
        {
          "name": "",
          "type": "uint256"
        }
      ],
      "payable": false,
      "stateMutability": "view",
      "type": "function"
    },
    {
      "constant": true,
      "inputs": [
        {
          "name": "subject",
          "type": "address"
        },
        {
          "name": "nationalityBlacklist",
          "type": "uint256"
        }
      ],
      "name": "isVerified",
      "outputs": [
        {
          "name": "",
          "type": "bool"
        }
      ],
      "payable": false,
      "stateMutability": "view",
      "type": "function"
    },
    {
      "constant": true,
      "inputs": [],
      "name": "USA",
      "outputs": [
        {
          "name": "",
          "type": "uint256"
        }
      ],
      "payable": false,
      "stateMutability": "view",
      "type": "function"
    },
    {
      "constant": true,
      "inputs": [],
      "name": "NATIONALITY_INDEX",
      "outputs": [
        {
          "name": "",
          "type": "uint256"
        }
      ],
      "payable": false,
      "stateMutability": "view",
      "type": "function"
    },
    {
      "constant": true,
      "inputs": [],
      "name": "ICO_CONTRIBUTOR_TYPE",
      "outputs": [
        {
          "name": "",
          "type": "uint256"
        }
      ],
      "payable": false,
      "stateMutability": "view",
      "type": "function"
    },
    {
      "constant": true,
      "inputs": [],
      "name": "claimRegistryAddr",
      "outputs": [
        {
          "name": "",
          "type": "address"
        }
      ],
      "payable": false,
      "stateMutability": "view",
      "type": "function"
    },
    {
      "constant": true,
      "inputs": [],
      "name": "trustedIssuerAddr",
      "outputs": [
        {
          "name": "",
          "type": "address"
        }
      ],
      "payable": false,
      "stateMutability": "view",
      "type": "function"
    },
    {
      "constant": true,
      "inputs": [],
      "name": "SOUTH_KOREA",
      "outputs": [
        {
          "name": "",
          "type": "uint256"
        }
      ],
      "payable": false,
      "stateMutability": "view",
      "type": "function"
    },
    {
      "constant": true,
      "inputs": [],
      "name": "CHINA",
      "outputs": [
        {
          "name": "",
          "type": "uint256"
        }
      ],
      "payable": false,
      "stateMutability": "view",
      "type": "function"
    },
    {
      "inputs": [
        {
          "name": "_trustedIssuerAddr",
          "type": "address"
        },
        {
          "name": "_claimRegistryAddr",
          "type": "address"
        }
      ],
      "payable": false,
      "stateMutability": "nonpayable",
      "type": "constructor"
    },
    {
      "anonymous": false,
      "inputs": [
        {
          "indexed": true,
          "name": "paymentAddress",
          "type": "address"
        }
      ],
      "name": "GotUnregisteredPaymentAddress",
      "type": "event"
    }
  ],
  "bytecode": "0x6060604052341561000f57600080fd5b604051604080610e9d83398101604052808051906020019091908051906020019091905050806000806101000a81548173ffffffffffffffffffffffffffffffffffffffff021916908373ffffffffffffffffffffffffffffffffffffffff16021790555081600160006101000a81548173ffffffffffffffffffffffffffffffffffffffff021916908373ffffffffffffffffffffffffffffffffffffffff1602179055505050610dd7806100c66000396000f300606060405260043610610099576000357c0100000000000000000000000000000000000000000000000000000000900463ffffffff1680630cfe47361461009e5780631a209776146100c757806322ff79d814610121578063279e8a951461014a5780633109e56014610173578063aaa77bc31461019c578063bae112fb146101f1578063d8fa426d14610246578063eaa98de81461026f575b600080fd5b34156100a957600080fd5b6100b1610298565b6040518082815260200191505060405180910390f35b34156100d257600080fd5b610107600480803573ffffffffffffffffffffffffffffffffffffffff1690602001909190803590602001909190505061029d565b604051808215151515815260200191505060405180910390f35b341561012c57600080fd5b6101346102d7565b6040518082815260200191505060405180910390f35b341561015557600080fd5b61015d6102f9565b6040518082815260200191505060405180910390f35b341561017e57600080fd5b6101866102fe565b6040518082815260200191505060405180910390f35b34156101a757600080fd5b6101af610303565b604051808273ffffffffffffffffffffffffffffffffffffffff1673ffffffffffffffffffffffffffffffffffffffff16815260200191505060405180910390f35b34156101fc57600080fd5b610204610328565b604051808273ffffffffffffffffffffffffffffffffffffffff1673ffffffffffffffffffffffffffffffffffffffff16815260200191505060405180910390f35b341561025157600080fd5b61025961034e565b6040518082815260200191505060405180910390f35b341561027a57600080fd5b610282610361565b6040518082815260200191505060405180910390f35b600681565b600082826102aa8261036b565b15156102b557600080fd5b6102bf8282610905565b1515156102cb57600080fd5b60019250505092915050565b7d80000000000000000000000000000000000000000000000000000000000081565b600781565b600681565b6000809054906101000a900473ffffffffffffffffffffffffffffffffffffffff1681565b600160009054906101000a900473ffffffffffffffffffffffffffffffffffffffff1681565b6e10000000000000000000000000000081565b6508000000000081565b60008060008060008060008060008060008060006103888e610ca9565b9b5060009a50600099506000809054906101000a900473ffffffffffffffffffffffffffffffffffffffff169750600096505b8b8710156108e8578773ffffffffffffffffffffffffffffffffffffffff1663ad6eba9f8f896000604051602001526040518363ffffffff167c0100000000000000000000000000000000000000000000000000000000028152600401808373ffffffffffffffffffffffffffffffffffffffff1673ffffffffffffffffffffffffffffffffffffffff16815260200182815260200192505050602060405180830381600087803b151561046e57600080fd5b6102c65a03f1151561047f57600080fd5b5050506040518051905098508773ffffffffffffffffffffffffffffffffffffffff16631c8cba3b8a600660076000604051602001526040518463ffffffff167c0100000000000000000000000000000000000000000000000000000000028152600401808473ffffffffffffffffffffffffffffffffffffffff1673ffffffffffffffffffffffffffffffffffffffff1681526020018381526020018281526020019350505050602060405180830381600087803b151561054057600080fd5b6102c65a03f1151561055157600080fd5b505050604051805190509550600094505b858510156106b4578773ffffffffffffffffffffffffffffffffffffffff16636ec7743d8a60066007896000604051604001526040518563ffffffff167c0100000000000000000000000000000000000000000000000000000000028152600401808573ffffffffffffffffffffffffffffffffffffffff1673ffffffffffffffffffffffffffffffffffffffff1681526020018481526020018381526020018281526020019450505050506040805180830381600087803b151561062657600080fd5b6102c65a03f1151561063757600080fd5b50505060405180519060200180519050509350600160009054906101000a900473ffffffffffffffffffffffffffffffffffffffff1673ffffffffffffffffffffffffffffffffffffffff168473ffffffffffffffffffffffffffffffffffffffff1614156106a957600199506106b4565b846001019450610562565b8773ffffffffffffffffffffffffffffffffffffffff16631c8cba3b8a6006806000604051602001526040518463ffffffff167c0100000000000000000000000000000000000000000000000000000000028152600401808473ffffffffffffffffffffffffffffffffffffffff1673ffffffffffffffffffffffffffffffffffffffff1681526020018381526020018281526020019350505050602060405180830381600087803b151561076857600080fd5b6102c65a03f1151561077957600080fd5b505050604051805190509250600091505b828210156108db578773ffffffffffffffffffffffffffffffffffffffff16636ec7743d8a600680866000604051604001526040518563ffffffff167c0100000000000000000000000000000000000000000000000000000000028152600401808573ffffffffffffffffffffffffffffffffffffffff1673ffffffffffffffffffffffffffffffffffffffff1681526020018481526020018381526020018281526020019450505050506040805180830381600087803b151561084d57600080fd5b6102c65a03f1151561085e57600080fd5b50505060405180519060200180519050509050600160009054906101000a900473ffffffffffffffffffffffffffffffffffffffff1673ffffffffffffffffffffffffffffffffffffffff168173ffffffffffffffffffffffffffffffffffffffff1614156108d05760019a506108db565b81600101915061078a565b86806001019750506103bb565b8980156108f257508a5b9c50505050505050505050505050919050565b60008060008060008060008060008060008060009054906101000a900473ffffffffffffffffffffffffffffffffffffffff1699506109438d610ca9565b9850600094505b88851015610c94578973ffffffffffffffffffffffffffffffffffffffff1663ad6eba9f8e876000604051602001526040518363ffffffff167c0100000000000000000000000000000000000000000000000000000000028152600401808373ffffffffffffffffffffffffffffffffffffffff1673ffffffffffffffffffffffffffffffffffffffff16815260200182815260200192505050602060405180830381600087803b15156109fd57600080fd5b6102c65a03f11515610a0e57600080fd5b5050506040518051905095508973ffffffffffffffffffffffffffffffffffffffff16631c8cba3b87600660076000604051602001526040518463ffffffff167c0100000000000000000000000000000000000000000000000000000000028152600401808473ffffffffffffffffffffffffffffffffffffffff1673ffffffffffffffffffffffffffffffffffffffff1681526020018381526020018281526020019350505050602060405180830381600087803b1515610acf57600080fd5b6102c65a03f11515610ae057600080fd5b50505060405180519050965060009750600093505b86841015610c6b578973ffffffffffffffffffffffffffffffffffffffff16636ec7743d8760066007886000604051604001526040518563ffffffff167c0100000000000000000000000000000000000000000000000000000000028152600401808573ffffffffffffffffffffffffffffffffffffffff1673ffffffffffffffffffffffffffffffffffffffff1681526020018481526020018381526020018281526020019450505050506040805180830381600087803b1515610bb957600080fd5b6102c65a03f11515610bca57600080fd5b50505060405180519060200180519050925092506001820360020a9050600160009054906101000a900473ffffffffffffffffffffffffffffffffffffffff1673ffffffffffffffffffffffffffffffffffffffff168373ffffffffffffffffffffffffffffffffffffffff16141515610c4957600188019750610c60565b80818d831816141515610c5f5760019a50610c99565b5b836001019350610af5565b60008c1480610c7c57506000888803115b1515610c8757600080fd5b848060010195505061094a565b60009a505b5050505050505050505092915050565b60008060008060009054906101000a900473ffffffffffffffffffffffffffffffffffffffff1691508173ffffffffffffffffffffffffffffffffffffffff16633f266242856000604051602001526040518263ffffffff167c0100000000000000000000000000000000000000000000000000000000028152600401808273ffffffffffffffffffffffffffffffffffffffff1673ffffffffffffffffffffffffffffffffffffffff168152602001915050602060405180830381600087803b1515610d7557600080fd5b6102c65a03f11515610d8657600080fd5b505050604051805190509050600081111515610da157600080fd5b80925050509190505600a165627a7a723058202b5c68567f029944d7e1b0b5d21e8d631bf351fcc25439bc41d29c04db5f87970029",
  "source": "pragma solidity ^0.4.15;\n\nimport './ClaimRegistry.sol';\n\ncontract NotakeyVerifierV1 {\n\n    uint public constant ICO_CONTRIBUTOR_TYPE = 6;\n    uint public constant REPORT_BUNDLE = 6;\n    uint public constant NATIONALITY_INDEX = 7;\n\n    address public claimRegistryAddr;\n    address public trustedIssuerAddr;\n    // address private callerIdentitySubject;\n\n    uint public constant USA = 883423532389192164791648750371459257913741948437809479060803100646309888;                \n        // USA is 240nd; blacklist: 1 << (240-1)\n    uint public constant CHINA = 8796093022208;\n        // China is 44th; blacklist: 1 << (44-1)\n    uint public constant SOUTH_KOREA = 83076749736557242056487941267521536;\n        // SK is 117th; blacklist: 1 << (117-1)\n    \n     event GotUnregisteredPaymentAddress(address indexed paymentAddress);\n\n\n    function NotakeyVerifierV1(address _trustedIssuerAddr, address _claimRegistryAddr) public {\n        claimRegistryAddr = _claimRegistryAddr;\n        trustedIssuerAddr  = _trustedIssuerAddr;\n    }\n\n    modifier onlyVerifiedSenders(address paymentAddress, uint256 nationalityBlacklist) {\n        require(_hasIcoContributorType(paymentAddress));\n        require(!_preventedByNationalityBlacklist(paymentAddress, nationalityBlacklist));\n\n        _;\n    }\n    \n    function isVerified(address subject, uint256 nationalityBlacklist) public constant onlyVerifiedSenders(subject, nationalityBlacklist) returns (bool) {\n        return true;\n    }\n\n    function _preventedByNationalityBlacklist(address paymentAddress, uint256 nationalityBlacklist) internal constant returns (bool)\n    {\n        var claimRegistry = ClaimRegistry(claimRegistryAddr);\n\n        uint subjectCount = _lookupOwnerIdentityCount(paymentAddress);\n\n        uint256 ignoredClaims;\n        uint claimCount;\n        address subject;\n        \n        // Loop over all isued identities associated to this wallet adress and \n        // throw if any match to blacklist \n        for (uint subjectIndex = 0 ; subjectIndex < subjectCount ; subjectIndex++ ){\n            subject = claimRegistry.getSingleSubjectByAddress(paymentAddress, subjectIndex);\n            claimCount = claimRegistry.getSubjectClaimSetSize(subject, ICO_CONTRIBUTOR_TYPE, NATIONALITY_INDEX);\n            ignoredClaims = 0;\n\n            for (uint i = 0; i < claimCount; ++i) {\n                var (issuer, url) = claimRegistry.getSubjectClaimSetEntryAt(subject, ICO_CONTRIBUTOR_TYPE, NATIONALITY_INDEX, i);\n                var countryMask = 2**(url-1);\n\n                if (issuer != trustedIssuerAddr) {\n                    ignoredClaims += 1;\n                } else {\n                    if (((countryMask ^ nationalityBlacklist) & countryMask) != countryMask) {\n                        return true;\n                    } \n                }\n            }\n\n            // If the blacklist is empty (0), then that's fine; but if there is a blacklist,\n            // we must ensure there are nationalityIndex attributes to verify against\n            //\n            // Account for ignored claims (issued by unrecognized issuers)\n            require(nationalityBlacklist == 0 || (claimCount - ignoredClaims) > 0);\n        }\n\n        \n\n        return false;\n    }   \n\n    function _lookupOwnerIdentityCount(address paymentAddress) internal constant returns (uint){\n        var claimRegistry = ClaimRegistry(claimRegistryAddr);\n        var subjectCount = claimRegistry.getSubjectCountByAddress(paymentAddress);\n        \n        // The address is unregistered so we throw and log event\n        // This method and callers have to overriden as non-constant to emit events \n        // if ( subjectCount == 0 ) {\n            // GotUnregisteredPaymentAddress( paymentAddress );\n            // revert();\n        // }\n\n        require(subjectCount > 0);\n\n        return subjectCount;\n    }\n\n    function _hasIcoContributorType(address paymentAddress) internal constant returns (bool)\n    {\n        uint subjectCount = _lookupOwnerIdentityCount(paymentAddress);\n\n        var atLeastOneValidReport = false;\n        var atLeastOneValidNationality = false;\n        address subject;\n\n        var claimRegistry = ClaimRegistry(claimRegistryAddr);\n        \n        // Loop over all isued identities associated to this wallet address and \n        // exit loop any satisfy the business logic requirement  \n        for (uint subjectIndex = 0 ; subjectIndex < subjectCount ; subjectIndex++ ){\n            subject = claimRegistry.getSingleSubjectByAddress(paymentAddress, subjectIndex);\n\n            var nationalityCount = claimRegistry.getSubjectClaimSetSize(subject, ICO_CONTRIBUTOR_TYPE, NATIONALITY_INDEX);\n            for (uint nationalityIndex = 0; nationalityIndex < nationalityCount; ++nationalityIndex) {\n                var (nationalityIssuer,) = claimRegistry.getSubjectClaimSetEntryAt(subject, ICO_CONTRIBUTOR_TYPE, NATIONALITY_INDEX, nationalityIndex);\n                if (nationalityIssuer == trustedIssuerAddr) {\n                    atLeastOneValidNationality = true;\n                    break;\n                }\n            }\n\n            var reportCount = claimRegistry.getSubjectClaimSetSize(subject, ICO_CONTRIBUTOR_TYPE, REPORT_BUNDLE);\n            for (uint reportIndex = 0; reportIndex < reportCount; ++reportIndex) {\n                var (reportIssuer,) = claimRegistry.getSubjectClaimSetEntryAt(subject, ICO_CONTRIBUTOR_TYPE, REPORT_BUNDLE, reportIndex);\n                if (reportIssuer == trustedIssuerAddr) {\n                    atLeastOneValidReport = true;\n                    break;\n                }\n            }\n        }\n\n        return atLeastOneValidNationality && atLeastOneValidReport;\n    }   \n}",
  "sourcePath": "/Users/ingemars/Projects/kyc-eth-contracts/contracts/NotakeyVerifierV1.sol",
  "compiler": {
    "name": "solc",
    "version": "0.4.18+commit.9cf6e910.Emscripten.clang"
  },
  "schemaVersion": "1.0.1",
  "updatedAt": "2018-02-08T11:07:42.543Z"
}