{
  "contractName": "SecondPriceAuction",
  "abi": [
    {
      "constant": true,
      "inputs": [],
      "name": "ERA_PERIOD",
      "outputs": [
        {
          "name": "",
          "type": "uint256"
        }
      ],
      "payable": false,
      "stateMutability": "view",
      "type": "function"
    },
    {
      "constant": true,
      "inputs": [],
      "name": "isActive",
      "outputs": [
        {
          "name": "",
          "type": "bool"
        }
      ],
      "payable": false,
      "stateMutability": "view",
      "type": "function"
    },
    {
      "constant": true,
      "inputs": [
        {
          "name": "_value",
          "type": "uint256"
        }
      ],
      "name": "bonus",
      "outputs": [
        {
          "name": "extra",
          "type": "uint256"
        }
      ],
      "payable": false,
      "stateMutability": "view",
      "type": "function"
    },
    {
      "constant": true,
      "inputs": [],
      "name": "eraIndex",
      "outputs": [
        {
          "name": "",
          "type": "uint256"
        }
      ],
      "payable": false,
      "stateMutability": "view",
      "type": "function"
    },
    {
      "constant": true,
      "inputs": [],
      "name": "totalAccounted",
      "outputs": [
        {
          "name": "",
          "type": "uint256"
        }
      ],
      "payable": false,
      "stateMutability": "view",
      "type": "function"
    },
    {
      "constant": true,
      "inputs": [],
      "name": "verifier",
      "outputs": [
        {
          "name": "",
          "type": "address"
        }
      ],
      "payable": false,
      "stateMutability": "view",
      "type": "function"
    },
    {
      "constant": true,
      "inputs": [],
      "name": "endTime",
      "outputs": [
        {
          "name": "",
          "type": "uint256"
        }
      ],
      "payable": false,
      "stateMutability": "view",
      "type": "function"
    },
    {
      "constant": false,
      "inputs": [
        {
          "name": "_who",
          "type": "address"
        }
      ],
      "name": "finalise",
      "outputs": [],
      "payable": false,
      "stateMutability": "nonpayable",
      "type": "function"
    },
    {
      "constant": true,
      "inputs": [],
      "name": "DIVISOR",
      "outputs": [
        {
          "name": "",
          "type": "uint256"
        }
      ],
      "payable": false,
      "stateMutability": "view",
      "type": "function"
    },
    {
      "constant": true,
      "inputs": [
        {
          "name": "",
          "type": "address"
        }
      ],
      "name": "buyins",
      "outputs": [
        {
          "name": "accounted",
          "type": "uint128"
        },
        {
          "name": "received",
          "type": "uint128"
        }
      ],
      "payable": false,
      "stateMutability": "view",
      "type": "function"
    },
    {
      "constant": true,
      "inputs": [],
      "name": "BONUS_MIN_DURATION",
      "outputs": [
        {
          "name": "",
          "type": "uint256"
        }
      ],
      "payable": false,
      "stateMutability": "view",
      "type": "function"
    },
    {
      "constant": true,
      "inputs": [],
      "name": "DUST_LIMIT",
      "outputs": [
        {
          "name": "",
          "type": "uint256"
        }
      ],
      "payable": false,
      "stateMutability": "view",
      "type": "function"
    },
    {
      "constant": true,
      "inputs": [],
      "name": "calculateEndTime",
      "outputs": [
        {
          "name": "",
          "type": "uint256"
        }
      ],
      "payable": false,
      "stateMutability": "view",
      "type": "function"
    },
    {
      "constant": true,
      "inputs": [],
      "name": "totalFinalised",
      "outputs": [
        {
          "name": "",
          "type": "uint256"
        }
      ],
      "payable": false,
      "stateMutability": "view",
      "type": "function"
    },
    {
      "constant": true,
      "inputs": [],
      "name": "BONUS_LATCH",
      "outputs": [
        {
          "name": "",
          "type": "uint256"
        }
      ],
      "payable": false,
      "stateMutability": "view",
      "type": "function"
    },
    {
      "constant": true,
      "inputs": [],
      "name": "tokenContract",
      "outputs": [
        {
          "name": "",
          "type": "address"
        }
      ],
      "payable": false,
      "stateMutability": "view",
      "type": "function"
    },
    {
      "constant": true,
      "inputs": [],
      "name": "tokensAvailable",
      "outputs": [
        {
          "name": "tokens",
          "type": "uint256"
        }
      ],
      "payable": false,
      "stateMutability": "view",
      "type": "function"
    },
    {
      "constant": true,
      "inputs": [],
      "name": "treasury",
      "outputs": [
        {
          "name": "",
          "type": "address"
        }
      ],
      "payable": false,
      "stateMutability": "view",
      "type": "function"
    },
    {
      "constant": false,
      "inputs": [],
      "name": "buyin",
      "outputs": [],
      "payable": true,
      "stateMutability": "payable",
      "type": "function"
    },
    {
      "constant": true,
      "inputs": [],
      "name": "EURWEI",
      "outputs": [
        {
          "name": "",
          "type": "uint256"
        }
      ],
      "payable": false,
      "stateMutability": "view",
      "type": "function"
    },
    {
      "constant": true,
      "inputs": [],
      "name": "DEFAULT_AUCTION_LENGTH",
      "outputs": [
        {
          "name": "",
          "type": "uint256"
        }
      ],
      "payable": false,
      "stateMutability": "view",
      "type": "function"
    },
    {
      "constant": true,
      "inputs": [],
      "name": "beginTime",
      "outputs": [
        {
          "name": "",
          "type": "uint256"
        }
      ],
      "payable": false,
      "stateMutability": "view",
      "type": "function"
    },
    {
      "constant": true,
      "inputs": [],
      "name": "lastNewInterest",
      "outputs": [
        {
          "name": "",
          "type": "uint32"
        }
      ],
      "payable": false,
      "stateMutability": "view",
      "type": "function"
    },
    {
      "constant": true,
      "inputs": [],
      "name": "STATEMENT_HASH",
      "outputs": [
        {
          "name": "",
          "type": "bytes32"
        }
      ],
      "payable": false,
      "stateMutability": "view",
      "type": "function"
    },
    {
      "constant": true,
      "inputs": [],
      "name": "maxPurchase",
      "outputs": [
        {
          "name": "spend",
          "type": "uint256"
        }
      ],
      "payable": false,
      "stateMutability": "view",
      "type": "function"
    },
    {
      "constant": false,
      "inputs": [],
      "name": "drain",
      "outputs": [],
      "payable": false,
      "stateMutability": "nonpayable",
      "type": "function"
    },
    {
      "constant": true,
      "inputs": [],
      "name": "BONUS_MAX_DURATION",
      "outputs": [
        {
          "name": "",
          "type": "uint256"
        }
      ],
      "payable": false,
      "stateMutability": "view",
      "type": "function"
    },
    {
      "constant": true,
      "inputs": [],
      "name": "currentPrice",
      "outputs": [
        {
          "name": "weiPerIndivisibleTokenPart",
          "type": "uint256"
        }
      ],
      "payable": false,
      "stateMutability": "view",
      "type": "function"
    },
    {
      "constant": true,
      "inputs": [],
      "name": "totalReceived",
      "outputs": [
        {
          "name": "",
          "type": "uint256"
        }
      ],
      "payable": false,
      "stateMutability": "view",
      "type": "function"
    },
    {
      "constant": true,
      "inputs": [
        {
          "name": "_value",
          "type": "uint256"
        }
      ],
      "name": "theDeal",
      "outputs": [
        {
          "name": "accounted",
          "type": "uint256"
        },
        {
          "name": "refund",
          "type": "bool"
        },
        {
          "name": "price",
          "type": "uint256"
        }
      ],
      "payable": false,
      "stateMutability": "view",
      "type": "function"
    },
    {
      "constant": true,
      "inputs": [],
      "name": "endPrice",
      "outputs": [
        {
          "name": "",
          "type": "uint256"
        }
      ],
      "payable": false,
      "stateMutability": "view",
      "type": "function"
    },
    {
      "constant": true,
      "inputs": [],
      "name": "halted",
      "outputs": [
        {
          "name": "",
          "type": "bool"
        }
      ],
      "payable": false,
      "stateMutability": "view",
      "type": "function"
    },
    {
      "constant": false,
      "inputs": [
        {
          "name": "_who",
          "type": "address"
        },
        {
          "name": "_received",
          "type": "uint128"
        }
      ],
      "name": "inject",
      "outputs": [],
      "payable": false,
      "stateMutability": "nonpayable",
      "type": "function"
    },
    {
      "constant": true,
      "inputs": [],
      "name": "STATEMENT",
      "outputs": [
        {
          "name": "",
          "type": "string"
        }
      ],
      "payable": false,
      "stateMutability": "view",
      "type": "function"
    },
    {
      "constant": false,
      "inputs": [
        {
          "name": "_halted",
          "type": "bool"
        }
      ],
      "name": "setHalted",
      "outputs": [],
      "payable": false,
      "stateMutability": "nonpayable",
      "type": "function"
    },
    {
      "constant": true,
      "inputs": [],
      "name": "tokenCap",
      "outputs": [
        {
          "name": "",
          "type": "uint256"
        }
      ],
      "payable": false,
      "stateMutability": "view",
      "type": "function"
    },
    {
      "constant": true,
      "inputs": [],
      "name": "currentBonus",
      "outputs": [
        {
          "name": "",
          "type": "uint8"
        }
      ],
      "payable": false,
      "stateMutability": "view",
      "type": "function"
    },
    {
      "constant": true,
      "inputs": [],
      "name": "allFinalised",
      "outputs": [
        {
          "name": "",
          "type": "bool"
        }
      ],
      "payable": false,
      "stateMutability": "view",
      "type": "function"
    },
    {
      "constant": true,
      "inputs": [],
      "name": "admin",
      "outputs": [
        {
          "name": "",
          "type": "address"
        }
      ],
      "payable": false,
      "stateMutability": "view",
      "type": "function"
    },
    {
      "inputs": [
        {
          "name": "_notakeyClaimRegistry",
          "type": "address"
        },
        {
          "name": "_tokenContract",
          "type": "address"
        },
        {
          "name": "_treasury",
          "type": "address"
        },
        {
          "name": "_admin",
          "type": "address"
        },
        {
          "name": "_beginTime",
          "type": "uint256"
        },
        {
          "name": "_tokenCap",
          "type": "uint256"
        }
      ],
      "payable": false,
      "stateMutability": "nonpayable",
      "type": "constructor"
    },
    {
      "payable": true,
      "stateMutability": "payable",
      "type": "fallback"
    },
    {
      "anonymous": false,
      "inputs": [
        {
          "indexed": true,
          "name": "who",
          "type": "address"
        },
        {
          "indexed": false,
          "name": "accounted",
          "type": "uint256"
        },
        {
          "indexed": false,
          "name": "received",
          "type": "uint256"
        },
        {
          "indexed": false,
          "name": "price",
          "type": "uint256"
        }
      ],
      "name": "Buyin",
      "type": "event"
    },
    {
      "anonymous": false,
      "inputs": [
        {
          "indexed": true,
          "name": "who",
          "type": "address"
        },
        {
          "indexed": false,
          "name": "accounted",
          "type": "uint256"
        },
        {
          "indexed": false,
          "name": "received",
          "type": "uint256"
        }
      ],
      "name": "Injected",
      "type": "event"
    },
    {
      "anonymous": false,
      "inputs": [
        {
          "indexed": false,
          "name": "era",
          "type": "uint256"
        },
        {
          "indexed": false,
          "name": "received",
          "type": "uint256"
        },
        {
          "indexed": false,
          "name": "accounted",
          "type": "uint256"
        }
      ],
      "name": "Ticked",
      "type": "event"
    },
    {
      "anonymous": false,
      "inputs": [
        {
          "indexed": false,
          "name": "price",
          "type": "uint256"
        }
      ],
      "name": "Ended",
      "type": "event"
    },
    {
      "anonymous": false,
      "inputs": [
        {
          "indexed": true,
          "name": "who",
          "type": "address"
        },
        {
          "indexed": false,
          "name": "tokens",
          "type": "uint256"
        }
      ],
      "name": "Finalised",
      "type": "event"
    },
    {
      "anonymous": false,
      "inputs": [],
      "name": "Retired",
      "type": "event"
    }
  ],
  "bytecode": "0x6060604052600060015560006002556000600355600f600660016101000a81548160ff021916908360ff160217905550341561003a57600080fd5b60405160c08062002f9a83398101604052808051906020019091908051906020019091908051906020019091908051906020019091908051906020019091908051906020019091905050338661008e610236565b808373ffffffffffffffffffffffffffffffffffffffff1673ffffffffffffffffffffffffffffffffffffffff1681526020018273ffffffffffffffffffffffffffffffffffffffff1673ffffffffffffffffffffffffffffffffffffffff16815260200192505050604051809103906000f080151561010d57600080fd5b600760006101000a81548173ffffffffffffffffffffffffffffffffffffffff021916908373ffffffffffffffffffffffffffffffffffffffff160217905550846006806101000a81548173ffffffffffffffffffffffffffffffffffffffff021916908373ffffffffffffffffffffffffffffffffffffffff16021790555083600860006101000a81548173ffffffffffffffffffffffffffffffffffffffff021916908373ffffffffffffffffffffffffffffffffffffffff16021790555082600960006101000a81548173ffffffffffffffffffffffffffffffffffffffff021916908373ffffffffffffffffffffffffffffffffffffffff16021790555081600a8190555080600b819055506202a300600a5401600481905550505050505050610247565b604051610e9d80620020fd83390190565b611ea680620002576000396000f3006060604052600436106101e3576000357c0100000000000000000000000000000000000000000000000000000000900463ffffffff1680630f6d9f00146101ed57806322f3e2d41461021657806324749b591461024357806324fc253e1461027a5780632964e4e6146102a35780632b7ac3f3146102cc5780633197cbb614610321578063330c3fe51461034a5780633410fe6e146103835780633f8d9568146103ac578063409c7baf14610448578063421934731461047157806344af946f1461049a5780634ed767a1146104c35780634f0693a1146104ec57806355a373d61461051557806360659a921461056a57806361d027b31461059357806369766079146105e85780636ec05f13146105f25780637d97597d1461061b57806388149fb9146106445780638e550bd11461066d57806394c21ff3146106a2578063977b055b146106d35780639890220b146106fc5780639b0c1e51146107115780639d1b464a1461073a578063a3c2c46214610763578063b3c7d0971461078c578063b868723e146107d5578063b9b8af0b146107fe578063bac6068c1461082b578063bebc479c1461087f578063dcc279c81461090d578063dd54291b14610932578063eca73f641461095b578063f450d53a1461098a578063f851a440146109b7575b6101eb610a0c565b005b34156101f857600080fd5b6102006110f0565b6040518082815260200191505060405180910390f35b341561022157600080fd5b6102296110f6565b604051808215151515815260200191505060405180910390f35b341561024e57600080fd5b6102646004808035906020019091905050611110565b6040518082815260200191505060405180910390f35b341561028557600080fd5b61028d61114d565b6040518082815260200191505060405180910390f35b34156102ae57600080fd5b6102b6611153565b6040518082815260200191505060405180910390f35b34156102d757600080fd5b6102df611159565b604051808273ffffffffffffffffffffffffffffffffffffffff1673ffffffffffffffffffffffffffffffffffffffff16815260200191505060405180910390f35b341561032c57600080fd5b61033461117f565b6040518082815260200191505060405180910390f35b341561035557600080fd5b610381600480803573ffffffffffffffffffffffffffffffffffffffff16906020019091905050611185565b005b341561038e57600080fd5b61039661157e565b6040518082815260200191505060405180910390f35b34156103b757600080fd5b6103e3600480803573ffffffffffffffffffffffffffffffffffffffff16906020019091905050611584565b60405180836fffffffffffffffffffffffffffffffff166fffffffffffffffffffffffffffffffff168152602001826fffffffffffffffffffffffffffffffff166fffffffffffffffffffffffffffffffff1681526020019250505060405180910390f35b341561045357600080fd5b61045b6115e0565b6040518082815260200191505060405180910390f35b341561047c57600080fd5b6104846115e6565b6040518082815260200191505060405180910390f35b34156104a557600080fd5b6104ad6115f1565b6040518082815260200191505060405180910390f35b34156104ce57600080fd5b6104d661163c565b6040518082815260200191505060405180910390f35b34156104f757600080fd5b6104ff611642565b6040518082815260200191505060405180910390f35b341561052057600080fd5b610528611647565b604051808273ffffffffffffffffffffffffffffffffffffffff1673ffffffffffffffffffffffffffffffffffffffff16815260200191505060405180910390f35b341561057557600080fd5b61057d61166c565b6040518082815260200191505060405180910390f35b341561059e57600080fd5b6105a66116b9565b604051808273ffffffffffffffffffffffffffffffffffffffff1673ffffffffffffffffffffffffffffffffffffffff16815260200191505060405180910390f35b6105f0610a0c565b005b34156105fd57600080fd5b6106056116df565b6040518082815260200191505060405180910390f35b341561062657600080fd5b61062e6116ea565b6040518082815260200191505060405180910390f35b341561064f57600080fd5b6106576116f1565b6040518082815260200191505060405180910390f35b341561067857600080fd5b6106806116f7565b604051808263ffffffff1663ffffffff16815260200191505060405180910390f35b34156106ad57600080fd5b6106b561170d565b60405180826000191660001916815260200191505060405180910390f35b34156106de57600080fd5b6106e66117f5565b6040518082815260200191505060405180910390f35b341561070757600080fd5b61070f61181f565b005b341561071c57600080fd5b6107246118f6565b6040518082815260200191505060405180910390f35b341561074557600080fd5b61074d6118fc565b6040518082815260200191505060405180910390f35b341561076e57600080fd5b610776611956565b6040518082815260200191505060405180910390f35b341561079757600080fd5b6107ad600480803590602001909190505061195c565b6040518084815260200183151515158152602001828152602001935050505060405180910390f35b34156107e057600080fd5b6107e86119b9565b6040518082815260200191505060405180910390f35b341561080957600080fd5b6108116119bf565b604051808215151515815260200191505060405180910390f35b341561083657600080fd5b61087d600480803573ffffffffffffffffffffffffffffffffffffffff169060200190919080356fffffffffffffffffffffffffffffffff169060200190919050506119d2565b005b341561088a57600080fd5b610892611c95565b6040518080602001828103825283818151815260200191508051906020019080838360005b838110156108d25780820151818401526020810190506108b7565b50505050905090810190601f1680156108ff5780820380516001836020036101000a031916815260200191505b509250505060405180910390f35b341561091857600080fd5b61093060048080351515906020019091905050611d1b565b005b341561093d57600080fd5b610945611d94565b6040518082815260200191505060405180910390f35b341561096657600080fd5b61096e611d9a565b604051808260ff1660ff16815260200191505060405180910390f35b341561099557600080fd5b61099d611dad565b604051808215151515815260200191505060405180910390f35b34156109c257600080fd5b6109ca611dc9565b604051808273ffffffffffffffffffffffffffffffffffffffff1673ffffffffffffffffffffffffffffffffffffffff16815260200191505060405180910390f35b6000806000600660009054906101000a900460ff16151515610a2d57600080fd5b610a356110f6565b1515610a4057600080fd5b33600760009054906101000a900473ffffffffffffffffffffffffffffffffffffffff1673ffffffffffffffffffffffffffffffffffffffff16631a20977682600760009054906101000a900473ffffffffffffffffffffffffffffffffffffffff1673ffffffffffffffffffffffffffffffffffffffff1663d8fa426d6000604051602001526040518163ffffffff167c0100000000000000000000000000000000000000000000000000000000028152600401602060405180830381600087803b1515610b0e57600080fd5b6102c65a03f11515610b1f57600080fd5b50505060405180519050600760009054906101000a900473ffffffffffffffffffffffffffffffffffffffff1673ffffffffffffffffffffffffffffffffffffffff1663eaa98de86000604051602001526040518163ffffffff167c0100000000000000000000000000000000000000000000000000000000028152600401602060405180830381600087803b1515610bb757600080fd5b6102c65a03f11515610bc857600080fd5b50505060405180519050600760009054906101000a900473ffffffffffffffffffffffffffffffffffffffff1673ffffffffffffffffffffffffffffffffffffffff166322ff79d86000604051602001526040518163ffffffff167c0100000000000000000000000000000000000000000000000000000000028152600401602060405180830381600087803b1515610c6057600080fd5b6102c65a03f11515610c7157600080fd5b5050506040518051905017176000604051602001526040518363ffffffff167c0100000000000000000000000000000000000000000000000000000000028152600401808373ffffffffffffffffffffffffffffffffffffffff1673ffffffffffffffffffffffffffffffffffffffff16815260200182815260200192505050602060405180830381600087803b1515610d0a57600080fd5b6102c65a03f11515610d1b57600080fd5b505050604051805190508015610d365750610d3581611def565b5b8015610d4957506611c37937e080003410155b1515610d5457600080fd5b610d5c611e02565b6000600660019054906101000a900460ff1660ff161115610ea857610e10600a54014210158015610da85750436002600660029054906101000a900463ffffffff1663ffffffff160111155b15610de1576006600181819054906101000a900460ff16809291906001900391906101000a81548160ff021916908360ff160217905550505b61a8c0600a540142101515610e0d576000600660016101000a81548160ff021916908360ff1602179055505b60008060003373ffffffffffffffffffffffffffffffffffffffff1673ffffffffffffffffffffffffffffffffffffffff16815260200190815260200160002060000160109054906101000a90046fffffffffffffffffffffffffffffffff166fffffffffffffffffffffffffffffffff161415610ea75743600660026101000a81548163ffffffff021916908363ffffffff1602179055505b5b610eb13461195c565b80945081955082965050505082151515610eca57600080fd5b836000803373ffffffffffffffffffffffffffffffffffffffff1673ffffffffffffffffffffffffffffffffffffffff16815260200190815260200160002060000160008282829054906101000a90046fffffffffffffffffffffffffffffffff160192506101000a8154816fffffffffffffffffffffffffffffffff02191690836fffffffffffffffffffffffffffffffff160217905550346000803373ffffffffffffffffffffffffffffffffffffffff1673ffffffffffffffffffffffffffffffffffffffff16815260200190815260200160002060000160108282829054906101000a90046fffffffffffffffffffffffffffffffff160192506101000a8154816fffffffffffffffffffffffffffffffff02191690836fffffffffffffffffffffffffffffffff16021790555083600260008282540192505081905550346001600082825401925050819055506110246115f1565b6004819055503373ffffffffffffffffffffffffffffffffffffffff167f332ff6f9deafa8e3394664e234c5b6ecd51769ea7a7170a2bf25fa8687cf620e85348560405180848152602001838152602001828152602001935050505060405180910390a2600860009054906101000a900473ffffffffffffffffffffffffffffffffffffffff1673ffffffffffffffffffffffffffffffffffffffff166108fc349081150290604051600060405180830381858888f1935050505015156110ea57600080fd5b50505050565b61012c81565b6000600a54421015801561110b575060045442105b905090565b600061111a6110f6565b151561112557600080fd5b6064600660019054906101000a900460ff1660ff16830281151561114557fe5b049050919050565b600c5481565b60025481565b600760009054906101000a900473ffffffffffffffffffffffffffffffffffffffff1681565b60045481565b600080600660009054906101000a900460ff161515156111a457600080fd5b60045442101515156111b557600080fd5b8260008060008373ffffffffffffffffffffffffffffffffffffffff1673ffffffffffffffffffffffffffffffffffffffff16815260200190815260200160002060000160009054906101000a90046fffffffffffffffffffffffffffffffff166fffffffffffffffffffffffffffffffff161415151561123557600080fd5b6000600554141561129057600b5460025481151561124f57fe5b046005819055507f601095663bda08ac0f932087ef2eb08e42e4bcd1927f3a8d9500f6ad2c5aef906005546040518082815260200191505060405180910390a15b6000808573ffffffffffffffffffffffffffffffffffffffff1673ffffffffffffffffffffffffffffffffffffffff16815260200190815260200160002060000160009054906101000a90046fffffffffffffffffffffffffffffffff166fffffffffffffffffffffffffffffffff1692506005548381151561130f57fe5b049150826003600082825401925050819055506000808573ffffffffffffffffffffffffffffffffffffffff1673ffffffffffffffffffffffffffffffffffffffff168152602001908152602001600020600080820160006101000a8154906fffffffffffffffffffffffffffffffff02191690556000820160106101000a8154906fffffffffffffffffffffffffffffffff021916905550506006809054906101000a900473ffffffffffffffffffffffffffffffffffffffff1673ffffffffffffffffffffffffffffffffffffffff166323b872dd600860009054906101000a900473ffffffffffffffffffffffffffffffffffffffff1686856000604051602001526040518463ffffffff167c0100000000000000000000000000000000000000000000000000000000028152600401808473ffffffffffffffffffffffffffffffffffffffff1673ffffffffffffffffffffffffffffffffffffffff1681526020018373ffffffffffffffffffffffffffffffffffffffff1673ffffffffffffffffffffffffffffffffffffffff1681526020018281526020019350505050602060405180830381600087803b15156114cb57600080fd5b6102c65a03f115156114dc57600080fd5b5050506040518051905015156114f157600080fd5b8373ffffffffffffffffffffffffffffffffffffffff167fd8a5cca1cc817d045ce0d6e405348bae3f2558baca99f954815924542f8e5164836040518082815260200191505060405180910390a26002546003541415611578577fc15f68f0a72806ff3f8bf2435385a67c4c22413f1c7931ef7bcea718e6ffcf0360405160405180910390a15b50505050565b6103e881565b60006020528060005260406000206000915090508060000160009054906101000a90046fffffffffffffffffffffffffffffffff16908060000160109054906101000a90046fffffffffffffffffffffffffffffffff16905082565b610e1081565b6611c37937e0800081565b600080660542f62ee990006103e8600b5481151561160b57fe5b040290506000600a8281151561161d57fe5b04600254018261473b0281151561163057fe5b04600a54010391505090565b60035481565b600281565b6006809054906101000a900473ffffffffffffffffffffffffffffffffffffffff1681565b6000806116776110f6565b151561168257600080fd5b61168a6118fc565b60025481151561169657fe5b049050600b54811015156116ad57600091506116b5565b80600b540391505b5090565b600860009054906101000a900473ffffffffffffffffffffffffffffffffffffffff1681565b660542f62ee9900081565b6202a30081565b600a5481565b600660029054906101000a900463ffffffff1681565b608060405190810160405280604b81526020017f19457468657265756d205369676e6564204d6573736167653a0a3437506c656181526020017f73652074616b65206d7920457468657220616e642074727920746f206275696c81526020017f642049434f20506173732e0000000000000000000000000000000000000000008152506040518082805190602001908083835b6020831015156117c557805182526020820191506020810190506020830392506117a0565b6001836020036101000a038019825116818451168082178552505050505050905001915050604051809103902081565b60006117ff6110f6565b151561180a57600080fd5b6002546118156118fc565b600b540203905090565b600960009054906101000a900473ffffffffffffffffffffffffffffffffffffffff1673ffffffffffffffffffffffffffffffffffffffff163373ffffffffffffffffffffffffffffffffffffffff1614151561187b57600080fd5b600860009054906101000a900473ffffffffffffffffffffffffffffffffffffffff1673ffffffffffffffffffffffffffffffffffffffff166108fc3073ffffffffffffffffffffffffffffffffffffffff16319081150290604051600060405180830381858888f1935050505015156118f457600080fd5b565b61a8c081565b60006119066110f6565b151561191157600080fd5b6103e8600a660542f62ee9900081151561192757fe5b046000600a5442030161473b660542f62ee990000281151561194557fe5b040381151561195057fe5b04905090565b60015481565b60008060008060008061196d6110f6565b151561197857600080fd5b61198187611110565b925061198b6118fc565b9350828701955061199a61166c565b915083868115156119a757fe5b04905081811194505050509193909250565b60055481565b600660009054906101000a900460ff1681565b600080600960009054906101000a900473ffffffffffffffffffffffffffffffffffffffff1673ffffffffffffffffffffffffffffffffffffffff163373ffffffffffffffffffffffffffffffffffffffff16141515611a3157600080fd5b83611a3b81611def565b1515611a4657600080fd5b600a5442101515611a5657600080fd5b6064600660019054906101000a900460ff1660ff1685026fffffffffffffffffffffffffffffffff16811515611a8857fe5b0492508284019150816000808773ffffffffffffffffffffffffffffffffffffffff1673ffffffffffffffffffffffffffffffffffffffff16815260200190815260200160002060000160008282829054906101000a90046fffffffffffffffffffffffffffffffff160192506101000a8154816fffffffffffffffffffffffffffffffff02191690836fffffffffffffffffffffffffffffffff160217905550836000808773ffffffffffffffffffffffffffffffffffffffff1673ffffffffffffffffffffffffffffffffffffffff16815260200190815260200160002060000160108282829054906101000a90046fffffffffffffffffffffffffffffffff160192506101000a8154816fffffffffffffffffffffffffffffffff02191690836fffffffffffffffffffffffffffffffff160217905550816fffffffffffffffffffffffffffffffff16600260008282540192505081905550836fffffffffffffffffffffffffffffffff16600160008282540192505081905550611c0e6115f1565b6004819055508473ffffffffffffffffffffffffffffffffffffffff167f2ae7c31359dcbe79d8c73f09dfd8402987b1236967e2224d8d398f6f40f46dd7838660405180836fffffffffffffffffffffffffffffffff168152602001826fffffffffffffffffffffffffffffffff1681526020019250505060405180910390a25050505050565b608060405190810160405280604b81526020017f19457468657265756d205369676e6564204d6573736167653a0a3437506c656181526020017f73652074616b65206d7920457468657220616e642074727920746f206275696c81526020017f642049434f20506173732e00000000000000000000000000000000000000000081525081565b600960009054906101000a900473ffffffffffffffffffffffffffffffffffffffff1673ffffffffffffffffffffffffffffffffffffffff163373ffffffffffffffffffffffffffffffffffffffff16141515611d7757600080fd5b80600660006101000a81548160ff02191690831515021790555050565b600b5481565b600660019054906101000a900460ff1681565b60006004544210158015611dc45750600354600254145b905090565b600960009054906101000a900473ffffffffffffffffffffffffffffffffffffffff1681565b600080823b905060008114915050919050565b600061012c600a544203811515611e1557fe5b049050600c54811115611e70577f82fbbe47003f3ca8230f7ab30eeabd25f09023e15ca04dc5bd49ac1a11a223b9600c5460015460025460405180848152602001838152602001828152602001935050505060405180910390a15b80600c81905550505600a165627a7a72305820f40f93755114080a89a917c9473d3c95ae8a1e624173c8c7a93d70898da2df4500296060604052341561000f57600080fd5b604051604080610e9d83398101604052808051906020019091908051906020019091905050806000806101000a81548173ffffffffffffffffffffffffffffffffffffffff021916908373ffffffffffffffffffffffffffffffffffffffff16021790555081600160006101000a81548173ffffffffffffffffffffffffffffffffffffffff021916908373ffffffffffffffffffffffffffffffffffffffff1602179055505050610dd7806100c66000396000f300606060405260043610610099576000357c0100000000000000000000000000000000000000000000000000000000900463ffffffff1680630cfe47361461009e5780631a209776146100c757806322ff79d814610121578063279e8a951461014a5780633109e56014610173578063aaa77bc31461019c578063bae112fb146101f1578063d8fa426d14610246578063eaa98de81461026f575b600080fd5b34156100a957600080fd5b6100b1610298565b6040518082815260200191505060405180910390f35b34156100d257600080fd5b610107600480803573ffffffffffffffffffffffffffffffffffffffff1690602001909190803590602001909190505061029d565b604051808215151515815260200191505060405180910390f35b341561012c57600080fd5b6101346102d7565b6040518082815260200191505060405180910390f35b341561015557600080fd5b61015d6102f9565b6040518082815260200191505060405180910390f35b341561017e57600080fd5b6101866102fe565b6040518082815260200191505060405180910390f35b34156101a757600080fd5b6101af610303565b604051808273ffffffffffffffffffffffffffffffffffffffff1673ffffffffffffffffffffffffffffffffffffffff16815260200191505060405180910390f35b34156101fc57600080fd5b610204610328565b604051808273ffffffffffffffffffffffffffffffffffffffff1673ffffffffffffffffffffffffffffffffffffffff16815260200191505060405180910390f35b341561025157600080fd5b61025961034e565b6040518082815260200191505060405180910390f35b341561027a57600080fd5b610282610361565b6040518082815260200191505060405180910390f35b600681565b600082826102aa8261036b565b15156102b557600080fd5b6102bf8282610905565b1515156102cb57600080fd5b60019250505092915050565b7d80000000000000000000000000000000000000000000000000000000000081565b600781565b600681565b6000809054906101000a900473ffffffffffffffffffffffffffffffffffffffff1681565b600160009054906101000a900473ffffffffffffffffffffffffffffffffffffffff1681565b6e10000000000000000000000000000081565b6508000000000081565b60008060008060008060008060008060008060006103888e610ca9565b9b5060009a50600099506000809054906101000a900473ffffffffffffffffffffffffffffffffffffffff169750600096505b8b8710156108e8578773ffffffffffffffffffffffffffffffffffffffff1663ad6eba9f8f896000604051602001526040518363ffffffff167c0100000000000000000000000000000000000000000000000000000000028152600401808373ffffffffffffffffffffffffffffffffffffffff1673ffffffffffffffffffffffffffffffffffffffff16815260200182815260200192505050602060405180830381600087803b151561046e57600080fd5b6102c65a03f1151561047f57600080fd5b5050506040518051905098508773ffffffffffffffffffffffffffffffffffffffff16631c8cba3b8a600660076000604051602001526040518463ffffffff167c0100000000000000000000000000000000000000000000000000000000028152600401808473ffffffffffffffffffffffffffffffffffffffff1673ffffffffffffffffffffffffffffffffffffffff1681526020018381526020018281526020019350505050602060405180830381600087803b151561054057600080fd5b6102c65a03f1151561055157600080fd5b505050604051805190509550600094505b858510156106b4578773ffffffffffffffffffffffffffffffffffffffff16636ec7743d8a60066007896000604051604001526040518563ffffffff167c0100000000000000000000000000000000000000000000000000000000028152600401808573ffffffffffffffffffffffffffffffffffffffff1673ffffffffffffffffffffffffffffffffffffffff1681526020018481526020018381526020018281526020019450505050506040805180830381600087803b151561062657600080fd5b6102c65a03f1151561063757600080fd5b50505060405180519060200180519050509350600160009054906101000a900473ffffffffffffffffffffffffffffffffffffffff1673ffffffffffffffffffffffffffffffffffffffff168473ffffffffffffffffffffffffffffffffffffffff1614156106a957600199506106b4565b846001019450610562565b8773ffffffffffffffffffffffffffffffffffffffff16631c8cba3b8a6006806000604051602001526040518463ffffffff167c0100000000000000000000000000000000000000000000000000000000028152600401808473ffffffffffffffffffffffffffffffffffffffff1673ffffffffffffffffffffffffffffffffffffffff1681526020018381526020018281526020019350505050602060405180830381600087803b151561076857600080fd5b6102c65a03f1151561077957600080fd5b505050604051805190509250600091505b828210156108db578773ffffffffffffffffffffffffffffffffffffffff16636ec7743d8a600680866000604051604001526040518563ffffffff167c0100000000000000000000000000000000000000000000000000000000028152600401808573ffffffffffffffffffffffffffffffffffffffff1673ffffffffffffffffffffffffffffffffffffffff1681526020018481526020018381526020018281526020019450505050506040805180830381600087803b151561084d57600080fd5b6102c65a03f1151561085e57600080fd5b50505060405180519060200180519050509050600160009054906101000a900473ffffffffffffffffffffffffffffffffffffffff1673ffffffffffffffffffffffffffffffffffffffff168173ffffffffffffffffffffffffffffffffffffffff1614156108d05760019a506108db565b81600101915061078a565b86806001019750506103bb565b8980156108f257508a5b9c50505050505050505050505050919050565b60008060008060008060008060008060008060009054906101000a900473ffffffffffffffffffffffffffffffffffffffff1699506109438d610ca9565b9850600094505b88851015610c94578973ffffffffffffffffffffffffffffffffffffffff1663ad6eba9f8e876000604051602001526040518363ffffffff167c0100000000000000000000000000000000000000000000000000000000028152600401808373ffffffffffffffffffffffffffffffffffffffff1673ffffffffffffffffffffffffffffffffffffffff16815260200182815260200192505050602060405180830381600087803b15156109fd57600080fd5b6102c65a03f11515610a0e57600080fd5b5050506040518051905095508973ffffffffffffffffffffffffffffffffffffffff16631c8cba3b87600660076000604051602001526040518463ffffffff167c0100000000000000000000000000000000000000000000000000000000028152600401808473ffffffffffffffffffffffffffffffffffffffff1673ffffffffffffffffffffffffffffffffffffffff1681526020018381526020018281526020019350505050602060405180830381600087803b1515610acf57600080fd5b6102c65a03f11515610ae057600080fd5b50505060405180519050965060009750600093505b86841015610c6b578973ffffffffffffffffffffffffffffffffffffffff16636ec7743d8760066007886000604051604001526040518563ffffffff167c0100000000000000000000000000000000000000000000000000000000028152600401808573ffffffffffffffffffffffffffffffffffffffff1673ffffffffffffffffffffffffffffffffffffffff1681526020018481526020018381526020018281526020019450505050506040805180830381600087803b1515610bb957600080fd5b6102c65a03f11515610bca57600080fd5b50505060405180519060200180519050925092506001820360020a9050600160009054906101000a900473ffffffffffffffffffffffffffffffffffffffff1673ffffffffffffffffffffffffffffffffffffffff168373ffffffffffffffffffffffffffffffffffffffff16141515610c4957600188019750610c60565b80818d831816141515610c5f5760019a50610c99565b5b836001019350610af5565b60008c1480610c7c57506000888803115b1515610c8757600080fd5b848060010195505061094a565b60009a505b5050505050505050505092915050565b60008060008060009054906101000a900473ffffffffffffffffffffffffffffffffffffffff1691508173ffffffffffffffffffffffffffffffffffffffff16633f266242856000604051602001526040518263ffffffff167c0100000000000000000000000000000000000000000000000000000000028152600401808273ffffffffffffffffffffffffffffffffffffffff1673ffffffffffffffffffffffffffffffffffffffff168152602001915050602060405180830381600087803b1515610d7557600080fd5b6102c65a03f11515610d8657600080fd5b505050604051805190509050600081111515610da157600080fd5b80925050509190505600a165627a7a723058202b5c68567f029944d7e1b0b5d21e8d631bf351fcc25439bc41d29c04db5f87970029",
  "source": "//! Copyright Parity Technologies, 2017.\n//! (original version: https://github.com/paritytech/second-price-auction)\n//!\n//! Copyright Notakey Latvia SIA, 2017.\n//! Original version modified to verify contributors against Notakey \n//! KYC smart contract.\n//!\n//! Released under the Apache Licence 2.\n\npragma solidity ^0.4.17;\n\nimport './NotakeyVerifierV1.sol';\n\n/// Stripped down ERC20 standard token interface.\ncontract Token {\n  function transferFrom(address from, address to, uint256 value) public returns (bool);\n}\n\n/// Simple modified second price auction contract. Price starts high and monotonically decreases\n/// until all tokens are sold at the current price with currently received funds.\n/// The price curve has been chosen to resemble a logarithmic curve\n/// and produce a reasonable auction timeline.\ncontract SecondPriceAuction {\n\t// Events:\n\n\t/// Someone bought in at a particular max-price.\n\tevent Buyin(address indexed who, uint accounted, uint received, uint price);\n\n\t/// Admin injected a purchase.\n\tevent Injected(address indexed who, uint accounted, uint received);\n\n\t/// At least 5 minutes has passed since last Ticked event.\n\tevent Ticked(uint era, uint received, uint accounted);\n\n\t/// The sale just ended with the current price.\n\tevent Ended(uint price);\n\n\t/// Finalised the purchase for `who`, who has been given `tokens` tokens.\n\tevent Finalised(address indexed who, uint tokens);\n\n\t/// Auction is over. All accounts finalised.\n\tevent Retired();\n\n\t// Constructor:\n\n\t/// Simple constructor.\n\t/// Token cap should take be in smallest divisible units.\n\t/// \tNOTE: original SecondPriceAuction contract stipulates token cap must be given in whole tokens.\n\t///\t\tThis does not seem correct, as only whole token values are transferred via transferFrom (which - in our wallet's case -\n\t///     expects transfers in the smallest divisible amount)\n\tfunction SecondPriceAuction(\n\t\taddress _notakeyClaimRegistry,\n\t\taddress _tokenContract,\n\t\taddress _treasury,\n\t\taddress _admin,\n\t\tuint _beginTime,\n\t\tuint _tokenCap\n\t)\n\t\tpublic\n\t{\n\t\t// this contract must be created by the notakey claim issuer (sender)\n\t\tverifier = new NotakeyVerifierV1(msg.sender, _notakeyClaimRegistry);\n\n\t\ttokenContract = Token(_tokenContract);\n\t\ttreasury = _treasury;\n\t\tadmin = _admin;\n\t\tbeginTime = _beginTime;\n\t\ttokenCap = _tokenCap;\n\t\tendTime = beginTime + DEFAULT_AUCTION_LENGTH;\n\t}\n\n\tfunction() public payable { buyin(); }\n\n\t// Public interaction:\n\n\t/// Buyin function. Throws if the sale is not active and when refund would be needed.\n\tfunction buyin()\n\t\tpublic\n\t\tpayable\n\t\twhen_not_halted\n\t\twhen_active\n\t\tonly_eligible(msg.sender)\n\t{\n\t\tflushEra();\n\n\t\t// Flush bonus period:\n\t\tif (currentBonus > 0) {\n\t\t\t// Bonus is currently active...\n\t\t\tif (now >= beginTime + BONUS_MIN_DURATION\t\t\t\t// ...but outside the automatic bonus period\n\t\t\t\t&& lastNewInterest + BONUS_LATCH <= block.number\t// ...and had no new interest for some blocks\n\t\t\t) {\n\t\t\t\tcurrentBonus--;\n\t\t\t}\n\t\t\tif (now >= beginTime + BONUS_MAX_DURATION) {\n\t\t\t\tcurrentBonus = 0;\n\t\t\t}\n\t\t\tif (buyins[msg.sender].received == 0) {\t// We have new interest\n\t\t\t\tlastNewInterest = uint32(block.number);\n\t\t\t}\n\t\t}\n\n\t\tuint accounted;\n\t\tbool refund;\n\t\tuint price;\n\t\t(accounted, refund, price) = theDeal(msg.value);\n\n\t\t/// No refunds allowed.\n\t\trequire (!refund);\n\n\t\t// record the acceptance.\n\t\tbuyins[msg.sender].accounted += uint128(accounted);\n\t\tbuyins[msg.sender].received += uint128(msg.value);\n\t\ttotalAccounted += accounted;\n\t\ttotalReceived += msg.value;\n\t\tendTime = calculateEndTime();\n\t\tBuyin(msg.sender, accounted, msg.value, price);\n\n\t\t// send to treasury\n\t\ttreasury.transfer(msg.value);\n\t}\n\n\t/// Like buyin except no payment required and bonus automatically given.\n\tfunction inject(address _who, uint128 _received)\n\t\tpublic\n\t\tonly_admin\n\t\tonly_basic(_who)\n\t\tbefore_beginning\n\t{\n\t\tuint128 bonus = _received * uint128(currentBonus) / 100;\n\t\tuint128 accounted = _received + bonus;\n\n\t\tbuyins[_who].accounted += accounted;\n\t\tbuyins[_who].received += _received;\n\t\ttotalAccounted += accounted;\n\t\ttotalReceived += _received;\n\t\tendTime = calculateEndTime();\n\t\tInjected(_who, accounted, _received);\n\t}\n\n\t/// Mint tokens for a particular participant.\n\tfunction finalise(address _who)\n\t\tpublic\n\t\twhen_not_halted\n\t\twhen_ended\n\t\tonly_buyins(_who)\n\t{\n\t\t// end the auction if we're the first one to finalise.\n\t\tif (endPrice == 0) {\n\t\t\tendPrice = totalAccounted / tokenCap;\n\t\t\tEnded(endPrice);\n\t\t}\n\n\t\t// enact the purchase.\n\t\tuint total = buyins[_who].accounted;\n\t\tuint tokens = total / endPrice;\n\t\ttotalFinalised += total;\n\t\tdelete buyins[_who];\n\t\trequire (tokenContract.transferFrom(treasury, _who, tokens));\n\n\t\tFinalised(_who, tokens);\n\n\t\tif (totalFinalised == totalAccounted) {\n\t\t\tRetired();\n\t\t}\n\t}\n\n\t// Prviate utilities:\n\n\t/// Ensure the era tracker is prepared in case the current changed.\n\tfunction flushEra() private {\n\t\tuint currentEra = (now - beginTime) / ERA_PERIOD;\n\t\tif (currentEra > eraIndex) {\n\t\t\tTicked(eraIndex, totalReceived, totalAccounted);\n\t\t}\n\t\teraIndex = currentEra;\n\t}\n\n\t// Admin interaction:\n\n\t/// Emergency function to pause buy-in and finalisation.\n\tfunction setHalted(bool _halted) public only_admin { halted = _halted; }\n\n\t/// Emergency function to drain the contract of any funds.\n\tfunction drain() public only_admin { treasury.transfer(this.balance); }\n\n\t// Inspection:\n\n\t/**\n\t * The formula for the price over time.\n\t *\n\t * This is a hand-crafted formula (no named to the constants) in order to\n\t * provide the following requirements:\n\t *\n\t * - Simple reciprocal curve (of the form y = a + b / (x + c));\n\t * - Would be completely unreasonable to end in the first 48 hours;\n\t * - Would reach $65m effective cap in 4 weeks.\n\t *\n\t * The curve begins with an effective cap (EC) of over $30b, more ether\n\t * than is in existance. After 48 hours, the EC reduces to approx. $1b.\n\t * At just over 10 days, the EC has reduced to $200m, and half way through\n\t * the 19th day it has reduced to $100m.\n\t *\n\t * Here's the curve: https://www.desmos.com/calculator/k6iprxzcrg?embed\n\t */\n\n\t/// The current end time of the sale assuming that nobody else buys in.\n\tfunction calculateEndTime() public constant returns (uint) {\n\n\t\t/*\n\t\tWith a cap of 20000000000 (20 million tokens times DIVISOR), and EURWEI 1481, and a DIVISOR 1000,\n\t\tthis will produce a range of 2,11 days (0 eth) -> 0,56 days (at about ~7k+ ETH).\n\n\t\t(factor / 10) should be read as (factor * 0.1)\n\t\t*/\n\n\t\tvar factor = tokenCap / DIVISOR * EURWEI;\n\t\treturn beginTime + 18235 * factor / (totalAccounted + factor / 10) - 0;\n\t}\n\n\t/// The current price for a single indivisible part of a token. If a buyin happens now, this is\n\t/// the highest price per indivisible token part that the buyer will pay. This doesn't\n\t/// include the discount which may be available.\n\tfunction currentPrice() public constant when_active returns (uint weiPerIndivisibleTokenPart) {\n\t\treturn (EURWEI * 18235 / (now - beginTime + 0) - EURWEI / 10) / DIVISOR;\n\t}\n\n\t/// Returns the total indivisible token parts available for purchase right now.\n\tfunction tokensAvailable() public constant when_active returns (uint tokens) {\n\t\tuint _currentCap = totalAccounted / currentPrice();\n\t\tif (_currentCap >= tokenCap) {\n\t\t\treturn 0;\n\t\t}\n\t\treturn tokenCap - _currentCap;\n\t}\n\n\t/// The largest purchase than can be made at present, not including any\n\t/// discount.\n\tfunction maxPurchase() public constant when_active returns (uint spend) {\n\t\treturn tokenCap * currentPrice() - totalAccounted;\n\t}\n\n\t/// Get the number of `tokens` that would be given if the sender were to\n\t/// spend `_value` now. Also tell you what `refund` would be given, if any.\n\tfunction theDeal(uint _value)\n\t\tpublic\n\t\tconstant\n\t\twhen_active\n\t\treturns (uint accounted, bool refund, uint price)\n\t{\n\t\tuint _bonus = bonus(_value);\n\n\t\tprice = currentPrice();\n\t\taccounted = _value + _bonus;\n\n\t\tuint available = tokensAvailable();\n\t\tuint tokens = accounted / price;\n\t\trefund = (tokens > available);\n\t}\n\n\t/// Any applicable bonus to `_value`.\n\tfunction bonus(uint _value)\n\t\tpublic\n\t\tconstant\n\t\twhen_active\n\t\treturns (uint extra)\n\t{\n\t\treturn _value * uint(currentBonus) / 100;\n\t}\n\n\t/// True if the sale is ongoing.\n\tfunction isActive() public constant returns (bool) { return now >= beginTime && now < endTime; }\n\n\t/// True if all buyins have finalised.\n\tfunction allFinalised() public constant returns (bool) { return now >= endTime && totalAccounted == totalFinalised; }\n\n\t/// Returns true if the sender of this transaction is a basic account.\n\tfunction isBasicAccount(address _who) internal constant returns (bool) {\n\t\tuint senderCodeSize;\n\t\tassembly {\n\t\t\tsenderCodeSize := extcodesize(_who)\n\t\t}\n\t    return senderCodeSize == 0;\n\t}\n\n\t// Modifiers:\n\n\t/// Ensure the sale is ongoing.\n\tmodifier when_active { require (isActive()); _; }\n\n\t/// Ensure the sale has not begun.\n\tmodifier before_beginning { require (now < beginTime); _; }\n\n\t/// Ensure the sale is ended.\n\tmodifier when_ended { require (now >= endTime); _; }\n\n\t/// Ensure we're not halted.\n\tmodifier when_not_halted { require (!halted); _; }\n\n\t/// Ensure `_who` is a participant.\n\tmodifier only_buyins(address _who) { require (buyins[_who].accounted != 0); _; }\n\n\t/// Ensure sender is admin.\n\tmodifier only_admin { require (msg.sender == admin); _; }\n\n\t/// Ensure that the signature is valid, `who` is a certified, basic account,\n\t/// the gas price is sufficiently low and the value is sufficiently high.\n\tmodifier only_eligible(address who) {\n\t\trequire (\n\t\t\tverifier.isVerified(who, verifier.USA() | verifier.CHINA() | verifier.SOUTH_KOREA()) &&\n\t\t\tisBasicAccount(who) &&\n\t\t\tmsg.value >= DUST_LIMIT\n\t\t);\n\t\t_;\n\t}\n\n\t/// Ensure sender is not a contract.\n\tmodifier only_basic(address who) { require (isBasicAccount(who)); _; }\n\n\t// State:\n\n\tstruct Account {\n\t\tuint128 accounted;\t// including bonus & hit\n\t\tuint128 received;\t// just the amount received, without bonus & hit\n\t}\n\n\t/// Those who have bought in to the auction.\n\tmapping (address => Account) public buyins;\n\n\t/// Total amount of ether received, excluding phantom \"bonus\" ether.\n\tuint public totalReceived = 0;\n\n\t/// Total amount of ether accounted for, including phantom \"bonus\" ether.\n\tuint public totalAccounted = 0;\n\n\t/// Total amount of ether which has been finalised.\n\tuint public totalFinalised = 0;\n\n\t/// The current end time. Gets updated when new funds are received.\n\tuint public endTime;\n\n\t/// The price per token; only valid once the sale has ended and at least one\n\t/// participant has finalised.\n\tuint public endPrice;\n\n\t/// Must be false for any public function to be called.\n\tbool public halted;\n\n\t/// The current percentage of bonus that purchasers get.\n\tuint8 public currentBonus = 15;\n\n\t/// The last block that had a new participant.\n\tuint32 public lastNewInterest;\n\n\t// Constants after constructor:\n\n\t/// The tokens contract.\n\tToken public tokenContract;\n\n\t/// The Notakey verifier contract.\n\tNotakeyVerifierV1 public verifier;\n\n\t/// The treasury address; where all the Ether goes.\n\taddress public treasury;\n\n\t/// The admin address; auction can be paused or halted at any time by this.\n\taddress public admin;\n\n\t/// The time at which the sale begins.\n\tuint public beginTime;\n\n\t/// Maximum amount of tokens to mint. Once totalAccounted / currentPrice is\n\t/// greater than this, the sale ends.\n\tuint public tokenCap;\n\n\t// Era stuff (isolated)\n\t/// The era for which the current consolidated data represents.\n\tuint public eraIndex;\n\n\t/// The size of the era in seconds.\n\tuint constant public ERA_PERIOD = 5 minutes;\n\n\t// Static constants:\n\n\t/// Anything less than this is considered dust and cannot be used to buy in.\n\tuint constant public DUST_LIMIT = 5 finney;\n\n\t/// The hash of the statement which must be signed in order to buyin.\n\tbytes32 constant public STATEMENT_HASH = keccak256(STATEMENT);\n\n\t/// The statement which should be signed.\n\tstring constant public STATEMENT = \"\\x19Ethereum Signed Message:\\n47Please take my Ether and try to build ICO Pass.\";\n\n\t//# Statement to actually sign.\n\t//# ```js\n\t//# statement = function() { this.STATEMENT().map(s => s.substr(28)) }\n\t//# ```\n\n\t/// Minimum duration after sale begins that bonus is active.\n\tuint constant public BONUS_MIN_DURATION = 1 hours;\n\n\t/// Minimum duration after sale begins that bonus is active.\n\tuint constant public BONUS_MAX_DURATION = 12 hours;\n\n\t/// Number of consecutive blocks where there must be no new interest before bonus ends.\n\tuint constant public BONUS_LATCH = 2;\n\n\t/// Number of Wei in one EUR, constant.\n\tuint constant public EURWEI = 1481 szabo;\n\n\t/// Initial auction length\n\tuint constant public DEFAULT_AUCTION_LENGTH = 2 days;\n\n\t/// Divisor of the token.\n\tuint constant public DIVISOR = 1000;\n}\n",
  "sourcePath": "/Users/ingemars/Projects/kyc-eth-contracts/contracts/SecondPriceAuction.sol",
  "compiler": {
    "name": "solc",
    "version": "0.4.18+commit.9cf6e910.Emscripten.clang"
  },
  "schemaVersion": "1.0.1",
  "updatedAt": "2018-02-08T11:07:42.545Z"
}