{
  "contractName": "TestVerifier",
  "abi": [
    {
      "constant": true,
      "inputs": [],
      "name": "REPORT_BUNDLE",
      "outputs": [
        {
          "name": "",
          "type": "uint256"
        }
      ],
      "payable": false,
      "stateMutability": "view",
      "type": "function"
    },
    {
      "constant": true,
      "inputs": [
        {
          "name": "subject",
          "type": "address"
        },
        {
          "name": "nationalityBlacklist",
          "type": "uint256"
        }
      ],
      "name": "test_preventedByNationalityBlacklist",
      "outputs": [
        {
          "name": "",
          "type": "bool"
        }
      ],
      "payable": false,
      "stateMutability": "view",
      "type": "function"
    },
    {
      "constant": true,
      "inputs": [
        {
          "name": "subject",
          "type": "address"
        },
        {
          "name": "nationalityBlacklist",
          "type": "uint256"
        }
      ],
      "name": "isVerified",
      "outputs": [
        {
          "name": "",
          "type": "bool"
        }
      ],
      "payable": false,
      "stateMutability": "view",
      "type": "function"
    },
    {
      "constant": true,
      "inputs": [],
      "name": "USA",
      "outputs": [
        {
          "name": "",
          "type": "uint256"
        }
      ],
      "payable": false,
      "stateMutability": "view",
      "type": "function"
    },
    {
      "constant": true,
      "inputs": [],
      "name": "NATIONALITY_INDEX",
      "outputs": [
        {
          "name": "",
          "type": "uint256"
        }
      ],
      "payable": false,
      "stateMutability": "view",
      "type": "function"
    },
    {
      "constant": true,
      "inputs": [],
      "name": "ICO_CONTRIBUTOR_TYPE",
      "outputs": [
        {
          "name": "",
          "type": "uint256"
        }
      ],
      "payable": false,
      "stateMutability": "view",
      "type": "function"
    },
    {
      "constant": true,
      "inputs": [
        {
          "name": "nationBlacklist",
          "type": "uint256"
        }
      ],
      "name": "vipFunction",
      "outputs": [],
      "payable": false,
      "stateMutability": "view",
      "type": "function"
    },
    {
      "constant": true,
      "inputs": [],
      "name": "claimRegistryAddr",
      "outputs": [
        {
          "name": "",
          "type": "address"
        }
      ],
      "payable": false,
      "stateMutability": "view",
      "type": "function"
    },
    {
      "constant": true,
      "inputs": [
        {
          "name": "subject",
          "type": "address"
        }
      ],
      "name": "test_hasIcoContributorType",
      "outputs": [
        {
          "name": "",
          "type": "bool"
        }
      ],
      "payable": false,
      "stateMutability": "view",
      "type": "function"
    },
    {
      "constant": true,
      "inputs": [],
      "name": "trustedIssuerAddr",
      "outputs": [
        {
          "name": "",
          "type": "address"
        }
      ],
      "payable": false,
      "stateMutability": "view",
      "type": "function"
    },
    {
      "constant": true,
      "inputs": [],
      "name": "SOUTH_KOREA",
      "outputs": [
        {
          "name": "",
          "type": "uint256"
        }
      ],
      "payable": false,
      "stateMutability": "view",
      "type": "function"
    },
    {
      "constant": true,
      "inputs": [],
      "name": "CHINA",
      "outputs": [
        {
          "name": "",
          "type": "uint256"
        }
      ],
      "payable": false,
      "stateMutability": "view",
      "type": "function"
    },
    {
      "inputs": [
        {
          "name": "trustedIssuer",
          "type": "address"
        },
        {
          "name": "_claimRegistry",
          "type": "address"
        }
      ],
      "payable": false,
      "stateMutability": "nonpayable",
      "type": "constructor"
    },
    {
      "anonymous": false,
      "inputs": [
        {
          "indexed": true,
          "name": "paymentAddress",
          "type": "address"
        }
      ],
      "name": "GotUnregisteredPaymentAddress",
      "type": "event"
    }
  ],
  "bytecode": "0x6060604052341561000f57600080fd5b604051604080610fe7833981016040528080519060200190919080519060200190919050508181806000806101000a81548173ffffffffffffffffffffffffffffffffffffffff021916908373ffffffffffffffffffffffffffffffffffffffff16021790555081600160006101000a81548173ffffffffffffffffffffffffffffffffffffffff021916908373ffffffffffffffffffffffffffffffffffffffff16021790555050505050610f1d806100ca6000396000f3006060604052600436106100ba576000357c0100000000000000000000000000000000000000000000000000000000900463ffffffff1680630cfe4736146100bf578063132b48f1146100e85780631a2097761461014257806322ff79d81461019c578063279e8a95146101c55780633109e560146101ee5780633cf18adc14610217578063aaa77bc31461023a578063ad74abc91461028f578063bae112fb146102e0578063d8fa426d14610335578063eaa98de81461035e575b600080fd5b34156100ca57600080fd5b6100d2610387565b6040518082815260200191505060405180910390f35b34156100f357600080fd5b610128600480803573ffffffffffffffffffffffffffffffffffffffff1690602001909190803590602001909190505061038c565b604051808215151515815260200191505060405180910390f35b341561014d57600080fd5b610182600480803573ffffffffffffffffffffffffffffffffffffffff169060200190919080359060200190919050506103a0565b604051808215151515815260200191505060405180910390f35b34156101a757600080fd5b6101af6103da565b6040518082815260200191505060405180910390f35b34156101d057600080fd5b6101d86103fc565b6040518082815260200191505060405180910390f35b34156101f957600080fd5b610201610401565b6040518082815260200191505060405180910390f35b341561022257600080fd5b6102386004808035906020019091905050610406565b005b341561024557600080fd5b61024d610437565b604051808273ffffffffffffffffffffffffffffffffffffffff1673ffffffffffffffffffffffffffffffffffffffff16815260200191505060405180910390f35b341561029a57600080fd5b6102c6600480803573ffffffffffffffffffffffffffffffffffffffff1690602001909190505061045c565b604051808215151515815260200191505060405180910390f35b34156102eb57600080fd5b6102f361046e565b604051808273ffffffffffffffffffffffffffffffffffffffff1673ffffffffffffffffffffffffffffffffffffffff16815260200191505060405180910390f35b341561034057600080fd5b610348610494565b6040518082815260200191505060405180910390f35b341561036957600080fd5b6103716104a7565b6040518082815260200191505060405180910390f35b600681565b600061039883836104b1565b905092915050565b600082826103ad82610855565b15156103b857600080fd5b6103c282826104b1565b1515156103ce57600080fd5b60019250505092915050565b7d80000000000000000000000000000000000000000000000000000000000081565b600781565b600681565b338161041182610855565b151561041c57600080fd5b61042682826104b1565b15151561043257600080fd5b505050565b6000809054906101000a900473ffffffffffffffffffffffffffffffffffffffff1681565b600061046782610855565b9050919050565b600160009054906101000a900473ffffffffffffffffffffffffffffffffffffffff1681565b6e10000000000000000000000000000081565b6508000000000081565b60008060008060008060008060008060008060009054906101000a900473ffffffffffffffffffffffffffffffffffffffff1699506104ef8d610def565b9850600094505b88851015610840578973ffffffffffffffffffffffffffffffffffffffff1663ad6eba9f8e876000604051602001526040518363ffffffff167c0100000000000000000000000000000000000000000000000000000000028152600401808373ffffffffffffffffffffffffffffffffffffffff1673ffffffffffffffffffffffffffffffffffffffff16815260200182815260200192505050602060405180830381600087803b15156105a957600080fd5b6102c65a03f115156105ba57600080fd5b5050506040518051905095508973ffffffffffffffffffffffffffffffffffffffff16631c8cba3b87600660076000604051602001526040518463ffffffff167c0100000000000000000000000000000000000000000000000000000000028152600401808473ffffffffffffffffffffffffffffffffffffffff1673ffffffffffffffffffffffffffffffffffffffff1681526020018381526020018281526020019350505050602060405180830381600087803b151561067b57600080fd5b6102c65a03f1151561068c57600080fd5b50505060405180519050965060009750600093505b86841015610817578973ffffffffffffffffffffffffffffffffffffffff16636ec7743d8760066007886000604051604001526040518563ffffffff167c0100000000000000000000000000000000000000000000000000000000028152600401808573ffffffffffffffffffffffffffffffffffffffff1673ffffffffffffffffffffffffffffffffffffffff1681526020018481526020018381526020018281526020019450505050506040805180830381600087803b151561076557600080fd5b6102c65a03f1151561077657600080fd5b50505060405180519060200180519050925092506001820360020a9050600160009054906101000a900473ffffffffffffffffffffffffffffffffffffffff1673ffffffffffffffffffffffffffffffffffffffff168373ffffffffffffffffffffffffffffffffffffffff161415156107f55760018801975061080c565b80818d83181614151561080b5760019a50610845565b5b8360010193506106a1565b60008c148061082857506000888803115b151561083357600080fd5b84806001019550506104f6565b60009a505b5050505050505050505092915050565b60008060008060008060008060008060008060006108728e610def565b9b5060009a50600099506000809054906101000a900473ffffffffffffffffffffffffffffffffffffffff169750600096505b8b871015610dd2578773ffffffffffffffffffffffffffffffffffffffff1663ad6eba9f8f896000604051602001526040518363ffffffff167c0100000000000000000000000000000000000000000000000000000000028152600401808373ffffffffffffffffffffffffffffffffffffffff1673ffffffffffffffffffffffffffffffffffffffff16815260200182815260200192505050602060405180830381600087803b151561095857600080fd5b6102c65a03f1151561096957600080fd5b5050506040518051905098508773ffffffffffffffffffffffffffffffffffffffff16631c8cba3b8a600660076000604051602001526040518463ffffffff167c0100000000000000000000000000000000000000000000000000000000028152600401808473ffffffffffffffffffffffffffffffffffffffff1673ffffffffffffffffffffffffffffffffffffffff1681526020018381526020018281526020019350505050602060405180830381600087803b1515610a2a57600080fd5b6102c65a03f11515610a3b57600080fd5b505050604051805190509550600094505b85851015610b9e578773ffffffffffffffffffffffffffffffffffffffff16636ec7743d8a60066007896000604051604001526040518563ffffffff167c0100000000000000000000000000000000000000000000000000000000028152600401808573ffffffffffffffffffffffffffffffffffffffff1673ffffffffffffffffffffffffffffffffffffffff1681526020018481526020018381526020018281526020019450505050506040805180830381600087803b1515610b1057600080fd5b6102c65a03f11515610b2157600080fd5b50505060405180519060200180519050509350600160009054906101000a900473ffffffffffffffffffffffffffffffffffffffff1673ffffffffffffffffffffffffffffffffffffffff168473ffffffffffffffffffffffffffffffffffffffff161415610b935760019950610b9e565b846001019450610a4c565b8773ffffffffffffffffffffffffffffffffffffffff16631c8cba3b8a6006806000604051602001526040518463ffffffff167c0100000000000000000000000000000000000000000000000000000000028152600401808473ffffffffffffffffffffffffffffffffffffffff1673ffffffffffffffffffffffffffffffffffffffff1681526020018381526020018281526020019350505050602060405180830381600087803b1515610c5257600080fd5b6102c65a03f11515610c6357600080fd5b505050604051805190509250600091505b82821015610dc5578773ffffffffffffffffffffffffffffffffffffffff16636ec7743d8a600680866000604051604001526040518563ffffffff167c0100000000000000000000000000000000000000000000000000000000028152600401808573ffffffffffffffffffffffffffffffffffffffff1673ffffffffffffffffffffffffffffffffffffffff1681526020018481526020018381526020018281526020019450505050506040805180830381600087803b1515610d3757600080fd5b6102c65a03f11515610d4857600080fd5b50505060405180519060200180519050509050600160009054906101000a900473ffffffffffffffffffffffffffffffffffffffff1673ffffffffffffffffffffffffffffffffffffffff168173ffffffffffffffffffffffffffffffffffffffff161415610dba5760019a50610dc5565b816001019150610c74565b86806001019750506108a5565b898015610ddc57508a5b9c50505050505050505050505050919050565b60008060008060009054906101000a900473ffffffffffffffffffffffffffffffffffffffff1691508173ffffffffffffffffffffffffffffffffffffffff16633f266242856000604051602001526040518263ffffffff167c0100000000000000000000000000000000000000000000000000000000028152600401808273ffffffffffffffffffffffffffffffffffffffff1673ffffffffffffffffffffffffffffffffffffffff168152602001915050602060405180830381600087803b1515610ebb57600080fd5b6102c65a03f11515610ecc57600080fd5b505050604051805190509050600081111515610ee757600080fd5b80925050509190505600a165627a7a72305820d74998e34e18375823a8f09e59f8d0aa25a8fb6b8e086cbe87167ce650652a450029",
  "source": "pragma solidity ^0.4.15;\n\nimport './NotakeyVerifierV1.sol';\n\ncontract TestVerifier is NotakeyVerifierV1 {\n\n    function TestVerifier(address trustedIssuer, address _claimRegistry) NotakeyVerifierV1(trustedIssuer, _claimRegistry) public {\n        \n    }\n\n    function vipFunction(uint nationBlacklist) onlyVerifiedSenders(msg.sender, nationBlacklist) public view {\n        \n    }\n\n    function test_preventedByNationalityBlacklist(address subject, uint256 nationalityBlacklist) public constant returns (bool)\n    {\n        return super._preventedByNationalityBlacklist(subject, nationalityBlacklist);\n    }\n\n    function test_hasIcoContributorType(address subject) public constant returns (bool)\n    {\n        return super._hasIcoContributorType(subject);\n    }\n\n}\n",
  "sourcePath": "/Users/ingemars/Projects/kyc-eth-contracts/contracts/TestVerifier.sol",
  "compiler": {
    "name": "solc",
    "version": "0.4.18+commit.9cf6e910.Emscripten.clang"
  },
  "schemaVersion": "1.0.1",
  "updatedAt": "2018-02-08T11:07:42.552Z"
}